:020000040000FA
:1000000020440020BD010000C5010000C701000020
:10001000C9010000CB010000CD010000000000007C
:10002000000000000000000000000000CF01000000
:10003000D101000000000000D3010000D501000044
:10004000D7010000D9010000DB010000DD01000044
:10005000DF010000E1010000E3010000E501000014
:1000600079080000E9010000EB010000ED0100004B
:10007000EF010000F1010000F3010000F5010000B4
:10008000F7010000F9010000FB010000FD01000084
:10009000FF01000001020000030200000502000051
:1000A00007020000090200000B0200000D02000020
:1000B0000F020000110200001302000015020000F0
:1000C00017020000190200001B0200001D020000C0
:1000D0001F02000021020000230200002502000090
:1000E00027020000290200002B0200002D02000060
:1000F0002F02000031020000330200003502000030
:1001000037020000390200003B0200003D020000FF
:100110003F020000410200004302000045020000CF
:1001200047020000490200004B0200004D0200009F
:100130004F0200005102000053020000550200006F
:1001400057020000590200005B0200005D0200003F
:100150005F0200006102000063020000650200000F
:1001600067020000C10500006B0200006D02000084
:100170006F020000710200007302000075020000AF
:1001800077020000790200007B0200007D0200007F
:100190007F0200008102000083020000850200004F
:1001A0008702000089020000DFF80CD000F084F81C
:1001B000004800474D0B0000204400203348804792
:1001C00033480047FEE7FEE7FEE7FEE7FEE7FEE70F
:1001D000FEE7FEE7FEE7FEE7FEE7FEE7FEE7FEE7F7
:1001E000FEE7FEE7FEE7FEE7FEE7FEE7FEE7FEE7E7
:1001F000FEE7FEE7FEE7FEE7FEE7FEE7FEE7FEE7D7
:10020000FEE7FEE7FEE7FEE7FEE7FEE7FEE7FEE7C6
:10021000FEE7FEE7FEE7FEE7FEE7FEE7FEE7FEE7B6
:10022000FEE7FEE7FEE7FEE7FEE7FEE7FEE7FEE7A6
:10023000FEE7FEE7FEE7FEE7FEE7FEE7FEE7FEE796
:10024000FEE7FEE7FEE7FEE7FEE7FEE7FEE7FEE786
:10025000FEE7FEE7FEE7FEE7FEE7FEE7FEE7FEE776
:10026000FEE7FEE7FEE7FEE7FEE7FEE7FEE7FEE766
:10027000FEE7FEE7FEE7FEE7FEE7FEE7FEE7FEE756
:10028000FEE7FEE7FEE7FEE7FEE70000A903000049
:10029000A901000040EA01039B0703D009E008C957
:1002A000121F08C0042AFAD203E011F8013B00F83B
:1002B000013B521EF9D27047064C074D06E0E0683C
:1002C00040F0010394E8070098471034AC42F6D39D
:1002D000FFF76EFFB40D0000D40D000080B500F0F4
:1002E00005F8B0FA80F0400980BD000040F210002F
:1002F000C2F20000D0F80014D0F80404C943084446
:100300006FF39F20704700002DE9F04381B040F269
:100310001009C2F20009D9F80054D9F804240C4697
:100320009542804611DAFFF7E1FFA042B8BF0446CC
:1003300009EB050041462246FFF7ACFFD9F800045F
:1003400026462044C9F8000429E04FF48060002AC2
:1003500008BF40F2FF30471B2646A742B8BF3E46C3
:1003600009EB050041463246FFF794FFD9F8000437
:1003700040F2FF323044C11700EB9151A74221EA0D
:100380000201A0EB0100C9F8000408DAFFF7A6FF9C
:1003900028B908EB0600A11BFFF7B6FF064430465C
:1003A00001B0BDE8F08300004EF68850CEF20000A8
:1003B000016841F4700101607047000080B54FF69C
:1003C000AC72EFF3108172B64F28C0F611320EDC1A
:1003D0001E282CD028281BD140F2314348F6492052
:1003E00041F2A941C1F20013984762B680BD50287E
:1003F00028D078280CD141F6894040F23143C0F230
:10040000010043F66B51C1F20013984762B680BDFC
:1004100041F68940C0F2010040F2314300F59240BC
:1004200044F67441C1F20013984762B680BD40F2B1
:10043000314348F6491040F6A171C1F200139847C4
:1004400062B680BD40F231434DF2493042F64A1166
:10045000C1F20013984762B680BD00002DE9F04359
:1004600081B0074640F2FF70C4F2040000249846B1
:10047000914687420D46C4F20A041ADD41F2FF702C
:10048000C4F2040087422ADC40F60000C4F20400F3
:10049000874239D041F20000C4F20400874256D1AD
:1004A0000820C4F200000168203441F0040101601A
:1004B0004DE0B7F1402F30D044F60000C4F2000008
:1004C00087423CD00020C4F2040087423FD108207C
:1004D000C4F20000016841F00101016037E041F61B
:1004E0000000C4F20400874220D041F20000C4F2B0
:1004F0000A0087422BD10820C4F200004168403432
:1005000041F00101416022E00820C4F200000168CE
:10051000103441F00201016019E00820C4F200002B
:100520000168803441F01001016010E00820C4F23D
:1005300000000168303441F00801016007E0082044
:10054000C4F200000168903441F0200101602046AF
:10055000294600220123012600F086F806FA05F05C
:100560007968B9F1010F14BF21EA000008437860EF
:1005700001210898A940D4F80021B8F1010F14BF57
:1005800022EA010111430122C4F80011012802FAF4
:1005900005F0D4F8002214BF22EA000010430999A4
:1005A000C4F800020120A8400129D4F800140CBFAF
:1005B000084321EA0000C4F8000401B0BDE8F0835C
:1005C00010B542F20004C4F20004204600F004F822
:1005D000204600F005F810BD0121016070470000C1
:1005E000C16841F00201C16070470000B0B500244D
:1005F000C4F20A044AF24005204603210F220023D8
:10060000C4F20A0500F030F8204604210F2200232E
:1006100000F02AF855F8200C40F4702040F0220039
:1006200045F8200C00F064FA00F062FA28684FF6F2
:10063000006120F0020028606868CFF6E0410840C1
:100640006860686840F4403040F03C0068602868AA
:1006500020F00400286000BFE8680028FCD028686B
:1006600040F001002860B0BD70B56FF01F0C0CEBBE
:10067000810C0446082938BF4FEA810C4FF00F0E59
:1006800028BF043426680EFA0CF5AE4326602668AF
:1006900002FA0CF232432260012202FA01F1002B2D
:1006A000D0F800230CBF22EA01011143C0F8001367
:1006B00070BD0000B0B584B08024C4F20A042046A6
:1006C0000021012201230025FFF7CEFF2046012152
:1006D00001220023FFF7C8FF4FF4614000904FF064
:1006E0004070019040F2003042F20004C0F6002059
:1006F000C4F204040290694620468DF80C5000F0C4
:100700001BF9204600F0C8F904B0B0BD4FF080419D
:100710000868C00740F20800C2F200000CD1096866
:10072000C1F38201042940D8DFE801F0031626292D
:100730002E004FF4FA4137E04AF20001C4F20A01F8
:100740000968890745F60021C0F262215CBF42F6C4
:100750000051C0F231112FE04AF20001C4F20A0147
:10076000096C89074CF2EC11C0F6EB315CBF40F626
:100770000061C0F2277117E04FF4004114E041F628
:100780000031C0F2B7010FE042F60051C0F2311162
:1007900001604AF20001C4F20A010968890704D520
:1007A00045F60021C0F2622101604FF080410968E6
:1007B000890702D50168C908016000684DF68361A8
:1007C000C4F21B31A0FB0101880C40F20401C2F20B
:1007D0000001086070470000B0B57025C4F2000544
:1007E00055F8680C962440F0007045F8680C962087
:1007F000FFF7E4FD002000F0FBF9FFF787FF40F270
:100800000800C2F20000006840F60061C0F22771E3
:10081000884217D84BF20041C0F2C441884201D946
:1008200078240FE045F60021C0F26221884201D908
:10083000502407E04CF28031C0F2C9111E248842D6
:1008400088BF28242046FFF7B9FD40F28010C4F28B
:100850000A00D0F8001121F00201C0F8001101686F
:1008600021F00C010160286820F00600286028684B
:1008700040F002002860B0BDB0B582B043F2000481
:10088000C4F20404204644F2100100F039F8A0B18B
:10089000204600F0F5F890B120464FF4804100F07A
:1008A0002FF850B120464FF4804100F021F840F27B
:1008B0001840C2F200000121017002B0B0BD01ADCC
:1008C00005E000BF204600F0DBF80028E4D1204618
:1008D000294600F0E7F80028F4D128460121FFF767
:1008E00013FDEFE7416821F400714160704700009B
:1008F000490458BF7047C16941F40051C161704754
:10090000CA0644BF82685FEA422212D44A0444BF46
:1009100082685FEA82220CD44A0744BF82685FEA99
:10092000823206D4490652BF00208068C0F3C060FE
:10093000704701207047000070B50446A0F1804068
:10094000A0F584204FEAF026032E0D4608D8082192
:1009500047A0C4F2000150F826000A68104308605E
:100960002046FFF7BFFFA0684CF20001C0F6FF7100
:100970000840A06040F20800C2F200000068296848
:10098000032EB0FBF1F0A168A0F1010041EA3010A4
:10099000A060606820F47C006060687929794FEA83
:1009A000C04040EA8140A979626840EA020040EA1A
:1009B00081506060E06880B2E060E879697AE2685E
:1009C00042EA004040EA016040F6FF71E060E06901
:1009D00020EA0100E061E87AE16940EA010040F4C0
:1009E0008050E061606844F2140120EA0100606018
:1009F000AA7A297A4FEA8203287B43EA01136568C1
:100A000043EA050343EA8033636088BF70BDDFE8D3
:100A100006F0020910171143084318D0002000F017
:100A20005BF870BD1143084315D0012000F054F865
:100A300070BD1143084312D0082000F04DF870BD7E
:100A4000114308430FD0152000F046F870BD002078
:100A500000F032F870BD012000F02EF870BD0820C3
:100A600000F02AF870BD152000F026F870BD00BF18
:100A700040000000800000000001000000020000B3
:100A80004068012121EAD000704700004068012140
:100A900021EA000070470000416841F400714160A4
:100AA000704700000268022000EA52206FF35F22C4
:100AB0000A6070470160704700F01F00012101FAD1
:100AC00000F04EF28011CEF200010860BFF34F8FAC
:100AD000BFF36F8F7047000000F01F00012101FA83
:100AE00000F04EF20011CEF20001086070470000E5
:100AF0004FF080400168C90710D1006810F01C0F4A
:100B000006D04FF08040006800F01C00082805D196
:100B1000142000BF013800BFFCD104E044F620607F
:100B2000013800BFFCD17047B0B542F20005C4F2F5
:100B300004050446C1B22846FFF7BCFF2846FFF76C
:100B4000A5FF0028FAD12046B0BD000082B00024E5
:100B500049F28065C4F20404C0F29805FFF73CFE38
:100B6000FFF7A8FD00F066F814A016A100F098F8B1
:100B70000026204600210022012300960196FFF75F
:100B80006DFC204605210122002300960196FFF707
:100B900065FC2846013800BFFCD104F5405400BF75
:100BA000112000F073F800BF2046FFF76FFF002808
:100BB000FAD12846013800BFFCD1F1E725730D0AB0
:100BC0000000000032313A34343A32310000000083
:100BD00080B54AF20000C4F20A0001210160FFF76B
:100BE00087FF4FF08040016841F00101016080BD46
:100BF00010B50446FFF7ECFFFFF7F8FC0420C4F241
:100C00000000012101604FF080400168002C21F0BC
:100C10001C010160016841F004010160016821F0DC
:100C2000020118BF02310160016821F00101016079
:100C300010BD000010B584B01024C4F20A04204690
:100C40000D2103220123FFF70FFD20460B21022275
:100C500000230024FFF708FD4FF4E13000904FF02F
:100C60008070019040F200108DF80C4043F20004B7
:100C7000C0F60020C4F20404029069462046FFF743
:100C80005BFE2046FFF708FF04B010BD80B50146AB
:100C900043F20000C4F20400FFF70CFF80BD000027
:100CA0000FB4054B10B503A9044A029800F017F8D9
:100CB00010BC5DF814FB0000290B000000000020B0
:100CC00002E008C8121F08C1002AFAD17047704715
:100CD000002001E001C1121F002AFBD170472DE95D
:100CE000F84F9946924688460546002706E0252893
:100CF0000AD051464A4690476D1C7F1C2878002830
:100D0000F5D13846BDE8F88F002315F8011F1846C5
:100D10002E2915D115F8011F04232A290DD06FF0B3
:100D20002F022978A1F13004092C09D800EB8000AA
:100D300002EB400008446D1CF3E758F8040B6D1CEF
:100D40002A78002ADDD0632A07D0732A0FD01046F4
:100D500051464A4690477F1C2AE018F8042B8DF82C
:100D6000002000218DF801106E46012103E058F8A3
:100D7000046B4FF0FF315A074FF0000401D409E033
:100D8000641C84420BDA8C42FADB325D002AF7D114
:100D900005E0641C8C42FCDB305D0028F9D127445F
:100DA00004E016F8010B51464A469047641EF8D2FB
:100DB0006D1CA3E7D80D000000000020100000000B
:100DC000C00C0000E80D00001000002010440000DE
:100DD000D00C000000000000000000001400000023
:080DE000002D310100000000AC
:04000005000001A94D
:00000001FF
