:020000040000FA
:1000000050490020BD010000CD010000CF010000DB
:10001000D1010000D3010000D50100000000000064
:10002000000000000000000000000000D7010000F8
:10003000D901000000000000DB010000710A00008F
:10004000DF010000E1010000E3010000E501000024
:10005000E7010000E9010000EB010000ED010000F4
:10006000D9110000F1010000F3010000F5010000CA
:10007000F7010000F9010000FB010000FD01000094
:10008000FF01000001020000030200000502000061
:1000900007020000090200000B0200000D02000030
:1000A0000F020000110200006104000015020000B0
:1000B00017020000190200001B0200001D020000D0
:1000C0001F020000210200002302000025020000A0
:1000D00027020000290200002B0200002D02000070
:1000E0002F02000031020000330200003502000040
:1000F00037020000390200003B0200003D02000010
:100100003F020000410200004302000045020000DF
:1001100047020000490200004B0200004D020000AF
:100120004F0200005102000053020000550200007F
:1001300057020000590200005B0200005D0200004F
:100140005F0200006102000063020000650200001F
:1001500067020000690200006B0200006D020000EF
:100160006F020000710200007302000075020000BF
:1001700077020000790200007B0200007D0200008F
:100180007F0200008102000083020000850200005F
:1001900087020000890200008B0200008D0200002F
:1001A0008F02000091020000DFF80CD000F01AF975
:1001B000004800475D230200504900203548804731
:1001C000354880473548804735480047FEE7FEE719
:1001D000FEE7FEE7FEE7FEE7FEE7FEE7FEE7FEE7F7
:1001E000FEE7FEE7FEE7FEE7FEE7FEE7FEE7FEE7E7
:1001F000FEE7FEE7FEE7FEE7FEE7FEE7FEE7FEE7D7
:10020000FEE7FEE7FEE7FEE7FEE7FEE7FEE7FEE7C6
:10021000FEE7FEE7FEE7FEE7FEE7FEE7FEE7FEE7B6
:10022000FEE7FEE7FEE7FEE7FEE7FEE7FEE7FEE7A6
:10023000FEE7FEE7FEE7FEE7FEE7FEE7FEE7FEE796
:10024000FEE7FEE7FEE7FEE7FEE7FEE7FEE7FEE786
:10025000FEE7FEE7FEE7FEE7FEE7FEE7FEE7FEE776
:10026000FEE7FEE7FEE7FEE7FEE7FEE7FEE7FEE766
:10027000FEE7FEE7FEE7FEE7FEE7FEE7FEE7FEE756
:10028000FEE7FEE7FEE7FEE7FEE7FEE7FEE7FEE746
:10029000FEE7000045050000450B0000893B020019
:1002A000A90100002DE9F05F0546002092469B461B
:1002B00088460646814640241BE02846414647467C
:1002C000224600F07FF853465A46C01A914110D397
:1002D00011461846224600F066F82D1A67EB010811
:1002E0004F4622460120002100F05DF817EB00097F
:1002F0004E41201EA4F10104DFDC484631462A4667
:100300004346BDE8F09F10B5431A934209D28318C3
:10031000881803E010F8011D03F8011D521EF9D2E0
:1003200010BD40EA01039B0703D009E008C9121F72
:1003300008C0042AFAD203E011F8013B00F8013B9F
:10034000521EF9D210BDD2B201E000F8012B491EB5
:10035000FBD270470022F6E710B513460A46044662
:100360001946FFF7F0FF204610BD421C10F8011B94
:100370000029FBD1801A704710B5002200E0521C02
:10038000835C8C5CA34201D1002BF8D1D8B2E1B2DE
:10039000401A10BD034611F8012B00F8012B002A6A
:1003A000F9D118467047202A04DB203A00FA02F1FE
:1003B000002070479140C2F1200320FA03F3194353
:1003C00090407047202A04DB203A21FA02F00021F5
:1003D000704721FA02F3D040C2F120029140084355
:1003E00019467047064C074D06E0E06840F00103EF
:1003F00094E8070098471034AC42F6D3FFF7D8FED4
:10040000F4B9020024BA020070B58C1810F8015B30
:1004100015F0070301D110F8013B2A1106D110F89D
:10042000012B03E010F8016B01F8016B5B1EF9D1A1
:100430002B0705D40023521E0DD401F8013BFAE727
:1004400010F8013BCB1A921C03E013F8015B01F892
:10045000015B521EF9D5A142D8D3002070BD000027
:1004600080B548F64000C4F2040000F0BBFB012058
:1004700021F03CF980BD000080B500F005F8B0FA2D
:1004800080F0400980BD000040F29800C2F20000F8
:10049000D0F80014D0F80404C94308446FF39F2037
:1004A000704700002DE9F04381B040F29809C2F294
:1004B0000009D9F80054D9F804240C469542804626
:1004C00011DAFFF7E1FFA042B8BF044609EB0500CF
:1004D00041462246FFF717FFD9F80004264620447C
:1004E000C9F8000429E04FF48060002A08BF40F2F8
:1004F000FF30471B2646A742B8BF3E4609EB050022
:1005000041463246FFF7FFFED9F8000440F2FF32C1
:100510003044C11700EB9151A74221EA0201A0EB40
:100520000100C9F8000408DAFFF7A6FF28B908EBB4
:100530000600A11BFFF7B6FF0644304601B0BDE838
:10054000F08300004EF68850CEF20000016841F4BE
:10055000700101607047000080B54FF6AC72EFF398
:10056000108172B64F28C0F611320EDC1E282CD036
:1005700028281BD140F2314348F6492041F2A941D5
:10058000C1F20013984762B680BD502828D0782861
:100590000CD141F6894040F23143C0F2010043F6EC
:1005A0006B51C1F20013984762B680BD41F6894095
:1005B000C0F2010040F2314300F5924044F674412C
:1005C000C1F20013984762B680BD40F2314348F64D
:1005D000491040F6A171C1F20013984762B680BD80
:1005E00040F231434DF2493042F64A11C1F2001354
:1005F000984762B680BD000000EB810000210164D5
:10060000704700002DE9F04381B0074640F2FF70CB
:10061000C4F2040000249846914687420D46C4F275
:100620000A041ADD41F2FF70C4F2040087422ADC9A
:1006300040F60000C4F20400874239D041F20000C5
:10064000C4F20400874256D10820C4F200000168B9
:10065000203441F0040101604DE0B7F1402F30D06B
:1006600044F60000C4F2000087423CD00020C4F2EF
:10067000040087423FD10820C4F20000016841F025
:100680000101016037E041F60000C4F20400874236
:1006900020D041F20000C4F20A0087422BD108208A
:1006A000C4F200004168403441F00101416022E0A1
:1006B0000820C4F200000168103441F0020101601A
:1006C00019E00820C4F200000168803441F01001F4
:1006D000016010E00820C4F200000168303441F0ED
:1006E0000801016007E00820C4F2000001689034AE
:1006F00041F0200101602046294600220123012605
:1007000000F0EAF806FA05F07968B9F1010F14BFB4
:1007100021EA00000843786001210898A940D4F834
:100720000021B8F1010F14BF22EA01011143012297
:10073000C4F80011012802FA05F0D4F8002214BF11
:1007400022EA000010430999C4F800020120A840E1
:100750000129D4F800140CBF084321EA0000C4F8B2
:10076000000401B0BDE8F08300EB810001210164C9
:10077000704700002DE9F04742F2000CC4F2000C73
:10078000604506D10822C4F20002136843F080439A
:1007900013600B780E7F4A789D1E45EA861502F09D
:1007A00001074B7FACF1402645EA074502F0FE0207
:1007B00003FB06F645EA024206F500552A4342F4D9
:1007C000607291F8068091F80AE042610D89CA8949
:1007D0006FF0FF094F8840F2000A09EB0525CFF6BC
:1007E000FF7A013A0AEB07462A433243A8F1010592
:1007F00042EA8562604582618A890D8A8C8809EBAC
:100800000222A5F101050AEB044442EA050242EA8C
:100810000402AEF1010542EA8562C2618A69426260
:1008200040F2FF120264466484644969C164A7F11E
:10083000010101654FF001010160436018BFBDE88F
:10084000F087002B18BF00F0F7FDBDE8F08700002F
:10085000C16841F00201C16070470000B0B50024DA
:10086000C4F20A044AF24005204603210F22002365
:10087000C4F20A0500F030F8204604210F220023BC
:1008800000F02AF855F8200C40F4702040F02200C7
:1008900045F8200C04F0A8FC04F0A6FC28684FF6EC
:1008A000006120F0020028606868CFF6E04108404F
:1008B0006860686840F4403040F03C006860286838
:1008C00020F00400286000BFE8680028FCD02868F9
:1008D00040F001002860B0BD70B56FF01F0C0CEB4C
:1008E000810C0446082938BF4FEA810C4FF00F0EE7
:1008F00028BF043426680EFA0CF5AE43266026683D
:1009000002FA0CF232432260012202FA01F1002BBA
:10091000D0F800230CBF22EA01011143C0F80013F4
:1009200070BD000070B540F204010C25C2F2000158
:100930004278C4F20005096890F802C090F804E01B
:1009400043792E68541CB1FBF4F146F480562E60B6
:100950004FF4484501FB05F586792B4443EA8E1395
:1009600040F2080543EA86034FF00846336090F9E9
:100970000030C2F20005DEB22D6842EAC602B5FBC5
:10098000F4F542EA4C0441F28042C0F2EF32954263
:1009900088BF44F004040C22C8F6000242F8084C58
:1009A000032E9ABF0EA656F823304FF48053C0781A
:1009B0004FF47A7600FB06F0B0FBF3F0013000FB59
:1009C00001F042F8040C022010601068800758BF44
:1009D00070BD00BF00BF10688007FBD470BD00BFB2
:1009E00000100000001000000020000000080000BF
:1009F000B0B584B08024C4F20A042046002101224C
:100A000001230025FFF768FF204601210122002372
:100A1000FFF762FF4FF4614000904FF0407001908B
:100A200040F2003042F20004C0F60020C4F2040498
:100A30000290694620468DF80C5000F02DFC2046AF
:100A400000F0DAFC04B0B0BDB0B501380024B4EB5E
:100A5000106F1CBF0120B0BD4EF21005CEF2000594
:100A6000686000F00DFD0720AC6028602046B0BD36
:100A700080B524F0E1FE80BD4FF080410868C007DA
:100A800040F20800C2F200000CD10968C1F38201F3
:100A9000042940D8DFE801F0031626292E004FF480
:100AA000FA4137E04AF20001C4F20A0109688907F5
:100AB00045F60021C0F262215CBF42F60051C0F24F
:100AC00031112FE04AF20001C4F20A01096C8907D2
:100AD0004CF2EC11C0F6EB315CBF40F60061C0F2A5
:100AE000277117E04FF4004114E041F60031C0F2E5
:100AF000B7010FE042F60051C0F2311101604AF235
:100B00000001C4F20A010968890704D545F60021ED
:100B1000C0F2622101604FF080410968890702D567
:100B20000168C908016000684DF68361C4F21B3199
:100B3000A0FB0101880C40F20401C2F20001086030
:100B400070470000B0B57025C4F2000555F8680C78
:100B5000962440F0007045F8680C9620FFF7FCFCE6
:100B6000002024F03BFEFFF787FF40F20800C2F2AE
:100B70000000006840F60061C0F22771884217D873
:100B80004BF20041C0F2C441884201D978240FE001
:100B900045F60021C0F26221884201D9502407E0C5
:100BA0004CF28031C0F2C9111E24884288BF28242B
:100BB0002046FFF7D1FC40F28010C4F20A00D0F8C2
:100BC000001121F00201C0F80011016821F00C01B0
:100BD0000160286820F006002860286840F00200C4
:100BE0002860B0BD01214161704700002DE9F0414E
:100BF0000446A0F18040A0F58D204FEAB010DDF84A
:100C00001880042840F208001D4616460F46C4F21C
:100C1000000004D8016841F40061016003E041680C
:100C200041F480014160204600F004FAA068B8F168
:100C3000000F20F00F00A060A06840EA0700A0604D
:100C4000A6F101002063A5F1010020604FF0010032
:100C500060612169404618BF012021F0010108446C
:100C600048F6BF01C4F204018C42206129DD48F638
:100C7000BF10C4F20400844246DD48F63F20C4F2AF
:100C80000400844278DD48F64020C4F20400844227
:100C900000F0C28048F68020C4F20400844200F0D4
:100CA000C58048F6C020C4F20400844240F0C480ED
:100CB000B8F1000F00F0C080572000F0D1FBBDE874
:100CC000F08146F6FF00C4F20400844239DC46F6A7
:100CD0007F00C4F20400844262DC46F60000C4F2E5
:100CE0000400844200F0AA8046F64000C4F20400EA
:100CF000844240F0A180B8F1000F00F09D800320F5
:100D000000F0AEFBBDE8F08148F63F10C4F20400ED
:100D1000844259DC48F6C000C4F20400844200F06A
:100D2000958048F60010C4F20400844240F08480AC
:100D3000B8F1000F00F08080502000F091FBBDE87A
:100D4000F08148F63F00C4F20400844250DC46F6CD
:100D50000010C4F20400844200F0808048F60000D5
:100D6000C4F20400844267D1B8F1000F64D00B20B4
:100D700000F076FBBDE8F08148F6C010C4F2040034
:100D8000844273D048F60020C4F20400844253D158
:100D9000B8F1000F50D0542000F062FBBDE8F081A4
:100DA00046F68000C4F20400844267D046F6C000D4
:100DB000C4F2040084423FD1B8F1000F3CD01620A9
:100DC00000F04EFBBDE8F08148F64010C4F204008C
:100DD00084425BD048F68010C4F2040084422BD1D8
:100DE000B8F1000F28D0522000F03AFBBDE8F081A6
:100DF00048F64000C4F2040084424FD048F6800018
:100E0000C4F20400844217D1B8F1000F14D01D20A1
:100E100000F026FBBDE8F081B8F1000F08BFBDE887
:100E2000F081552000F01CFBBDE8F081B8F1000F07
:100E30001CBF562000F014FBBDE8F081B8F1000F94
:100E4000FAD0022000F00CFBBDE8F081B8F1000FF1
:100E5000F2D01F2000F004FBBDE8F081B8F1000FD4
:100E6000EAD04F2000F0FCFABDE8F081B8F1000FA5
:100E7000E2D0532000F0F4FABDE8F081B8F1000FA1
:100E8000DAD0142000F0ECFABDE8F081B8F1000FE0
:100E9000D2D0512000F0E4FABDE8F081B8F1000FA3
:100EA000CAD01A2000F0DCFABDE8F08148F6BF0194
:100EB000C4F20401884248F64041C4F2040123DD33
:100EC00048F6BF12C4F2040290423ADD48F63F22CF
:100ED000C4F2040290425CDD48F64022C4F20402EF
:100EE000904200F08F8048F68022C4F204029042C3
:100EF00000F08B8048F6C022C4F20402904240F019
:100F000098804FF4006090E046F6FF02C4F20402BD
:100F10009042A1F5005228DC46F67F01C4F204019C
:100F2000884245DC46F60001C4F2040188426FD0D5
:100F300046F64001C4F20401884218BF70470220FF
:100F400074E048F63F12C4F2040290423EDC48F6D8
:100F5000C002C4F2040290425CD048F60012C4F20F
:100F60000402904265D110205FE048F63F03C4F2CE
:100F70000403984238DC46F60013C4F20403984296
:100F80004AD048F60002C4F20402904251D1012036
:100F90004BE048F6C012C4F2040290423ED048F63C
:100FA0000022C4F20402904243D14FF480703CE02E
:100FB00046F68001C4F20401884231D046F6C001F1
:100FC000C4F20401884234D108202FE048F64012D0
:100FD000C4F20402904225D048F68012C4F2040202
:100FE000904226D1402020E048F64002C4F204029C
:100FF000904219D048F68002C4F20402904218D1FF
:10100000042012E04FF400700FE04FF480600CE019
:1010100001200BE0082008E0102007E0802004E019
:10102000042003E0202000E002200A461168084363
:101030001060704748F6BF01C4F20401884248F6C8
:101040004041C4F2040123DD48F6BF12C4F2040299
:1010500090423BDD48F63F22C4F2040290425FDD3D
:1010600048F64022C4F20402904200F0958048F60F
:101070008022C4F20402904200F0918048F6C0221F
:10108000C4F20402904240F0A5806FF400609DE03D
:1010900046F6FF02C4F204029042A1F500522ADC97
:1010A00046F67F01C4F20401884248DC46F600019E
:1010B000C4F20401884275D046F64001C4F204012E
:1010C000884218BF70476FF0020080E048F63F1278
:1010D000C4F20402904241DC48F6C002C4F20402A9
:1010E000904262D048F60012C4F20402904271D1DC
:1010F0006FF010006AE048F63F03C4F20403984220
:101100003BDC46F60013C4F20403984250D048F684
:101110000002C4F2040290425CD16FF0010055E07D
:1011200048F6C012C4F20402904244D048F60022AD
:10113000C4F2040290424DD16FF4807046E046F64E
:101140008001C4F20401884238D046F6C001C4F2DE
:10115000040188423ED16FF0080038E048F64012A2
:10116000C4F2040290422CD048F68012C4F2040269
:1011700090422FD16FF0400028E048F64002C4F2C0
:101180000402904220D048F68002C4F20402904249
:1011900020D16FF0040019E06FF4007016E06FF4D6
:1011A000806013E06FF0010011E06FF008000DE0C7
:1011B0006FF010000BE06FF0800007E06FF00400AC
:1011C00005E06FF0200001E06FF002000A461168B0
:1011D0000840106070470000B0B582B043F20004D0
:1011E000C4F20404204644F2100100F039F8A0B122
:1011F000204600F0F5F890B120464FF4804100F011
:101200002FF850B120464FF4804100F021F840F60D
:10121000CD00C2F200000121017002B0B0BD01ADED
:1012200005E000BF204600F0DBF80028E4D12046AE
:10123000294600F0E7F80028F4D128460121FFF7FD
:1012400031F9EFE7416821F4007141607047000017
:10125000490458BF7047C16941F40051C1617047EA
:10126000CA0644BF82685FEA422212D44A0444BFDD
:1012700082685FEA82220CD44A0744BF82685FEA30
:10128000823206D4490652BF00208068C0F3C06095
:10129000704701207047000070B50446A0F18040FF
:1012A000A0F584204FEAF026032E0D4608D8082129
:1012B00047A0C4F2000150F826000A6810430860F5
:1012C0002046FFF7BFFFA0684CF20001C0F6FF7197
:1012D0000840A06040F20800C2F2000000682968DF
:1012E000032EB0FBF1F0A168A0F1010041EA30103B
:1012F000A060606820F47C006060687929794FEA1A
:10130000C04040EA8140A979626840EA020040EAB0
:1013100081506060E06880B2E060E879697AE268F4
:1013200042EA004040EA016040F6FF71E060E06997
:1013300020EA0100E061E87AE16940EA010040F456
:101340008050E061606844F2140120EA01006060AE
:10135000AA7A297A4FEA8203287B43EA0113656857
:1013600043EA050343EA8033636088BF70BDDFE86A
:1013700006F0020910171143084318D0002000F0AE
:1013800063F870BD1143084315D0012000F05CF8EC
:1013900070BD1143084312D0082000F055F870BD0D
:1013A000114308430FD0152000F04EF870BD002007
:1013B00000F032F870BD012000F02EF870BD08205A
:1013C00000F02AF870BD152000F026F870BD00BFAF
:1013D000400000008000000000010000000200004A
:1013E0004068012121EAD0007047000040680121D7
:1013F00021EA000070470000416841F4007141603B
:10140000704700000268022000EA52206FF35F225A
:101410000A6070470160704700F01F00012101FA67
:1014200000F04EF28011CEF200010860BFF34F8F42
:10143000BFF36F8F704700004EF20810CEF200002D
:101440004FF400710160704700F01F00012101FAA4
:1014500000F04EF20011CEF200010860704700006B
:10146000002848BF704700F01F01012202FA01F175
:101470004EF200124009CEF2000242F820107047EE
:101480004EF62350CEF20000E021017070470000BC
:1014900070B505680446287800F01AF8002804BFE3
:1014A000002070BD681E0025064600BF821C226019
:1014B00005EB850116F8012F807802EB4101A1F1BF
:1014C000300500F005F800283046EFD1284670BD01
:1014D000A0F1300100200A2938BF01207047000028
:1014E00010B540F2CC40C2F20000402100F00AFFEB
:1014F00043F67D00C0F200001E210022002420F0EF
:1015000063F940F2D841C2F20001086002F05EF9CE
:1015100040F26060C2F20000047010BD70B5034676
:10152000B1F90000B2F90040B1F902C0B2F90250BD
:10153000B1F904E0B2F90460A042B1F90610B2F9C1
:101540000620C8BF0446AC451C80C8BF6546B645EA
:101550005D80B8BF764691429E80B8BF0A460020A3
:10156000B4424FF00001D8BF01219542D8BF0120FD
:10157000DA80084070BD00002DE9F04381B00C46D0
:10158000B0F90070B1F900108F423DDBB0F9026094
:10159000B4F902108E4237DBB0F90490B4F90410AC
:1015A000894531DCB0F90680B4F9060080452BDCB2
:1015B00015466AB3694620462A46ADF80070ADF874
:1015C000026000F097F8F8B1694620462A46ADF867
:1015D0000090ADF8026000F08DF8A8B16946204691
:1015E0002A46ADF80070ADF8028000F083F858B1DB
:1015F000694620462A46ADF80090ADF8028000F01A
:1016000079F801B0BDE8F083002001B0BDE8F083B7
:10161000012001B0BDE8F083B0F90020B1F9043039
:101620009A4213DCB0F90420B1F900309A420DDB84
:10163000B0F90220B1F906309A4207DCB0F9060091
:10164000B1F902108842A4BF012070470020704702
:101650002DE9F04381B00C46B0F90460B1F90010F7
:101660008E4211DBB0F90670B4F902108F420BDB29
:10167000B0F90080B4F90410884505DCB0F9029097
:10168000B4F90600814503DD012001B0BDE8F08317
:101690001546EAB1694620462A46ADF80080ADF805
:1016A000029000F027F898B9694620462A46ADF81E
:1016B0000060ADF8029000F01DF848B96946204678
:1016C0002A46ADF80080ADF8027000F013F818B1AA
:1016D000002001B0BDE8F083694620462A46ADF8F7
:1016E0000060ADF8027000F005F880F0010001B074
:1016F000BDE8F0832DE9F04F83B00646B1F9000054
:10170000B6F90070B8420EDBB6F904A050450ADC09
:10171000B1F90200B6F902800C46404503DBB6F988
:101720000690484503DD002003B0BDE8F08F154664
:10173000012A6BDB30460FF01BF981B200EBD13090
:101740000FFA80FB4FEA6B00009030460FF070F804
:1017500081B2002200EBD130009900B24610B1EB0B
:10176000600FB8BF4FEA6B06AE42A8BF2E46ADF879
:101770000470374406EB080501A82146ADF808704F
:10178000ADF80680ADF80A50FFF7B4FF30B1B819D4
:10179000ADF80800A819ADF80A0022E0A9EB060B85
:1017A00001A821460022ADF806B0ADF80A90FFF777
:1017B000A1FF18B1B819ADF808000EE0AAEB0607B2
:1017C00001A821460022ADF80470ADF808A0FFF78B
:1017D00091FF68B1B81BADF80400ABEB0600ADF8A3
:1017E000060001A821461DF08FF803B0BDE8F08F78
:1017F00001A821460022ADF80680ADF80A50FFF797
:1018000079FF18B1B81BADF80400C3E7012003B09D
:10181000BDE8F08F70B5B1F90030B2F90040B1F910
:1018200002C0B2F90250B1F904E0B2F90460A34277
:10183000B1F90610B2F90620B8BF1C46AC450480C9
:10184000B8BF6546B6454580C8BF7646868091429A
:10185000C8BF0A46C28070BDF0B585B005461FF00E
:1018600035FF40F2DC6607460020C2F20006049015
:101870002DB1E8683060284620F0C0F802E011F091
:10188000D1FB3060306800691CF0E8FF30684069C7
:10189000002818BF1CF0E2FF3068C0691CF0DEFFB2
:1018A0003068006A1CF0DAFF30680169002949D00D
:1018B0001DF0C4FA1DF01EFA3068B0F85011C9B31B
:1018C0000168097C890716D511F0C4FB3168451EF3
:1018D000084611F017FC013804B22BB202AD2846BD
:1018E0000021002200940FF08DF830680168896BA8
:1018F0004D6004F017FD30684FF48071303017F000
:10190000C9FE3068202100F5987017F0C3FE3068DA
:101910000021A0F8501138461FF0D2FE0490306824
:101920000068436A33B140F6D002C2F20002049963
:101930001268984717F058FC00F034F800F008F8E7
:1019400005B0F0BD0021A0F8501105B0F0BD0000B9
:10195000B0B540F2DC450024C2F200052859002849
:1019600018BF17F0E3FC28191C2117F093FE1C3454
:10197000702C08BFB0BDF1E740F2EC71C2F200017B
:10198000096804E00A7E42F001020A7649690029EA
:1019900008BF70474A688242F4D00A688242F5D193
:1019A000F0E700007047000080B540F2D850C2F266
:1019B0000000042100F0A6FC80BD000080B540F2CC
:1019C000E850C2F200001C2100F09CFC80BD000029
:1019D0002DE9F04F81B00A9F002B044608BFB7F5F0
:1019E000807F00F0D680DDF82C804FF0FF3EB8F805
:1019F00002C0B8F900900FFA8CF507FB09F007FB5D
:101A000005F6A1EB0901521B4042764201FB07F1AA
:101A100002FB07F20EEB10200EEB162E022606EB51
:101A2000112106EB1222002B2080A4F802E0A180F5
:101A3000E28000F0B48046F26769C6F2666953FB43
:101A400009F0811001EBD07707EB8700A3EB40058D
:101A500038B220F017F9791C09B28246084620F006
:101A600011F907F15A0109B20646084620F00AF9B1
:101A700007F15B0109B20746084620F003F9C5F1FA
:101A80000A0101FB0AF201FB07F105FB062205FB37
:101A9000001052FB09F250FB09F0911001EBD271DA
:101AA000821002EBD070B4F9009043114A11B4F9DE
:101AB000021003FB09FEB8F8005002FB11ECB4F968
:101AC000046005EB9C2002FB09FB009003FB06F081
:101AD000B4F9067003FB01F903FB01BA02FB110123
:101AE000B8F8028005EB912C02FB06F102FB069987
:101AF00002FB17E602FB170008EB992E05EB96296F
:101B000005EB9020009D03FB07B603FB07110FFABE
:101B100089F32DB208EB9A2A08EB962208EB91285C
:101B200000B20FFA8CF1AB422E46B8BF1E46884277
:101B30000F46B8BF0746BE42B8BF3746AB42278004
:101B4000C8BF1D468842C8BF014610B20FFA8AF2CC
:101B50008D42C8BF29460FFA88F30FFA8EF7A1808D
:101B600090421146B8BF0146BB423E46B8BF1E4632
:101B7000B142B8BF0E4690426680C8BF0246BB4223
:101B8000C8BF1F46BA42C8BF1746E78001B0BDE8CC
:101B9000F08F00202060481EA080501E0AE01FFA2F
:101BA00089F3184420800EEB0C006080C818A080D8
:101BB00002EB0C00E08001B0BDE8F08F2DE9F04FA2
:101BC00081B00446B0F90800B4F90A30081AE18976
:101BD000D21AB1F5807F21680ED1D4E90B67636A10
:101BE00007FB00F507FB02F706FB125206FB00702D
:101BF00003EBA20582101AE0A36BA78903FB00F098
:101C000003FB02F240114FEA621277B1D4E90B678D
:101C1000636A00FB07F502FB07F706FB125206FB9F
:101C2000007003EBA225821201E0636AC518002D43
:101C30004FF0000062D4B4F904302E129E425DDAF7
:101C4000A06A12EB000A4FF0000057D4B4F9062046
:101C50004FEA2A2B934551DA94F83420500715D4D3
:101C60000FFA86F90FFA8BF7238A04F11808404619
:101C700049463A4614F0F0FEA082404649463A46AC
:101C800014F06CFE00274FF000081AE00BFB036015
:101C900092070AD401EB40014FEA400804F1140016
:101CA0000222022717F086FC0CE000EB400804F14A
:101CB000140001EB08073946022217F07BFCB878C4
:101CC0000327A07594F83400C00707D0A08AB0F5A8
:101CD000FC6F02BF002001B0BDE8F08FE07C80B156
:101CE0002046A587A4F83EA0A4F84060A4F842B01E
:101CF000C4F8448084F8487000F008F801B0BDE8EA
:101D0000F08F012001B0BDE8F08F00002DE9F04F09
:101D100087B090F83C100446D0F8009090F83E0050
:101D20006F290DD8B4F940200027002AC8BF4FF012
:101D3000FF376FF07F0281EA02086F2810D822E097
:101D400091294FF000071AD3B4F94020B4F90430B8
:101D50000132C1F17F089A42B8BF01276F2812D91A
:101D600091284FF0000619D3B4F94210B4F90620B7
:101D70000131C0F17F009142B8BF01260FE04FF062
:101D8000FF086F28ECD8B4F9421000260029C8BF1C
:101D90004FF0FF366FF07F01484000E0FF200390D6
:101DA000A08AA17D019094F834000291400748D4A4
:101DB000B4F84000B4F942203844238A01B204F157
:101DC0001805284614F048FEB4F84220B4F9401033
:101DD0003244238A12B2ADF81800284614F03CFEB3
:101DE000B4F84010B4F8422039443244238A09B28E
:101DF00012B2ADF81400284614F02EFE94F83410F8
:101E0000ADF81000890749D5B4F940B0B4F942A043
:101E10000BEB07000FFA80F928464946524614F0AA
:101E20009DFD0AEB06010EB282462846594632460F
:101E300014F094FD834628464946324614F08EFD40
:101E40004AE0606C94F84810022207FB010009EB9D
:101E5000000106A817F0AEFBB4F90410606C94F80A
:101E6000482006FB01F101FB0200022209EB000100
:101E700005A817F09FFBB4F90410606C94F8482093
:101E800006FB017101FB0200022209EB000104A81C
:101E900017F090FB94F83400800705D400204FF031
:101EA000000B4FF0000A17E094F84800616C421EE6
:101EB000B4F9043006FB00F602EB010C07FB00C589
:101EC00006FB031107FB00205318084419F805A06E
:101ED00019F803B019F8000094F83410029F89072C
:101EE00003D4FF204546A07549E05FFA88F181F0F0
:101EF000FF0202FB0AF30BFB01F617FB013112FB99
:101F00000063C1F307220399C3F30723C9B202FB9D
:101F100001F681F0FF0113FB01660021032A4FF057
:101F2000000538BF0125032B38BF0121360A29409F
:101F3000A67501D045461CE0032A039A38BF00224B
:101F4000032B38BF4FF0FF320392032F424638BFB6
:101F50000022BAF1030F38BF4FF0FF32BBF1030F7D
:101F600038BF4FF00008032838BF4FF0FF38454610
:101F7000904600291EBF002007B0BDE8F08F5FFA31
:101F800088F2FF2A04D0019822B9BDF8186006E053
:101F9000019E04E0BDF8181010F028FB0646EAB2D6
:101FA000FF2A03D02AB9BDF8100008E0BDF81400DC
:101FB00005E0BDF81400BDF8101010F017FB0399F0
:101FC000CAB242B1FF2A01D1304604E0B3B281B2B5
:101FD000184610F00BFBA082012007B0BDE8F08F7F
:101FE0002DE9F04381B00446B0F90C0046F2676871
:101FF000C6F2666850FB08F1B4F908208B1003EBB9
:10200000D1771202626207EB8702B4F90A10A0EBE3
:102010004205784200B20902A1621FF033FEF94383
:1020200009B2814608461FF02DFEC7F15A0109B2D8
:10203000064608461FF026FEC7F1590109B20746B9
:1020400008461FF01FFE05FB06F1C5F10A0205FB5D
:1020500000F002FB091102FB070051FB08F150FBE5
:1020600008F08A1002EBD171821002EBD070491196
:102070004211A07CE162226314F090FD94F83420B8
:10208000A17C02F0FE02104484F83400084614F0EB
:1020900079FD94F83410A27C01F0F90160F341015C
:1020A000101F0023032838BF012341EA8300216861
:1020B00084F8340002F01F0020762046216230F8B8
:1020C000191FA28801F0030141EA8201E2886FF33F
:1020D0005F31E38941EA4231D20882705A0802F541
:1020E0000012B2FBF3F20180218AFF20A263A075E7
:1020F000A18201B0BDE8F083F0B581B016460C4670
:1021000007461FF0E3FAA2B240F2F454C2F2000410
:10211000054620463946334615F018F968B1E0699E
:102120000021A16218B928461FF0CAFAE061E069EF
:10213000002804BF0120E06107E020462C2117F0B1
:10214000A9FA4FF00040A0620024204601B0F0BD83
:1021500010B540F22060C2F20000142100F0D2F865
:1021600015F0AEF8E0B146F66141C0F20101044657
:1021700015F07AF947F2AD01C0F20101204615F0E1
:1021800075F947F21D21C0F20101204615F070F9E2
:1021900046F62941C0F20101204615F063F910BD51
:1021A000FEE70000F0B585B004460D4610B134B925
:1021B00005B0F0BD10F036FF0446002CF8D000202A
:1021C000CDB30290204610F045FF0138ADF80C0069
:1021D000204610F097FF0138ADF80E00684602AABD
:1021E0002946FFF79BF90028E2D02068017C890787
:1021F00025D48269002A1CBF69469047B4F8500173
:1022000090B104F1300500276E4600BF30462946E4
:102210000022FFF7B1F90028CAD1B4F85001013704
:10222000874205F10805F1D31F2816D804EBC0003A
:102230006946303017E0A4F8500105B0F0BD0298AF
:10224000039920630120A4F85001606861630028AD
:10225000AED01FF0E3FB05B0F0BD0020A4F85001A4
:1022600004F1300002A90EF017FAB4F850116068BA
:1022700001310028A4F8501118BF1FF0CFFB05B0A2
:10228000F0BD000070B5044600F014F8002808BF47
:1022900070BD05462046294600F026F80646204631
:1022A000294600F081F8284617F040F8002E354600
:1022B000F0D170BD002814BF4068002070470000B6
:1022C000B0B50446FFF7F6FF002804BF0020B0BDFC
:1022D000014600252046013500F006F80146002899
:1022E000F8D12846B0BD0000006808444068704737
:1022F0000068085870470000002814BF806800205C
:10230000704700000331002221F00301C0E90012F0
:1023100082607047B0B504460068083016F04AFF86
:102320000546A0B120462946002220F0FFFC626845
:102330002046294620F0F2FC616819B120462A4661
:1023400020F0F4FCA0686560002808BFA56028465E
:10235000B0BD0000B0B504460068083016F02AFF92
:102360000546A0B120462946002220F0D7FCA268ED
:102370002046294620F0DAFCA16819B120462A46F9
:1023800020F0CCFC6068A560002808BF6560284686
:10239000B0BD000028B1416809B9806808B10020CB
:1023A000704701207047000070B5002808BF70BD5D
:1023B00004460D46FFF77EFFA8421AD02046FFF7DD
:1023C0009BFF064620462946FFF792FFAE4206468F
:1023D0001BD020462946FFF787FF05462046314699
:1023E0002A4620F09BFC20462946324620F09EFCDF
:1023F00070BD20462946FFF777FF606068B101464F
:102400002046002220F092FC70BDA66046B1204616
:102410003146002220F082FC70BD0020A06070BD1B
:102420000020606070BD000010B50446006882683E
:10243000002A1CBF2146904720680068002808BF7A
:1024400010BD20602046FFF7EFFF10BD8068002818
:1024500014BFC08A002000B2704700002DE9F04F81
:1024600091B00446408CDDF868B040F00400608410
:1024700022841646BBF8082020461F468A461AF0DA
:10248000B9F92784BBF808200546204651461AF0C2
:10249000B1F9618C814621F004004D45608406D17C
:1024A00004BF89EA05005FEA004000F087802684C7
:1024B000BBF80820204651461AF09CF98046204679
:1024C000514627840CF066F80068BBF808104246B5
:1024D0001DF090FFBBF80800602828D147F6FF7672
:1024E000B14518BFB04522D120461AF041FC81B257
:1024F00000EBD13000B2451020461AF039FC81B211
:10250000B04500EBD13000B24FEA600005D1691C44
:1025100000F101084145B8BF884647F6FF7189457B
:1025200005D1691C00F101094945B8BF894640F24F
:102530003C60C2F20000FFF7EDFE002842D0C0E987
:10254000038904600646BBF8080001ACB080204651
:10255000C6F808A00DF0BAFA204631460DF0DEFBB1
:1025600046F60D21C0F2020120460DF02FFB204659
:102570000DF096FB46F67531C0F2020120460DF0D3
:1025800067FB20460021FF220DF0A4FBBBF80010E2
:1025900020460DF08DFBBBF8021020460DF008FB25
:1025A000DBF80C1020460DF031FB20460DF004FB4B
:1025B000DBF81000069020460DF0CCFB11B0BDE812
:1025C000F08F00BFFEE7000080B540F23C60C2F231
:1025D00000001421FFF796FE80BD00002DE9F04FAA
:1025E00081B00446408C10F4FC7F00F02A816FEA31
:1025F00001096FEA020B4FF0000AE84600250AE0E5
:102600000120002800F02081608C0135C0F3C50056
:10261000854280F01B81E66806EBC50040688101B9
:10262000F2D420F07F401CF017F910EA090100EA0B
:102630000B0018BF0121B0FA80F040094140DFD102
:1026400056F8356041F61001304642461DF040FC18
:10265000002877D1304641F6110142461DF038FC82
:1026600000286FD1304641F6120142461DF030FC81
:10267000002867D1304641F6130142461DF028FC80
:1026800000285FD1304641F6150142461DF020FC7E
:10269000002857D1304641F6140142461DF018FC7F
:1026A00000284FD1304641F2690142461DF010FC2E
:1026B000002847D1304643F20C0142461DF008FC89
:1026C00000283FD1304643F20D0142461DF000FC88
:1026D000C0BB304641F2010142461DF0F9FB88BB08
:1026E000304641F2040142461DF0F2FB50BB304639
:1026F00041F2020142461DF0EBFB18BB304641F2AD
:10270000030142461DF0E4FBE0B9304641F2050109
:1027100042461DF0DDFBA8B9304641F206014246B3
:102720001DF0D6FB70B9304641F2320142461DF031
:10273000CFFB38B9304643F60F0142461DF0C8FBC7
:10274000002871D00127002F60D1304640F60A01E1
:1027500042461DF0BDFB002856D1304640F60B0125
:1027600042461DF0B5FB00284ED1304643F60F011E
:1027700042461DF0ADFB002846D1304643F60E011F
:1027800042461DF0A5FB00283ED1304640F63C01F4
:1027900042461DF09DFBB8BB304640F63D01424627
:1027A0001DF096FB80BB304640F63A0142461DF0D4
:1027B0008FFB48BB30464FF4046142461DF088FB56
:1027C00010BB304640F6450142461DF081FBD8B9AA
:1027D000304640F6410142461DF07AFBA0B9304632
:1027E00040F6420142461DF073FB68B9304640F6A0
:1027F000430142461DF06CFB30B9304640F64901BA
:1028000042461DF065FB48B14FF0020A002F3FF42D
:10281000F7AE002000287FF4F7AE15E0BAF1000F04
:1028200008BF4FF0010AF1E7304643F60E01424679
:102830001DF04EFB0746002818BF0127002FE5D1E9
:1028400083E74FF0000A01E04FF0030A5FFA8AF0D5
:1028500001B0BDE8F08F000040F2DC60C2F2000081
:102860000068704770470000C0F30410072828BFB5
:102870000720704780B540F25060C2F20000182176
:10288000FFF740FD01201EF0D9FF80BD2DE9F0418A
:10289000F8B1164604460D46FDF767FD40F20C08F8
:1028A000C2F20008D8F80020074620462946904783
:1028B000D8F800200546204431469047391A8D4209
:1028C00088BFBDE8F0812044425D625501358D42EC
:1028D000FAD9BDE8F08100002DE9F04140F214087A
:1028E000C2F200081446D8F800200F4619461D46CB
:1028F00006469047386040B12868D8F80020304438
:10290000002190472060BDE8F08100202060BDE8F4
:10291000F08100002DE9F04F87B0DDF840900446CB
:10292000B9F1000F1CBF0020A9F800001F46904617
:102930008B4634B3BBF1000F4FF0000079D0217803
:10294000002976D0DDF844A01AF0060F1DD0002033
:10295000012142F2014200E00130235C0D2BFBD843
:1029600001FA03F71742F7D0002B18BF0130B9F175
:10297000000F5ED04FF6FF71A9F8001007B0BDE858
:10298000F08F002007B0BDE8F08F0026012F8DF8F2
:102990001B60059634DB207890B32046002100268A
:1029A0000022B1FA81F10492490904AA3BB20192D2
:1029B0000391594642460DF11B05CDF800A0029542
:1029C0001FF092F9BDF810100E44C8B1059B227893
:1029D00018440A2A059018BF0D2A11D0225C0D2A2E
:1029E00018BF0A2A0AD0781A07B2012F08DB059906
:1029F000605C002804EB0100D2D101E001300590B9
:102A0000059880B940F21400C2F20000026805A9DE
:102A100020469047B9F1000F05D0014658460022E4
:102A200013F050FB0646B9F1000F18BFA9F800607B
:102A3000059807B0BDE8F08F2DE9F04381B000287C
:102A40001CBF1446002A02D101B0BDE8F083054640
:102A500020468846FDF789FC0028F5D00646284622
:102A6000FDF783FC074640F20C00C2F2000002684A
:102A70002846414607EB060990478119894507D347
:102A8000AA1900BFEB5DD355013FF3198B42F9D270
:102A900028442146324616F0A9FD01B0BDE8F08376
:102AA000A0F59C4145F2A61291423CBF012070471F
:102AB000202802BF002181F0010070474BF63A1C2C
:102AC0000122C0F2020C00BFD11FB1FA81F14FEA1E
:102AD000511104D01CF8023001328342F4D181F04C
:102AE0000100704723290AD103780022022B08D065
:102AF000012B09D0002B04BF0122027006E0002246
:102B000004E00270012201E0002202700378012B30
:102B100006D120291CBF012070470221012201702B
:102B2000104670472DE9F04182B004460B46CDE9CE
:102B300000110020002122464FF000081FF0C4FBC6
:102B4000451C0746284616F035FB58B100F80780AB
:102B5000019B2946224606461FF0B6FB304602B0CE
:102B6000BDE8F081FEE700002DE9F047002A04BF30
:102B70000020BDE8F087DDF820909A4614460F4605
:102B8000804606E064F001003044441C05EB0A076F
:102B900074B1660806FB0A7540462946C8470128F5
:102BA000F0DAB0F1FF3F3446F2DD2846BDE8F087A9
:102BB00000252846BDE8F0872DE9F04F85B0924604
:102BC000DDE91225149C0DF1380999E8C0028B4605
:102BD000A107804635D44DB1E00708D014F00C00B1
:102BE00018BF012040EA09002D1A00E00025974295
:102BF00019D21F2F17D8F94311444446C7F11F08B3
:102C0000F019414538BF884608F101013022994644
:102C1000FDF799FB129A4B46DDF8409008EB070050
:102C2000A046149C471CE0070BD0AF4209D21F2FCF
:102C300007D8302039460137AF42705438BF202FB3
:102C4000F8D3E00629D5119861050CD45FB19742FD
:102C500018BFAF4207D1791E0A4618BFBA1E102806
:102C600018BF0A46174610280BD114F0200103D1D3
:102C7000202F01D2782009E019B1202F01D258204D
:102C800004E0022804D11F2F02D86220F05501373A
:102C90001F2F9EBF3020F05501371F2F11D8B9F1DB
:102CA000000F03D02D20F05501370AE0600705D44E
:102CB000200742BF2020F055013702E02B20F055BD
:102CC0000137404659465246CDE9006702950394C4
:102CD00000F0A6F805B0BDE8F08F00002DE9F04F38
:102CE00091B01F461646DDE91CB3DDE91AC2DDF8D6
:102CF0007C90BCF1000F08BF29F01009BCF1000F57
:102D0000CDE9076704D119F4806401D000241EE0E6
:102D100009F0200484F0610404F1F60800250DF1A7
:102D2000240A00BFBCFBFBF7464607FB1BC404F0AC
:102D3000FE0EBEF10A0F38BF302626446C1CDC455F
:102D40000AF8056003D31F2D2546BC46EAD3CDE91A
:102D5000022B0493DDE9072309AFCDE900741E9F20
:102D6000CDF818900597FFF727FF11B0BDE8F08F59
:102D70002DE9F04F93B0DDE91C65DDF89080209CD3
:102D80000DF11C0C56EA050708BF28F010088CE866
:102D90000F0027B918F4806701D0002227E008F05F
:102DA0002000219F80F0610000F1F6094FF0000A39
:102DB0000DF12C0B3046294622463B46FDF772FAB0
:102DC00000FB146202F0FE030A2B4B4638BF30238F
:102DD000361B13440AF1010275EB07060BF80A30A3
:102DE00005D3BAF11F0F924606460D46E2D30BA853
:102DF000CDE900021E9807ABCDE902042298239F7B
:102E000004900FCBCDF818800597FFF7D5FE13B0CF
:102E1000BDE8F08F9A4238BF885470477047000071
:102E20002DE9F04F83B0DDF83C80DDF834A0994601
:102E300015468B4606465FEA8870144610D10E98F8
:102E40002C4682450CD20E982A46A0EB0A0700BFFA
:102E5000202059464B46541CB047013F2246F7D12B
:102E6000BAF1000F08F002000195029010D00C9802
:102E7000A0F1010818F80A00594622464B46AAF16B
:102E80000105671CB047002D3C46AA46F2D100E080
:102E90002746029888B10199DDF83880781A4045B4
:102EA0000DD24D42202059463A464B467C1CB04735
:102EB000281940452746F5D302E03C4600E03C4651
:102EC000204603B0BDE8F08F024659B10278002ACF
:102ED000024607D04942024612F8013F013101D2B1
:102EE000002BF9D1101A70472DE9F04F91B08A46A6
:102EF0001A9942F61D661446C0F200064FF0000B08
:102F00004FF000080E911093BAF1000F18BF06465B
:102F100010990878002800F07482252809D0EFE085
:102F2000514642462346B0471098A84601301090BB
:102F3000EEE7481C4FF00009109004E0481C109088
:102F40000020002822D110990878A0F12002102A30
:102F50004FF00100F5D8DFE802F00D0C0C090C0C65
:102F60000C0C0C0C0C100C130C0C160049F0100976
:102F7000E4E7E6E749F00809E0E749F00409DDE79E
:102F800049F00209DAE749F00109D7E7109D2F78E7
:102F90003846FEF79DFA18B110A8FEF779FA12E04C
:102FA0002A2F0FD10E9951F8040B00280D900E9185
:102FB00044BF41420D91002848BF49F00209681CF6
:102FC000109001E000200D90109D28782E2819D136
:102FD000681C10906F7849F480693846FEF778FADB
:102FE00020B110A8FEF754FA05460CE02A2F09D1AB
:102FF0000E9951F8040B0E9120EAE071A81C0D46C1
:10300000109000E000251098017868394FEA7101AE
:10301000092917D8DFE801F008127B1616160516E5
:10302000160549F480790BE0411C1091417868291C
:1030300040F07F8049F0C009023002E049F4007995
:1030400001301090109A1078A0F12503532B00F254
:1030500057801021DFE813F0A700540054005400FB
:1030600054005400540054005400540054005400C0
:1030700054005400540054005400540054005400B0
:1030800054005400540054005400540054005400A0
:103090005400540054005400540054005400540090
:1030A0005400540054005400540054005400640070
:1030B0005400540054005400540054005400AC0018
:1030C0005400540054005400540054005400540060
:1030D0005400AB003C01570054005400540054000D
:1030E000570054005400540054005400730064000E
:1030F0005400540075005400570054005400AC00B4
:1031000008F101050CE729F010090A2150E0411CE3
:10311000109141786C290FD149F44079023090E741
:1031200012F8010F49F48879562808BF109210212F
:103130003EE049F0800985E749F4807982E708217B
:1031400036E00E98294650F8047B002D0E9008BFFB
:103150004FF0FF313846FFF7B7FE09F4806BA84205
:10316000294638BF0146BBF1000F08BF014619F0E0
:1031700002000C9040F0D4800D98814280F0EC80E9
:103180000A97A946421C471A00250B9208EB050234
:10319000202051462346B0470135AF42F6D10A9F61
:1031A000A8444D46DAE008F101052520B8E60221E1
:1031B0001098007840F00802582A08BF49F020090A
:1031C00064281CBF692829F00C095FEA495248BFEE
:1031D00029F00109562814D0692818BF642822D183
:1031E0005FEA89502FD45FEAC9504ED45FEA496044
:1031F00000F184800E985FEA0962006848BF00B25F
:103200007EE00E99A4EB080251F8040B0E91416880
:103210000F680AEB08010F97036830460097FFF725
:1032200063FE804494E05FEA895037D45FEAC95076
:1032300071D45FEA496078D40E9B5FEA096218682E
:1032400048BF80B273E00E98073020F007000346B5
:10325000426853F8080BCDE9041B10EBE2700D999E
:103260000E9342EBE27380EAE27083EAE273CDE907
:103270000719D70FCDE90003304651464246234691
:1032800006950297FFF774FD61E00E9A52F8040B61
:1032900000280E92024648BF424238E00E9807309E
:1032A00020F007000346426853F8080BCDE9041BE1
:1032B0000D99CDE900020E93CDE90719304651462C
:1032C000424623460695CDF808B0FFF751FD3EE093
:1032D00019F0020926D10D9802286CD300F1010BD8
:1032E0004542002708EB0702202051462346B047FD
:1032F0000137E8190130F5D1B8445EE00E98007846
:103300000246002848BF42420E9B04330E93C00F72
:10331000CDE900200FE00E9A52F8040B0E9208E05F
:103320000B911BE04FF0010B47E00E9B1878043324
:103330000E93CDE9000B0D98CDE9021504903046AF
:10334000514642462346CDF81490FFF7C7FC80460D
:10335000109801301090DBE5481C0B903878A0B134
:1033600007F101090BE000BFC0B2514642462346B7
:1033700008F10107B04719F8010BB84630B1BBF1AD
:10338000000FF1D00DB1013DEEE747460C98A0B318
:103390000D980B99814230D2451A4FF0000B00BFB7
:1033A000202051463A46234607F10108B047013D27
:1033B0004746F5D1CCE74FF0020B0E99424611F883
:1033C000040B234608F101070E915146B047B9F1AD
:1033D000000F12D00D9883450FD2A0EB0B054FF0D4
:1033E000000B00BF202051463A46234607F1010852
:1033F000B047013D4746F5D1AAE7B8464FF0000B6C
:10340000A6E74246002051462346A04528BF621E3B
:10341000B047404611B0BDE8F08F000010B54FF046
:10342000000448B100F018F80C28014698BF0C21A0
:10343000B0F5802F38BF0C46204610BD20F00300A9
:10344000704700004A1E114204D108440138494225
:1034500008407047FEE700004A1E114204D10844AC
:103460000138494208407047FEE700002DE9F0416D
:10347000044608680D4601216186C0B14BF68908F3
:103480000026C0F20208002706E000BF013701361F
:10349000B0B255F8200058B1017849B14146FCF767
:1034A0006BFF0028F2D1608E01306086EFE70027C5
:1034B000BDB2208E854208BFBDE8F081A06A18B178
:1034C00015F034FF0020A062E06A18B115F02EFF5D
:1034D0000020E062E80015F06DFEA06280B1680097
:1034E00015F068FEE06268B1A16A002908BF0F46C6
:1034F000B9B2490016F0CEF82786BDE8F08100BFCA
:10350000FEE700BFFEE700002DE9F04F85B09246D0
:10351000427A0C4602F0070140F2F07940F2E4589A
:10352000022956464FF0130108BF2646C2F2000991
:10353000C2F200085445C8BFA24601EB4A02D9F8BE
:103540000070D8F8001040F2F47BC2F2000B22F0B9
:1035500003057A1ADBF800102A448A4204D27968FB
:1035600021F0004179603BE08D42039009D9284663
:1035700015F020FE20B10746406840F000402DE0E5
:10358000FEE7DBF80010CDE901468A421FD94CF670
:1035900089744FF2E917C0F2000404AEC0F20007CC
:1035A0004FF0FF3004902046314600220BF0E0FD42
:1035B0003846314600220BF0DBFDD9F80000D8F880
:1035C0000010401ADBF8001028448842E8D8D9F8E7
:1035D0000070DDE90146786820F0004078600398CB
:1035E00031B2224601F03CFC386078680121B0F12C
:1035F000FF3F61F31E007860A7F80CA0FE8108DD94
:10360000D9F8000000F110012844B960C9F80000A1
:1036100002E007F11000B860384605B0BDE8F08F51
:10362000F0B583B090F83C20002302F00302012A99
:103630008DF80B308DF80A308DF8093042D0022A0F
:1036400040F0808040F2280CC2F2000C9CF8003060
:10365000022B40F25C63C2F200031FD0878C46F657
:10366000174607EB4707C1F2C1667F02FF08A7FBB9
:10367000067690F82600332700FB07F0B7081F8076
:103680004CF6CD47CCF6CC47A0FB0707380940F2F3
:103690005E67C2F2000738708CF8002040F25E626C
:1036A000C2F2000292F800C018880DF10A020DF172
:1036B00009070092CAB20DF10B036146019709F0A8
:1036C000F1F878E040F22803C2F200031F78012FDE
:1036D00022D0878C46F6174607EB4707C1F2C16632
:1036E0007F02FF08A7FB067690F82700B70833266D
:1036F00000FB06F040F25C66C2F2000637804CF632
:10370000CD47CCF6CC47A0FB0707380940F25F67EE
:10371000C2F2000738701A7040F25C6040F25F62DB
:10372000C2F20000C2F20002008812780DF10A0312
:103730000DF109070093C9B20DF10B03019709F0D0
:10374000B1F838E040F22804C2F20004237840F2D5
:103750005E6E40F25F6C9342C2F2000EC2F2000C49
:1037600017D090F82630332503FB05F390F8270097
:103770004CF6CD46CCF6CC46A3FB063700FB05F055
:103780003B098EF80030A0FB060318098CF80000F6
:10379000227001EB41009EF8001040009CF80020D0
:1037A0000DF10A0380B20DF1090700930DF10B032F
:1037B000019709F077F89DF80B009DF80A109DF825
:1037C00009200EF0CDFE03B0F0BD000080B540F240
:1037D0006060C2F200000121017040F2CC40C2F2F0
:1037E0000000FEF767FD014640F2D840C2F200003B
:1037F000006811B11EF012F980BD1EF0FFF880BD07
:1038000010B5044690F83E0010F0020107D1A28FD7
:103810002AB14FF6FF739A421CBF013AA287A28FCA
:1038200012B9C9B9626BBAB1D4E90D23002AC3F148
:103830000003E36208BF10BD11B9216B4942E16288
:10384000D4E9091380F0020084F83E00E069E161E8
:10385000C4E90902636310BD40F2CC40C2F200002B
:103860002146FEF7A1FDFFF7B1FFE16800291CBF6B
:1038700020468847204615F059FD10BD2DE9F04738
:1038800040F60808C2F20008D8F800001DF018FF42
:1038900040F26169C2F2000999F80010044681F013
:1038A000010089F8000040F2CC40C2F20000FEF7AF
:1038B00001FD002863D040F2606740F2CC45064627
:1038C000C2F200074FF0000AC2F2000507E000BF95
:1038D00028463146FEF708FD064600284FD096F8E8
:1038E0003E0099F80010C0F3800287F800A08A42D9
:1038F0003ED000F0FB0242EA8101020786F83E104A
:103900001BD4F16A002918DC091916D4C00709D1A3
:10391000316939B130468847F169726A014410440F
:10392000F1617062B16800291CBF3046884796F883
:103930003E0040F0080086F83E00F06A0019F06290
:1039400016D4B16A8842C8BFF162B169304688476F
:10395000326A904205D07268014630620AB130681E
:103960009047D6E90A018142A4BF3046FFF748FFDD
:1039700038780128ACD12846FEF79CFCACE71DF056
:10398000A5FEC8F80000BDE8F0870000F0B581B0E2
:10399000144690B106460F4618F0DEFA78B1054697
:1039A000006870B13046394618F0DCFA58B12B681F
:1039B000A1B202462846984706E0204604E0204689
:1039C00002E0204600E02046C0EA040001B0F0BD5D
:1039D000B0B5044640680D4600281CBF2946FFF7D5
:1039E000F7FF2268002A08BFB0BD2046294690474D
:1039F000B0BD000080B589B20CF0A8FD80BD00000C
:103A000080B589B20CF0E4FD80BD0000B0B50D4674
:103A1000044600F035F800B1FEE7284600F020F932
:103A20006168084404306060204600F035F82046A4
:103A3000B0BD000010B50C4600F012F904F1100200
:103A40000021904228BF0121084610BD0838704768
:103A5000B0B582B0054608460C4600F001F901A950
:103A60006A461EF0BDFFDDE90032284621460AF015
:103A7000F5FF02B0B0BD0000406800F001007047E3
:103A800080B500F0EDF8B0FA80F0400980BD00008C
:103A9000406800F00200704710B5044600F07EF860
:103AA000046010BD70B582B00D4604460026019634
:103AB000009669B101A96A4628461EF0A9FF01983F
:103AC0000B2807DC01A96A46204620F06BF9064660
:103AD00016B90EE0002666B1304600F0C1F8A842E3
:103AE00001D200BFFEE7DDE90032204631461FF07B
:103AF000D9FD304602B070BD10B50446FFF7CCFFCB
:103B000000F096F8204600F08DF810BD10B5044680
:103B100000F044F800F092F8204600F09BF810BD49
:103B200070B5064608460C4600F038F850B1054618
:103B3000FFF7A2FF78B12046FFF7A2FF18B100BF40
:103B4000FEE700BFFEE73046294600F057F8204662
:103B50002946FFF75BFF204670BD000070B50646A2
:103B600008460C46FFF794FF002804BF204670BDAE
:103B7000204600F039F868B10546FFF77DFF58B1DF
:103B80003046294600F03AF828462146FFF73EFF26
:103B900070BD00BFFEE700BFFEE70000B0B5044601
:103BA000FFF76EFF08B100BFFEE7204600F088F87F
:103BB0000546204600F054F8011F28461FF04EF934
:103BC000B0BD0000002904BF0020704752B110B5FD
:103BD0000C4600F077F82046FFF798FF204600F0EB
:103BE0006FF810BDFEE7000010B50446FFF750FF68
:103BF00000281CBF206810BDFEE70000B0B582B0F1
:103C0000054608460C4600F02BF801A96A461EF04E
:103C1000E7FEDDE90032284621461FF043FD02B0F1
:103C2000B0BD0000416841F00101416070470000F3
:103C3000416841F00201416070470000416821F095
:103C40000201416070470000426802F00302114324
:103C500041607047416821F00101416070470000F8
:103C6000406820F003007047F0B581B00C4605466F
:103C700000F026F8211F1FF0F1F8064600F020F8AA
:103C800004210746FFF7DEFB874200D0FEE7284607
:103C9000FFF7E6FF001B011F3046FFF7D5FF304658
:103CA000FFF7DEFF0B2809D928462146FFF7CCFF96
:103CB0003046FFF721FF304601B0F0BDFEE70000BF
:103CC0000830704770B50446084616460D46FFF7A3
:103CD000D3FEB8B128463146FFF7ACFE002808BF36
:103CE00070BD28463146FFF7BFFF06462846FFF75E
:103CF000D3FE3046FFF79CFF20463146FFF7A8FE73
:103D000070BD00BFFEE7000070B5044608461546CA
:103D10000E46FFF7B1FE00B1FEE730462946FFF739
:103D200089FE002808BF70BD30462946FFF79CFF7A
:103D30000546FFF783FF20462946FFF7F1FE0146BF
:103D40002046FFF785FE70BD10B582B048F64004EE
:103D5000C4F204044FF0010C2046002196224FF4D7
:103D60007A73CDF800C0FCF741FF2046FDF79EF8BE
:103D700002B010BDB0B582B0044613F0B1FD0546E7
:103D800013F0F2FD38B1208FE086204619F098FA42
:103D9000012002B0B0BD204611F074FEF0B1204603
:103DA00011F03CFD218FE08E81420BD020870190E5
:103DB00001AA20461C2112F07DF80128E9D12046F5
:103DC00019F07EFA284613F0DBFD042809D12046BD
:103DD00017F0E8F8002112F09BFD02E0204611F0F8
:103DE000AFFE012002B0B0BDB0B512F05FF80446DE
:103DF00017F028F9054620460DF0ECFB0146284651
:103E000001221CF017FFB0BDC0B2C009704700000E
:103E1000C0F3801070470000C0B2C00970470000B6
:103E2000C0F3002070470000C0F3C00070470000DE
:103E3000C0F3401070470000C0F3402070470000FE
:103E4000C0F3003070470000C0F30010704700005E
:103E50002DE9F04F85B00C460021054616F0C6FF4F
:103E600030B32846214600F0A7FA2846214600F044
:103E70006BF8284618F0D4FA8146284618F018FC4A
:103E80000490284617F0F4FE0646284618F03EFF38
:103E90000746284618F03CF942F2D1718F4282461B
:103EA0000DD1688C012100F4806081EA902B08E03C
:103EB00020461C2115F0EEFB05B0BDE8F08F4FF059
:103EC000000B701EB0FA80F04FEA5018284617F029
:103ED00001F80646284609F009FEA168236927680B
:103EE0000246CDE90031304659464B46CDF80C80AC
:103EF00002970AF0D1FB208342F2D1704FF0000903
:103F000082454FF0000605D1688C012100F4007055
:103F100081EA5026284616F0C5FF0746284609F0D4
:103F2000E9FDE16863696568CDE90031049B0246FB
:103F300038463146CDF80C9002950AF0ADFB60830F
:103F400005B0BDE8F08F00002DE9F04F81B0894643
:103F5000064609F009FD8246304616F0BBFF009088
:103F6000504600F0E3FFC9F81000400015F058F982
:103F7000D9F81010C9F80000480015F051F9D9F827
:103F80001010C9F8080000294FD040F2010B41F68B
:103F90009A72C0F2060B4FF0000811E020B2D9F877
:103FA000081041F69A7200284FF00000D8BF04466E
:103FB00021F81840D9F8101008F10108884534D2CA
:103FC0003AF818009042F5D1304616F021FF00284B
:103FD0004EF20104E2D000254EF2010406E000BFDB
:103FE0003046013516F014FF8542D7D230462946B7
:103FF00016F0FCFE5946074618F00CFF0028EFD1DA
:10400000384609F0BBFC0128EAD1384609F0B0FC7B
:104010008045E5D1384618F0ABFE21B28142DFDCA5
:10402000384618F0A5FE0446DAE74FF00008D1B193
:10403000002041F69B7241F69A7C002700240BE099
:10404000D9F80850634514BF25F8103035F8103002
:104050001F440130814208D03AF910309342EFDB1F
:1040600023449C1AF5E700240027304618F0D8F9BD
:10407000D9F81010009B4A1E02FB1030C01B02B280
:10408000002AD8BF4046E9B183B24FF0FF37002283
:1040900041F69B764FF0000803E000BF01329142E9
:1040A00012D03AF91250B542F8DBAF1B0FFA87F87D
:1040B000D9F8085008FB03F7B7FBF4F725F812709E
:1040C0001746EBE74FF0FF37002F0BD481B2A4EB7C
:1040D000080202FB01F1D9F80820B1FBF4F1401A03
:1040E00022F8170001B0BDE8F08F00002DE9F04F75
:1040F00083B00021002204464EF2010A1AF060F853
:10410000204617F0C7FE0546204618F0E9FA461982
:10411000204618F007F90544204617F0F7FC304414
:1041200028440FFA80FB2046029516F071FE002805
:1041300045D00546019630B201264FF00009C0F285
:1041400004064EF20108009010E000BFB7F91A0013
:10415000B4F916100FFA88F2401A00F101089045E0
:10416000B8BF904609F101094D452AD0A0683146F3
:10417000006850F82970384618F04CFE0028F1D13C
:10418000384619F001F90028E0D1384617F0E4FC70
:104190000328DBD9384618F0E3FD0028E2D107F107
:1041A00014000FFA88FA0CF0EFFA00990144514517
:1041B0004EF2010A0199A8BF00EB0108D2E74EF2C6
:1041C000010802981FFA88F2404401B25945D8BF4D
:1041D0005846524508BF584600B203B0BDE8F08FBC
:1041E0002DE9F04F83B00021002204464EF2010B6E
:1041F00019F0D0FF204617F04DFE0546204618F076
:10420000D1F94619204618F03BF94719204617F016
:104210008BFCB91908440FFA80F9204616F0F8FD16
:104220000546204617F004FD01284FD1002D0197C7
:1042300000F09880029630B201264FF0000AC0F2DA
:1042400004064EF20108009010E000BFB4F9180017
:10425000B7F914100FFA88F2401A00F101089045DE
:10426000B8BF90460AF1010A55457DD0A068314695
:10427000006850F82A70384618F0CCFD0028F1D1BB
:10428000384619F081F80028E0D1384617F064FC70
:10429000082806D8012101FA00F040F2491108422D
:1042A000D4D1384618F054FD0028DBD107F11400B2
:1042B0000FFA88FB0CF0F6FA0099014459454EF2CA
:1042C000010B0299A8BF00EB0108CBE7002D029675
:1042D0004DD038B240F2010A0026C0F2040A4EF274
:1042E0000108019700900EE0B7F91800B4F9141016
:1042F0000FFA88F2401A00F101089045B8BF9046C5
:104300000136B54235D0A0685146006850F8267095
:10431000384618F07FFD0028F2D1384619F034F8FD
:104320000028E1D1384617F017FC072805D80121ED
:1043300001FA00F010F0930FD6D1384618F010FDB6
:104340000028DDD107F114000FFA88FB0CF0AAFA5F
:104350000099014459454EF2010B0199A8BF00EBA9
:104360000108CDE74EF201080198404403E04EF207
:104370000108029840441FFA88F1594508BF0846D1
:1043800001B282B24945D8BF48465A4508BF48469F
:1043900000B203B0BDE8F08F10B50446006814F019
:1043A000AFFF606814F0ACFFA06814F0A9FFE068EC
:1043B00014F0A6FF10BD00002DE9F04F81B0884633
:1043C000064609F0CFFF814600F0B0FDC8F81400A2
:1043D000400014F025FFD8F81410C8F80400480075
:1043E00014F01EFFD8F81410C8F80C00002950D0A3
:1043F00040F2010A41F69A72C0F2060A4FF0000B31
:1044000012E000BF20B2D8F80C1041F69A720028D2
:104410004FF00000D8BF044621F81B40D8F8141014
:104420000BF1010B8B4534D239F81B009042F5D1CA
:10443000304616F0EDFC00284EF20104E2D00025D3
:104440004EF2010406E000BF3046013516F0E0FCF4
:104450008542D7D23046294616F0C8FC5146074659
:1044600018F0D8FC0028EFD138460AF00FF80128E0
:10447000EAD138460AF004F88345E5D1384616F00B
:1044800097FD21B28142DFDC384616F091FD0446EB
:10449000DAE7E9B1002041F69B7241F69A7C0025EB
:1044A000002704E02B199D1A0130814212D039F9FE
:1044B00010409442F6DAD8F80C30644504D133F851
:1044C00010301F44F0E700BF274423F81040EBE70B
:1044D00000270025304618F0EBF80446304616F069
:1044E000E1FCD8F81410E9B14A1E02FB14000022C6
:1044F000C01B00B241F69B7320EAE07080B202E07C
:10450000013291420ED039F912709F42F8DBFF1A46
:104510003FB2D8F80C6007FB00F7B7FBF5F726F8B9
:104520001270EDE701B0BDE8F08F000010B582B069
:10453000B1F800C00389B1F802E044899C44ADF8A9
:1045400000C004EB0E0CB1F804E0C9887344ADF868
:10455000043021444369ADF806106946ADF802C045
:10456000984702B010BD00002DE9F04182B004462A
:10457000006B0D4608B1007808B9606B20B3606B22
:1045800058B140F22000C2F20000066820461CF03C
:1045900087FEB047616B884218D2206BC0B140F2F1
:1045A00014080020C2F2000801AF0190206B0199AD
:1045B000465C2EB1D8F8002039469047A842F5D184
:1045C000002E18BF012604E0012602E0002600E0CC
:1045D0000126304602B0BDE8F08100002DE9F04F21
:1045E0008FB00990C87840F6411CDDF870B010F02B
:1045F000010EC0F2010C40F6010091460A91C0F292
:104600000100614608930E92049008BF014607918D
:1046100005E000BF4FF0000A5FEACA7056D0BBF851
:104620000200DBF81010BBF80420A0EB0202A9B1D5
:10463000DBE90310002601F10807002307E000BFB3
:104640003988521A0136864207F1140707D2397A9F
:10465000C907F5D1B9880B44F4E700BF0023DBF8A4
:1046600010000028D6D0002700204FF0000A06E0F6
:10467000DBF810100130884207F11407CCD2DBF8C8
:104680000C1039440C7CE507F2D115B21EB2B1F919
:10469000048095FBF6F5CE6806FB05F52EB2B1F960
:1046A0000650AE42B8BF35464545B8BF4546B5424F
:1046B0001EBF44F001040C744FF0010ADBF80C102B
:1046C000521B39448C890D811B1BD1E740F6152004
:1046D00040F62121C0F20100C0F20101BEF1000F3D
:1046E00008BF01460498039108BF604604900998EA
:1046F00017F0B6FA804600210A98ADF83610ADF8EA
:1047000034100DF136010078BBF90220BBF90830F6
:1047100000911A990DAF01971EF0A2FBB8F1010F9D
:104720000CD10A98C07810F0010007D0099816F053
:10473000D1FBBDF836100844ADF83600099849465B
:1047400016F054FB0A9D002800F0398104460E98AB
:104750000899884200F03381BDF834000126C0F288
:1047600006060EAF0590CDF8188000BF20463146F2
:1047700018F050FB002840F01481204617F010FC80
:1047800098B1DBF8100070B1DBF80C0000210830A4
:1047900050F8082CA2420DD0DBF8102001319142D4
:1047A00000F11400F4D3002705E0608C20F4C06011
:1047B00060842EE00788E878618CC0074FF4806041
:1047C00008BF4FF4007004F1140608430799608491
:1047D0003046884780B287421BD0204618F070FDD3
:1047E0000DF12C09484631460BF080FF39B2039A8F
:1047F00030469047204629214A4611F05BFB20466F
:1048000016F020FC2221224611F054FB204618F01D
:1048100057FD6878012812D002281BD1BBF900008F
:104820000499013020F0010604F114008847301A81
:1048300000EBD0704710B8F1010F0FD01BE00499C6
:10484000BBF8006004F114008847371AB8F1010F73
:1048500004D010E00027B8F1010F0CD1E87810F077
:10486000010008D0079904F114008847BDF83610FC
:10487000081AADF83600204618F0F6F982462046B0
:1048800018F00AFA8046204618F072FA06462046CA
:1048900016F08EFB0AF4C041B1F5005F14D12AF482
:1048A000C041B1F5FA6F0FDCB1F57A7FC8BFC1F531
:1048B0007A7101FB06F148F21F52C5F2EB1251FB6F
:1048C00002F14A1102EBD17A08F4C041B1F5005F60
:1048D00014D128F4C041B1F5FA6F0FDCB1F57A7F3D
:1048E000C8BFC1F57A7101FB00F048F21F51C5F253
:1048F000EB1150FB01F0411101EBD078A14639F8E2
:10490000140F0A9A189DBDF83660D2785544334684
:10491000281AB9F8021012F0010208BF3B46C51868
:104920001998002A08BF37464044401A074445EA10
:104930000700000417D0204618F0C2FCA08A218B83
:104940002844A0824819E18A2083C819618BE0823B
:10495000C8196083204618F0B3FC29B23AB2204649
:10496000012318F05FFDDDF81880B8F1010F09D1BF
:104970000A98C07810F0010004D01B980599301AED
:10498000401A07E00799484688471B993144084474
:10499000059908440A9D0126ADF83600C0F20606C6
:1049A0000EAFE8783A46C0F38001099809F032FB6F
:1049B00028B104460E98089988427FF4D7AE0FB00C
:1049C000BDE8F08F2DE9F04F8FB0002900F0958100
:1049D000044600680D460028218318BF14F0A6FC89
:1049E00005EB4500062101EB400014F0E3FB2060DD
:1049F000B0B100EB450100EB850202310432012D1C
:104A0000C4E90102E1600CD1B4210170D4E90201D2
:104A10004FF480320A60002101800FB0BDE8F08FB2
:104A2000FEE7680002940095AC00851CA80014F015
:104A3000F7FB834600EB450022B20EAE04900DF169
:104A40003601304600F066F9BDF9380000258010C7
:104A500009903046059500F053F9002800F0C18018
:104A600000200EAF0DF136060DF124080DF11409EA
:104A70000025039022E000BF29B20DF1140C2BF8A1
:104A800011000498DDF808A020F811409CE80D10F2
:104A90001044184400EB0C020120DAF804300544FD
:104AA0005A54DAF804200134535C38461B0153543D
:104AB000039400F025F9002800F093804FF0000ADD
:104AC0003846314600F02EF9384600F019F980B129
:104AD000BDF8380001B200F00300891048F82A1030
:104AE00049F82A000AF1010ABAF1040FE8D14FF09F
:104AF000040A039CBAF1040F73D109980C998842F7
:104B0000BAD00A99884225D10B9B29B2059A9842BE
:104B1000049B2BF8110023F8114041D1DDE9063C3C
:104B2000DDF808A01A44DAF8043062445A54DAF87E
:104B300004200138535C1B015354691C09B2049AC8
:104B40002BF811009DF8200022F8114000F10C0212
:104B500045E000BF29B2049BDDF808A02BF8110046
:104B600023F81140DDE90542DAF804C001380CF8F9
:104B700001400192DAF80420DDF81CC0545CDDF835
:104B800020E024015454691C09B2039C2BF8110045
:104B9000039823F81100019860447044021D1EE040
:104BA000DDF808A0DDF818C0DAF804406244625469
:104BB000DAF804200138545CDDF81CC02401545498
:104BC000691C09B2DDF820E02BF81100DDE90302D1
:104BD000039C22F811000CEB0E0000F108020220E9
:104BE0005BE728B2DDF800E040F2D321431E0EFB64
:104BF00001F23BF91310B1EBA22F4FEAA22106D12B
:104C0000049F37F91330994201D1029C1CE06FF3E5
:104C10009F22B2F5007F03D802FB02F2D20B06E01E
:104C2000C2F5806202FB02F20F23A3EBD232049B97
:104C3000029C2BF8101023F81010616801350A54FB
:104C400061680A5C12010A5428B2022818DB0BEBD7
:104C50008E01ABF1040200BF31F810302FB2049E78
:104C60002BF8173032F81030013526F8173063680A
:104C70001E1816F8026CDE55831E0138002BEBDC83
:104C800029B2D4F80CC000200129ACF8000031DBB7
:104C90000BEB8E00A268831D4FF0000E002405E090
:104CA00026460EF1010E8E42344623DA0FFA8EF5B7
:104CB0008C422CF815403BF8140022F81500EFDA6E
:104CC000049830F814601FFA8EF08642E8D100BFD5
:104CD00032F815603BF91470BE42B8BF3746661C07
:104CE0008E4222F81570DCDA33F8144084423446E0
:104CF000EED0D6E7584614F003FB0FB0BDE8F08FB6
:104D0000B0F90010B0F9022000208A42D8BF01207B
:104D100070470000002302804380C2F10100088038
:104D200070470000B1F90020B0F802C0002A0ADD87
:104D30000388ACEB030302EB430205320A800188CF
:104D40004A1E014602E002EB4C0203320A8041880F
:104D50000131418070470000B0B5022A2AD9C1F361
:104D6000C42CC0F3C423C1F3451EC0F345149C44B6
:104D7000BCF11F0F00F01F05744401F01F004FF03D
:104D80001F0328BF9C463F2C28BF3F2428441F28D0
:104D900038BF034603F01F0040EACC2004F03F0375
:104DA00040EA4310FF2A08BFB0BD80B289B20DF0BF
:104DB0003BFC01460846B0BD10B5022A9CBF084620
:104DC00010BDC0F3C42CC1F3C42300F01F0EC0F308
:104DD0004510C1F3451403FB0CFC04FB00F001F08B
:104DE0001F036FF01F0403FB0EF304EA50002CF0C6
:104DF0001F04A40144EA5313FF2A184408BF10BD3E
:104E000089B20DF011FC10BD80B5022A26D9C1F37C
:104E1000C42CC0F3C423C1F3451EACEB030323EA47
:104E2000E37CC0F3451300F01F00AEEB030E01F06E
:104E30001F03181A20EAE0702EEAEE7300F01F003C
:104E400040EACC2003F03F0340EA4310FF2A08BFAA
:104E500080BD80B289B20DF0E7FB0146084680BDF7
:104E6000484080EA6200704770B582B0044611F095
:104E70001DF80546204610F0FDFF0646284616F0B0
:104E8000E1F80A2E04460BD02B2E33D120461BF01E
:104E9000C9FE0146204600221BF0CCFE02B070BDC8
:104EA00001A9284616F042F9284616F013F80546DF
:104EB000204616F0E5FE05EBD572BDF90410012879
:104EC00008BF494201EB620090FBF5F000250104A8
:104ED00058BF05B220461BF0A5FE064620462946CF
:104EE00001221BF0A7FEB54204D020461C2100225F
:104EF00010F0E0FF02B070BD10B50446C0E902003A
:104F000010303421FBF726FA04F14000002100BFE5
:104F10002022034643F8044F013AFBD101310C290A
:104F200000F1800008BF10BDF2E70000811E4FF0C5
:104F3000FF3041F6FF7200BF31F8023F013093426B
:104F4000FAD17047B0B582B0044690F8500000F036
:104F500001028A4228D000F0FE00002918BF01217A
:104F600008446D4684F8500004F1440128460BF0D3
:104F7000FFFB606ABDF80020818AC08ABDF802305C
:104F80000A44ADF800201A18BDF80430ADF802202C
:104F9000BDF8062019441044ADF80410ADF8060021
:104FA0002046294618F0C0F902B0B0BD80B588B2DD
:104FB00011460DF001FA80BD2DE9F04F8BB00E4681
:104FC000C97A032903D201200BB0BDE8F08F174640
:104FD0003269318983461846FDF78EF850B1044690
:104FE000007D00F01F05284611F0D8FD30B14FF0CC
:104FF000060A0CE000200BB0BDE8F08F284611F047
:10500000C1FD4FF0040A002818BF4FF0050A226ABC
:1050100052B1584639461FF0A9F8204601F0BEFBB0
:1050200001200BB0BDE8F08FA069002851D009A87D
:1050300039460BF037FB35881DB97088B0F5807F95
:1050400028D038460BF040FC804638460BF0AEFBCB
:10505000024670882BB206F1040C009009A8414664
:10506000CDF804C0FCF7B4FC3888BDF824107A8869
:10507000BDF826300144ADF824109918BDF8283049
:10508000ADF82610BDF82A101844ADF8280088188D
:10509000ADF82A00DBF808100DF11C0909AA4846F2
:1050A000FCF73CFA8046002800F08B80DBF80850C3
:1050B000CBF80890A369584631463A46CDF800A08F
:1050C0000EF09CFACBF80850B8F1000F3FF47BAF1C
:1050D000A3E7DBF8081009A83A46FCF71FFA0028F6
:1050E00077D009A80BF0F0FB049000EB400014F01F
:1050F00097F80DF11C08DBF808508146404609A9D5
:105100000BF0D0FA404601210BF084FCBDF92600DB
:10511000BDF92A10884249DCBDF824103A887B8802
:10512000891AC71AA0F1010808B2039005A82946F8
:1051300007AAFCF7F3F908B3DDE903133AB22046F6
:10514000CDF8009012F07AF9012819D105A8CBF812
:1051500008005846314607AA4B46CDF800A00EF08D
:105160004DFABDF81E00BDF822100130ADF81E004A
:10517000481C01370021ADF822000DE006210BE0AC
:10518000204612F089F8484614F0BAF8204601F09B
:1051900005FBCBF808500121062918BF00290BD1C7
:1051A000BDF92A0008F101088045BFDB4846CBF86D
:1051B000085014F0A5F80021002000297FF431AF39
:1051C0002BE7204601F0EAFAB8F1000F3FF4FBAEFE
:1051D00023E7204601F0E2FA0121012000297FF4B3
:1051E00020AF1AE7704700004FF080400168C90700
:1051F00010D1006810F01C0F06D04FF080400068FE
:1052000000F01C00082805D1142000BF013800BFA1
:10521000FCD104E044F62060013800BFFCD17047A7
:1052200080B542F21401C4F200018A630A6842F4B4
:1052300000420A600A68120404D500BF00BF0A6871
:105240001204FBD40DF0E8FE80BD000010B542F260
:105250000004C4F200040AF027F84FF60000C8F278
:105260000700E0646069800444BF2046FBF7F0FA61
:1052700010BD00002DE9F041044612F031FB216B16
:10528000054608461CF01CFA2968898B88422FD2F3
:1052900094F83C00B4F8248094F8267000F00300E1
:1052A000022808D094F82760012806D0002808BFFB
:1052B0004FF0000802E0642600E06427284612F060
:1052C00005FC380440EA066000EB080120460DF0BA
:1052D0007DFD00280AD020461C210022002510F068
:1052E000E9FD012808BF012535B101E001251DB107
:1052F0001CF0ECF920630120C0B2BDE8F081000091
:105300002DE9F04F9DB019AC0746204616460D46D4
:105310000DF022FF384616F061FC9DF8711001F087
:10532000FB0160F3820130468DF871100BF01AFB1F
:1053300081B200EBD13071880FFA80F8308801EB30
:10534000680100EB6800ADF86210ADF86000384607
:1053500016F0C2FF039006A82946059515F05CFBE0
:105360004FF4003013904BF28010C0F2020007900F
:10537000002004973037089038460E94FCF7BCFFA5
:1053800000285AD0DDF810A004464FEA68000290C9
:1053900007E000BF38462146FCF7AAFF0446002874
:1053A0004BD020790328F5D1208B6179ADF86400CA
:1053B000208A039AADF8660001FB02F0FD29114630
:1053C00098BF010A8DF870102568A068B5F92030E3
:1053D000EE8B6969AA691E44009613F0D5FEB5F9F3
:1053E0002030EE8B8346E0686969AA691E44009606
:1053F00013F0CAFE618B804602980DF1180908442B
:10540000ADF8540018AD50461A214A4617940F952E
:1054100010F050FD1FFA8BF0BDF854301FFA88F6DB
:105420000090059819A92A4601960DF081FE504674
:105430001B214A4610F03EFDACE71DB0BDE8F08FE1
:10544000B0B500220C46054606F0FEFF2846214670
:10545000012206F0F9FF28462146022206F034FE1A
:1054600028462146042206F02FFEB0BD2DE9F04F5C
:105470009BB00E46C9780329C0F0EF81814619A878
:1054800011460BF02DF9B6F92000022823DB96F81F
:105490002200FD281FD33088E8B196F82300BDF81C
:1054A0006420C0F3C001BDF866301144C0F380022F
:1054B000ADF864109918C0F30012BDF86830ADF86B
:1054C0006610991AC0F34000BDF86A20ADF8681064
:1054D000101AADF86A00D9F8082017A819A9FCF726
:1054E0001DF8002800F0B981F07B062110F00700BC
:1054F00008BF0421775A71890DF164087C1A18BF1E
:10550000044640460EF0E2FDB17800250028CDE9C2
:105510001555CDE91355CDE9115510958DF8591054
:105520000490ADF8487008BF5FEA046000F05A814B
:10553000B01D0590F0780394FC2888BF4FF0FF3031
:1055400019AF029038460BF0F5F9834638460BF058
:1055500051F9B6F900A080468345B8BF5846BAEB6A
:10556000600FA8BF4FEA600A17A80BF0E3F900210B
:10557000BAF1010FB8BF0121049C0746E2430A4279
:1055800010D1384613F04CFE0FFA8AF20AAE0546E7
:1055900019A9304600230FF06DF8304600210EF0B7
:1055A00057FB01E04FF6FF70BDF86010BDF85C20BE
:1055B000ADF8241008A90190059810911591FF21CC
:1055C000ADF820208DF8581059464246139510F03A
:1055D000F5FF03995FFA81FBBBF1020F0AD148B1D5
:1055E0008268BDF95C1002EB4102BDF96410A2EBC8
:1055F000410111910590CCB3BDF95E40BDF9620047
:10560000844200F3138102980DF14008C6B20AE00B
:10561000484641460FF010FBBDF96200844204F198
:10562000010480F20381284631463A46ADF8224013
:10563000ADF8264013F0E8FFBDF95C1022B2284611
:105640003B460EF0FBFC012808BF0220BBF1010F16
:105650008DF85000DCD10598BDF966108068A0EB8C
:10566000410030F81400ADF84800D1E7BAF1010F5D
:105670005DDB02984FF00008C0B2049008E000BF64
:10568000484610A90FF0D8FA08F10108C2454ED0DB
:10569000BDF86600BDF86A10404404B2A1EB0800F2
:1056A000BDF95E1006B28C4203DABDF96200864293
:1056B000EADC049928463A4613F0A6FFBDF920100B
:1056C000284622463B460EF0B9FCBDF95E10012883
:1056D00008BF02208C428DF8500013DBBBF1010F94
:1056E000ADF82240ADF8264008D10599BDF9660015
:1056F0008968201A31F81000ADF84800484610A912
:105700000FF09AFABDF962008642BDDCBBF1010FD1
:10571000ADF82260ADF82660B2D10599BDF96600FA
:105720008968301A31F81000ADF84800A8E7BDF8D4
:105730006400BDF86610ADF81800BDF86800ADF85B
:105740001C0001EB0A00BDF86A10ADF81A00A1EBCD
:105750000A00ADF81E0006A80EF0B8FC0399064634
:10576000090608BF002E4DD00298BDF966108DF8CD
:105770005800BDF96A00A0EB0A048A440120A24542
:105780008DF8500052DC02985FFA80F808E000BF04
:10579000484610A90FF050FAA2450AF1010A45DA6D
:1057A00076B1284641463A4613F02EFFBDF95C100B
:1057B0000FFA8AF228463B460EF040FC8DF8500066
:1057C000BBF1010FADF822A0ADF826A0E0D10598FD
:1057D000BDF966108068A0EB410030F81A00ADF802
:1057E0004800D5E7308800287FF4A2AEF07810A9F1
:1057F0008DF858004846CDF840800FF01DFA1BB0D8
:10580000BDE8F08FBDF86600BDF86A105044ADF8F1
:105810002200A1EB0A00ADF82600029810A98DF82D
:1058200058000020139048460FF006FA002D1CBFC8
:10583000284613F065FD019A4FF6FF7190B2059C62
:10584000884205D010B20EF0C1FF0AA80EF020FC6D
:10585000002C1CBF204610F0A9FE1BB0BDE8F08F45
:105860002DE9F0478EB089460969002900F095803E
:10587000804699F81A000328C0F08F800846164623
:1058800012F01CF802284FD1D9E90412002741F682
:10589000FF70CDE900700DA8002302971CF008FBF3
:1058A000348830460BF046F881B200EBD130BDF8B9
:1058B000341000B201EBD13204EB600012B27488F4
:1058C000A0EB6200ADF82C0008440138ADF83000C0
:1058D00030460AF08FFF81B200EBD130BDF83610B0
:1058E00000B201EBD13204EB600012B203ACA0EBCA
:1058F0006200ADF82E0008440138ADF832002046B1
:105900000EF068F9D9E9043099F81A100BAA8DF84D
:1059100026100390B9F818002146ADF8180040464B
:1059200000970DF08DFE38E0D9F810000DAC21463F
:1059300011F0D6FC012830D103A80DF06DFE9DF8C2
:10594000180099F8021099F81C7001F00F0100F08E
:10595000F00099F81A2099F81B300844B9F818108B
:105960008DF81800ADF814108DF816308DF817204A
:10597000B7B19DF83700BDF83510B6F9022041EAFD
:105980000040B6F9061002EB50308A42A0F1010047
:10599000ADF82E20ADF832003CDD0EB0BDE8F0874A
:1059A000348830460AF0C6FF81B29DF83720BDF832
:1059B000353000EBD13043EA024500B2AFB204EB20
:1059C0006000C7F3C901B6F802A0441A3046ADF82A
:1059D0002C400AF00FFF81B2D9F8103000EBD13023
:1059E000AAEB953100B20BAA01EB6000C7F38A0164
:1059F000ADF82E0000EB5530214401390138ADF8E7
:105A00003010ADF8320003A940460DF0CFFD0EB0C6
:105A1000BDE8F087651C03AF0BAC14E0A8782988BB
:105A2000B6F9063041EA0040BDF82E1001EB5031C6
:105A30000AB2ADF82E10BDF832109A4201EB503088
:105A4000ADF83200A9DC2988B6F90000C1F38A015B
:105A5000B6F90420014401399042ADF82C00ADF8AC
:105A60003010DBDCD9F810304046394622460DF0C4
:105A70009DFD2888BDF82C10C0F38A00B6F90430CB
:105A800001440AB2ADF82C10BDF830109A42084417
:105A9000ADF83000E6DDC1E72DE9F04387B00E46F2
:105AA00091F82210032963D38146308C00285FD0FF
:105AB00096F8230010F03E0F5AD010F0010057D195
:105AC000104614460AF036FF054620460AF092FEBC
:105AD000B6F900708542B8BF28460DF11408B7EB3F
