:020000040000FA
:1000000020440020BD010000C5010000C701000020
:10001000C9010000CB010000CD010000000000007C
:10002000000000000000000000000000CF01000000
:10003000D101000000000000D30100008D06000087
:10004000D7010000D9010000DB010000DD01000044
:10005000DF010000E1010000E3010000E501000014
:1000600001080000E9010000EB010000ED010000C3
:10007000EF010000F1010000F3010000F5010000B4
:10008000F7010000F9010000FB010000FD01000084
:10009000FF01000001020000030200000502000051
:1000A00007020000090200000B0200000D02000020
:1000B0000F020000110200001302000015020000F0
:1000C00017020000190200001B0200001D020000C0
:1000D0001F02000021020000230200002502000090
:1000E00027020000290200002B0200002D02000060
:1000F0002F02000031020000330200003502000030
:1001000037020000390200003B0200003D020000FF
:100110003F020000410200004302000045020000CF
:1001200047020000490200004B0200004D0200009F
:100130004F0200005102000053020000550200006F
:1001400057020000590200005B0200005D0200003F
:100150005F0200006102000063020000650200000F
:1001600067020000190500006B0200006D0200002C
:100170006F020000710200007302000075020000AF
:1001800077020000790200007B0200007D0200007F
:100190007F0200008102000083020000850200004F
:1001A0008702000089020000DFF80CD000F0E2F8BE
:1001B00000480047E50A00002044002033488047FB
:1001C00033480047FEE7FEE7FEE7FEE7FEE7FEE70F
:1001D000FEE7FEE7FEE7FEE7FEE7FEE7FEE7FEE7F7
:1001E000FEE7FEE7FEE7FEE7FEE7FEE7FEE7FEE7E7
:1001F000FEE7FEE7FEE7FEE7FEE7FEE7FEE7FEE7D7
:10020000FEE7FEE7FEE7FEE7FEE7FEE7FEE7FEE7C6
:10021000FEE7FEE7FEE7FEE7FEE7FEE7FEE7FEE7B6
:10022000FEE7FEE7FEE7FEE7FEE7FEE7FEE7FEE7A6
:10023000FEE7FEE7FEE7FEE7FEE7FEE7FEE7FEE796
:10024000FEE7FEE7FEE7FEE7FEE7FEE7FEE7FEE786
:10025000FEE7FEE7FEE7FEE7FEE7FEE7FEE7FEE776
:10026000FEE7FEE7FEE7FEE7FEE7FEE7FEE7FEE766
:10027000FEE7FEE7FEE7FEE7FEE7FEE7FEE7FEE756
:10028000FEE7FEE7FEE7FEE7FEE70000650400008C
:10029000A90100002DE9F05F0546002092469B462B
:1002A00088460646814640241BE02846414647468C
:1002B000224600F04FF853465A46C01A914110D3D7
:1002C00011461846224600F036F82D1A67EB010851
:1002D0004F4622460120002100F02DF817EB0009BF
:1002E0004E41201EA4F10104DFDC484631462A4677
:1002F0004346BDE8F09F10B5431A934209D28318D4
:10030000881803E010F8011D03F8011D521EF9D2F0
:1003100010BD40EA01039B0703D009E008C9121F82
:1003200008C0042AFAD203E011F8013B00F8013BAF
:10033000521EF9D210BD202A04DB203A00FA02F145
:10034000002070479140C2F1200320FA03F31943C3
:1003500090407047202A04DB203A21FA02F0002165
:10036000704721FA02F3D040C2F1200291400843C5
:1003700019467047064C074D06E0E06840F001035F
:1003800094E8070098471034AC42F6D3FFF710FF0B
:10039000701000009010000080B500F005F8B0FA71
:1003A00080F0400980BD000040F21000C2F2000061
:1003B000D0F80014D0F80404C94308446FF39F2018
:1003C000704700002DE9F04381B040F21009C2F2FD
:1003D0000009D9F80054D9F804240C469542804607
:1003E00011DAFFF7E1FFA042B8BF044609EB0500B0
:1003F00041462246FFF77FFFD9F8000426462044F5
:10040000C9F8000429E04FF48060002A08BF40F2D8
:10041000FF30471B2646A742B8BF3E4609EB050002
:1004200041463246FFF767FFD9F8000440F2FF3239
:100430003044C11700EB9151A74221EA0201A0EB21
:100440000100C9F8000408DAFFF7A6FF28B908EB95
:100450000600A11BFFF7B6FF0644304601B0BDE819
:10046000F08300004EF68850CEF20000016841F49F
:10047000700101607047000080B54FF6AC72EFF379
:10048000108172B64F28C0F611320EDC1E282CD017
:1004900028281BD140F2314348F6492041F2A941B6
:1004A000C1F20013984762B680BD502828D0782842
:1004B0000CD141F6894040F23143C0F2010043F6CD
:1004C0006B51C1F20013984762B680BD41F6894076
:1004D000C0F2010040F2314300F5924044F674410D
:1004E000C1F20013984762B680BD40F2314348F62E
:1004F000491040F6A171C1F20013984762B680BD61
:1005000040F231434DF2493042F64A11C1F2001334
:10051000984762B680BD000010B542F20004C4F2F4
:100520000004204600F004F8204600F005F810BD55
:100530000121016070470000C16841F00201C16003
:1005400070470000B0B50024C4F20A044AF2400526
:10055000204603210F220023C4F20A0500F030F8E0
:10056000204604210F22002300F02AF855F8200C21
:1005700040F4702040F0220045F8200C00F084FA8E
:1005800000F082FA28684FF6006120F0020028602F
:100590006868CFF6E04108406860686840F4403021
:1005A00040F03C006860286820F00400286000BF2C
:1005B000E8680028FCD0286840F001002860B0BD41
:1005C00070B56FF01F0C0CEB810C0446082938BF86
:1005D0004FEA810C4FF00F0E28BF043426680EFA44
:1005E0000CF5AE432660266802FA0CF23243226014
:1005F000012202FA01F1002BD0F800230CBF22EAFD
:1006000001011143C0F8001370BD0000B0B584B003
:100610008024C4F20A04204600210122012300257F
:10062000FFF7CEFF2046012101220023FFF7C8FF7C
:100630004FF4614000904FF04070019040F2003064
:1006400042F20004C0F60020C4F20404029069469D
:1006500020468DF80C5000F033F9204600F0E0F908
:1006600004B0B0BDB0B501380024B4EB106F1CBFAE
:100670000120B0BD4EF21005CEF20005686000F01A
:10068000FBF90720AC6028602046B0BD80B500F0C3
:1006900081FA80BD4FF080410868C00740F2080031
:1006A000C2F200000CD10968C1F38201042940D8CC
:1006B000DFE801F0031626292E004FF4FA4137E057
:1006C0004AF20001C4F20A010968890745F60021CF
:1006D000C0F262215CBF42F60051C0F231112FE03E
:1006E0004AF20001C4F20A01096C89074CF2EC11CC
:1006F000C0F6EB315CBF40F60061C0F2277117E035
:100700004FF4004114E041F60031C0F2B7010FE0B0
:1007100042F60051C0F2311101604AF20001C4F208
:100720000A010968890704D545F60021C0F2622153
:1007300001604FF080410968890702D50168C90846
:10074000016000684DF68361C4F21B31A0FB01011A
:10075000880C40F20401C2F20001086070470000FA
:10076000B0B57025C4F2000555F8680C962440F029
:10077000007045F8680C9620FFF77EFE002000F020
:10078000DBF9FFF787FF40F20800C2F200000068C3
:1007900040F60061C0F22771884217D84BF2004141
:1007A000C0F2C441884201D978240FE045F6002107
:1007B000C0F26221884201D9502407E04CF2803116
:1007C000C0F2C9111E24884288BF28242046FFF7A2
:1007D00053FE40F28010C4F20A00D0F8001121F05C
:1007E0000201C0F80011016821F00C0101602868C5
:1007F00020F006002860286840F002002860B0BDA4
:10080000B0B582B043F20004C4F20404204644F2BE
:10081000100100F039F8A0B1204600F0F5F890B1D1
:1008200020464FF4804100F02FF850B120464FF49D
:10083000804100F021F840F21C40C2F2000001218A
:10084000017002B0B0BD01AD05E000BF204600F070
:10085000DBF80028E4D12046294600F0E7F800281C
:10086000F4D128460121FFF7ADFDEFE7416821F4FF
:100870000071416070470000490458BF7047C1696A
:1008800041F40051C1617047CA0644BF82685FEA03
:10089000422212D44A0444BF82685FEA82220CD406
:1008A0004A0744BF82685FEA823206D4490652BFD3
:1008B00000208068C0F3C0607047012070470000CE
:1008C00070B50446A0F18040A0F584204FEAF026E0
:1008D000032E0D4608D8082147A0C4F2000150F8A5
:1008E00026000A68104308602046FFF7BFFFA06893
:1008F0004CF20001C0F6FF710840A06040F2080011
:10090000C2F2000000682968032EB0FBF1F0A16874
:10091000A0F1010041EA3010A060606820F47C0082
:100920006060687929794FEAC04040EA8140A9793E
:10093000626840EA020040EA81506060E06880B28C
:10094000E060E879697AE26842EA004040EA0160E2
:1009500040F6FF71E060E06920EA0100E061E87ABA
:10096000E16940EA010040F48050E061606844F2CF
:10097000140120EA01006060AA7A297A4FEA820312
:10098000287B43EA0113656843EA050343EA8033A1
:10099000636088BF70BDDFE806F0020910171143DD
:1009A000084318D0002000F05BF870BD11430843E5
:1009B00015D0012000F054F870BD1143084312D047
:1009C000082000F04DF870BD114308430FD01520EA
:1009D00000F046F870BD002000F032F870BD012034
:1009E00000F02EF870BD082000F02AF870BD152028
:1009F00000F026F870BD00BF40000000800000003D
:100A000000010000000200004068012121EAD0003E
:100A1000704700004068012121EA00007047000093
:100A2000416841F400714160704700000268022093
:100A300000EA52206FF35F220A607047016070473E
:100A400000F01F00012101FA00F04EF28011CEF2F9
:100A500000010860BFF34F8FBFF36F8F7047000036
:100A600000F01F00012101FA00F04EF20011CEF259
:100A700000010860704700004EF62350CEF20000DF
:100A8000E0210170704700004FF080400168C90705
:100A900010D1006810F01C0F06D04FF080400068A5
:100AA00000F01C00082805D1142000BF013800BF49
:100AB000FCD104E044F62060013800BFFCD170474F
:100AC000B0B542F20005C4F204050446C1B228469E
:100AD000FFF7B4FF2846FFF79DFF0028FAD1204614
:100AE000B0BD0000FFF73CFE00F05CF8FFF78EFDA4
:100AF00004A006A100F06AF8012000BF00F03EF853
:100B00006420FBE725730D0A0000000032313A3102
:100B1000363A31370000000080B54AF20000C4F2D6
:100B20000A0001210160FFF7AFFF4FF0804001682C
:100B300041F00101016080BD10B50446FFF7ECFFF4
:100B4000FFF700FD0420C4F20000012101604FF016
:100B500080400168002C21F01C010160016841F017
:100B600004010160016821F0020118BF0231016037
:100B7000016821F00101016010BD000040F2184140
:100B8000C2F200010A6800BF0B689B1A8342FBD3C4
:100B90007047000040F21840C2F2000001680131C5
:100BA0000160704780B540F20800C2F200000068A2
:100BB00044F6D351C1F26201A0FB01018809FFF79D
:100BC00051FD002808BF80BDFEE700000FB4054BB3
:100BD00010B503A9044A029800F018F810BC5DF89B
:100BE00014FB0000C10A00000000002002E008C859
:100BF000121F08C1002AFAD170477047002001E097
:100C000001C1121F002AFBD1704700002DE9FF4FE0
:100C10008DB00F460546002606E025280BD0DDE9FD
:100C20000F1290476D1C761C28780028F5D111B062
:100C30003046BDE8F08F0024A246A1460122EC49CF
:100C400000E0044315F8013F203B02FA03F008429C
:100C5000F7D128782A2810D06FF02F022878A0F139
:100C60003001092914D80AEB8A0102EB410144F052
:100C7000020400EB010A6D1CF0E701CF5FEA000AF5
:100C800003D544F40054CAF1000A44F002046D1C78
:100C900028782E2817D115F8010F44F004042A28CB
:100CA0000ED06FF02F022878A0F1300109290AD860
:100CB00009EB890102EB410100EB01096D1CF2E730
:100CC00057F8049B6D1C28786C280FD006DC4C2844
:100CD00017D068280DD06A2814D104E0742810D0E9
:100CE0007A280FD10DE044F400140AE044F4801493
:100CF00001E044F440146978814202D104F5801483
:100D00006D1C6D1C2A786E2A1FD00CDC632A31D032
:100D100004DC002A8BD0582A11D1A3E0642A68D0C1
:100D2000692A0CD165E0732A2ED004DC6F2A73D0B7
:100D3000702A04D19BE0752A6FD0782A6ED01046B5
:100D4000DDE90F129047761C50E1C4F302500228EF
:100D500006D0032809D0042801CF09D0066045E158
:100D600001CFF117C0E9006140E101CF06803DE10C
:100D700006703BE117F8040B8DF8000000208DF899
:100D80000100EB46012003E057F804BB4FF0FF30B1
:100D900061074FF0000102D40DE008F1010188461F
:100DA00049450FDA8045F8DB1BF808100029F4D11B
:100DB00008E008F1010188468142FADB1BF80810BF
:100DC0000029F6D1DDE90F23AAEB08008146214670
:100DD00000F036F9304400EB080604E0DDE90F12BC
:100DE0001BF8010B9047B8F10108F7D2214648469D
:100DF000F7E00A21C4F302534FF0000B0891022BD5
:100E000004D001CFC117032B09D00AE0FF1D27F042
:100E10000707F7E8020108E032E01FE020E000B237
:100E2000C117042B01D140B2C117031E71F1000399
:100E300007DA4FF0000CD0EB0C006CEB01012D2316
:100E400002E0230504D52B238DF82430012303E091
:100E5000E30701D02023F7E7984658E00A2110E085
:100E600010210EE010204FF0000B08900CE0102134
:100E70004FF0000B44F004044FF00809089103E020
:100E800008214FF0000B0891C4F30253022B04D049
:100E900001CF0021032B06D006E0FF1D27F0070736
:100EA000F7E8020103E080B2042B00D1C0B24FF09A
:100EB000000823072BD5702A07D0DDF820C08CF05E
:100EC000100C5CEA0B0C05D00EE040238DF82430AA
:100ED000012308E050EA010306D030238DF82430C6
:100EE0008DF8252002239846DDF820C08CF0080CF0
:100EF0005CEA0B0C0BD150EA010301D1630706D564
:100F000030238DF824304FF00108A9F10109582A47
:100F100004D038A20B9208AA0A920BE03AA2F9E791
:100F20005B46089AFFF7B6F90B9B9B5C0A9A521E28
:100F30000A92137050EA0102F2D10A98ADEB000058
:100F400000F1200B600702D524F4803401E04FF05B
:100F50000109D94502DDA9EB0B0000E0002000EB00
:100F60000B0141440890AAEB010AE00306D4DDE935
:100F70000F232146504600F063F806444FF0000965
:100F800008E009A911F80900DDE90F12904709F1FD
:100F90000109761CC145F4DBE0030CD5DDE90F2324
:100FA0002146504600F04CF8064404E0DDE90F12FB
:100FB00030209047761C0899481E08900029F5DCDF
:100FC00008E00A980A990078491C0A91DDE90F1295
:100FD0009047761CBBF10001ABF1010BF1DC21461F
:100FE0005046DDE90F2300F019F806446D1C1BE69E
:100FF00009280100303132333435363738396162EF
:1010000063646566000000003031323334353637B2
:101010003839414243444546000000002DE9F04183
:10102000044600251E461746880404D405E03946C8
:101030002020B0476D1C641EF9D52846BDE8F0811C
:101040002DE9F041044600251E469046C80301D50F
:10105000302700E02027880404D505E041463846C3
:10106000B0476D1C641EF9D52846BDE8F08100002C
:10107000901000000000002010000000EC0B0000A9
:10108000A01000001000002010440000FC0B000025
:101090000000000014000000002D310100000000DD
:04000005000001A94D
:00000001FF
