:020000040000FA
:1000000058E90020BD010000C5010000C701000043
:10001000C9010000CB010000CD010000000000007C
:10002000000000000000000000000000CF01000000
:10003000D101000000000000D3010000390C0000D5
:10004000D7010000D9010000DB010000DD01000044
:10005000DF010000E1010000E3010000E501000014
:10006000A1130000E9010000EB010000ED01000018
:10007000EF010000F1010000F3010000F5010000B4
:10008000F7010000F9010000FB010000FD01000084
:10009000FF01000001020000030200000502000051
:1000A0000702000009020000F90300000D02000031
:1000B0000F020000110200001302000015020000F0
:1000C00017020000190200001B0200001D020000C0
:1000D0001F02000021020000230200002502000090
:1000E00027020000290200002B0200002D02000060
:1000F0002F02000031020000330200003502000030
:1001000037020000390200003B0200003D020000FF
:100110003F020000410200004302000045020000CF
:1001200047020000490200004B0200004D0200009F
:100130004F0200005102000053020000550200006F
:1001400057020000590200005B0200005D0200003F
:100150005F0200006102000063020000650200000F
:10016000670200000D0700006B0200006D02000036
:100170006F020000710200007302000075020000AF
:1001800077020000790200007B0200007D0200007F
:100190007F0200008102000083020000850200004F
:1001A0008702000089020000DFF80CD000F012F98D
:1001B00000480047D924020058E90020334880470E
:1001C00033480047FEE7FEE7FEE7FEE7FEE7FEE70F
:1001D000FEE7FEE7FEE7FEE7FEE7FEE7FEE7FEE7F7
:1001E000FEE7FEE7FEE7FEE7FEE7FEE7FEE7FEE7E7
:1001F000FEE7FEE7FEE7FEE7FEE7FEE7FEE7FEE7D7
:10020000FEE7FEE7FEE7FEE7FEE7FEE7FEE7FEE7C6
:10021000FEE7FEE7FEE7FEE7FEE7FEE7FEE7FEE7B6
:10022000FEE7FEE7FEE7FEE7FEE7FEE7FEE7FEE7A6
:10023000FEE7FEE7FEE7FEE7FEE7FEE7FEE7FEE796
:10024000FEE7FEE7FEE7FEE7FEE7FEE7FEE7FEE786
:10025000FEE7FEE7FEE7FEE7FEE7FEE7FEE7FEE776
:10026000FEE7FEE7FEE7FEE7FEE7FEE7FEE7FEE766
:10027000FEE7FEE7FEE7FEE7FEE7FEE7FEE7FEE756
:10028000FEE7FEE7FEE7FEE7FEE70000DD04000014
:10029000A90100002DE9F05F0546002092469B462B
:1002A00088460646814640241BE02846414647468C
:1002B000224600F07FF853465A46C01A914110D3A7
:1002C00011461846224600F066F82D1A67EB010821
:1002D0004F4622460120002100F05DF817EB00098F
:1002E0004E41201EA4F10104DFDC484631462A4677
:1002F0004346BDE8F09F10B5431A934209D28318D4
:10030000881803E010F8011D03F8011D521EF9D2F0
:1003100010BD40EA01039B0703D009E008C9121F82
:1003200008C0042AFAD203E011F8013B00F8013BAF
:10033000521EF9D210BDD2B201E000F8012B491EC5
:10034000FBD270470022F6E710B513460A46044672
:100350001946FFF7F0FF204610BD421C10F8011BA4
:100360000029FBD1801A704710B5002200E0521C12
:10037000835C8C5CA34201D1002BF8D1D8B2E1B2EE
:10038000401A10BD034611F8012B00F8012B002A7A
:10039000F9D118467047202A04DB203A00FA02F10E
:1003A000002070479140C2F1200320FA03F3194363
:1003B00090407047202A04DB203A21FA02F0002105
:1003C000704721FA02F3D040C2F120029140084365
:1003D00019467047064C074D06E0E06840F00103FF
:1003E00094E8070098471034AC42F6D3FFF7E0FEDC
:1003F0005CB902007CB9020080B548F64000C4F246
:10040000040000F0D3FC012021F030FA80BD000090
:1004100080B500F005F8B0FA80F0400980BD00001A
:1004200040F2A000C2F20000D0F80014D0F804049A
:10043000C94308446FF39F20704700002DE9F04343
:1004400081B040F2A009C2F20009D9F80054D9F8ED
:1004500004240C469542804611DAFFF7E1FFA042E2
:10046000B8BF044609EB050041462246FFF743FFAB
:10047000D9F8000426462044C9F8000429E04FF4C6
:100480008060002A08BF40F2FF30471B2646A74283
:10049000B8BF3E4609EB050041463246FFF72BFF49
:1004A000D9F8000440F2FF323044C11700EB9151FB
:1004B000A74221EA0201A0EB0100C9F8000408DA12
:1004C000FFF7A6FF28B908EB0600A11BFFF7B6FF50
:1004D0000644304601B0BDE8F08300004EF6885077
:1004E000CEF20000016841F4700101607047000025
:1004F00080B54FF6AC72EFF3108172B64F28C0F69C
:1005000011320EDC1E282CD028281BD140F231439A
:1005100048F6492041F2A941C1F20013984762B65A
:1005200080BD502828D078280CD141F6894040F26F
:100530003143C0F2010043F66B51C1F200139847FA
:1005400062B680BD41F68940C0F2010040F23143FD
:1005500000F5924044F67441C1F20013984762B628
:1005600080BD40F2314348F6491040F6A171C1F216
:100570000013984762B680BD40F231434DF24930D6
:1005800042F64A11C1F20013984762B680BD0000DE
:1005900000EB810000210164704700002DE9F04369
:1005A00081B0074640F2FF70C4F204000024984670
:1005B000914687420D46C4F20A041ADD41F2FF70EB
:1005C000C4F2040087422ADC40F60000C4F20400B2
:1005D000874239D041F20000C4F20400874256D16C
:1005E0000820C4F200000168203441F004010160D9
:1005F0004DE0B7F1402F30D044F60000C4F20000C7
:1006000087423CD00020C4F2040087423FD108203A
:10061000C4F20000016841F00101016037E041F6D9
:100620000000C4F20400874220D041F20000C4F26E
:100630000A0087422BD10820C4F2000041684034F0
:1006400041F00101416022E00820C4F2000001688D
:10065000103441F00201016019E00820C4F20000EA
:100660000168803441F01001016010E00820C4F2FC
:1006700000000168303441F00801016007E0082003
:10068000C4F200000168903441F02001016020466E
:10069000294600220123012600F002FA06FA05F09D
:1006A0007968B9F1010F14BF21EA000008437860AE
:1006B00001210898A940D4F80021B8F1010F14BF16
:1006C00022EA010111430122C4F80011012802FAB3
:1006D00005F0D4F8002214BF22EA00001043099963
:1006E000C4F800020120A8400129D4F800140CBF6E
:1006F000084321EA0000C4F8000401B0BDE8F0831B
:1007000000EB8100012101647047000010B542F246
:100710000004C4F20004204600F004F8204600F073
:1007200073F810BD01210160704700002DE9F0470A
:1007300042F2000CC4F2000C604506D10822C4F25B
:100740000002136843F0804313600B780E7F4A78F1
:100750009D1E45EA861502F001074B7FACF140264D
:1007600045EA074502F0FE0203FB06F645EA0242AF
:1007700006F500552A4342F4607291F8068091F81C
:100780000AE042610D89CA896FF0FF094F8840F283
:10079000000A09EB0525CFF6FF7A013A0AEB074676
:1007A0002A433243A8F1010542EA8562604582612D
:1007B0008A890D8A8C8809EB0222A5F101050AEBD2
:1007C000044442EA050242EA0402AEF1010542EAAB
:1007D0008562C2618A69426240F2FF120264466425
:1007E00084644969C164A7F1010101654FF0010109
:1007F0000160436018BFBDE8F087002B18BF00F010
:10080000FFFEBDE8F0870000C16841F00201C16051
:10081000704700002DE9F04182B04025C4F20A057E
:1008200005F1400420460D210222002300F038F992
:1008300020460E21032200234FF00E0800F030F96D
:10084000A5F13006304607210122002300F028F9E7
:10085000304608210422002300F022F93046092105
:100860000422002300F01CF930460A210422002350
:1008700000F016F928460F210122002300F010F99C
:1008800028460E210122002300F00AF905F1500745
:1008900038460E210122002300F002F938460D21CE
:1008A0000122002300F0FCF838460C21012200232D
:1008B00000F0F6F838460B210122002300F0F0F892
:1008C00038460A210122002300F0EAF838460921BF
:1008D0000122002300F0E4F8384608210122002319
:1008E00000F0DEF8384607210122002300F0D8F896
:1008F000384606210122002300F0D2F838460321B1
:100900000222002300F0CCF838460F2101220023F8
:1009100000F0C6F8384602210122002300F0C0F89A
:1009200020460F210322002300F0BAF828460721B1
:100930000122012300F0B4F82846062101220123F8
:1009400000F0AEF8284605210122012300F0A8F8A6
:10095000284604210122012300F0A2F828460321A1
:100960000122012300F09CF82846022101220123E4
:1009700000F096F8284601210122012300F090F8AA
:10098000284600210122012300F08AF82846082188
:100990000122012300F084F82846092101220123C5
:1009A00000F07EF828460A210122012300F078F8A1
:1009B00028460B210122012300F072F828460C2161
:1009C0000122012300F06CF828460D2101220123A9
:1009D00000F066F8203D28460E210122012300F098
:1009E0005FF828460F210122012300F059F8304614
:1009F00006210122002300F053F820460C21022298
:100A0000002300F04DF84FF08040009040F20220AB
:100A1000ADF8040068468DF8068000F067F802B073
:100A2000BDE8F081B0B50024C4F20A044AF24005E2
:100A3000204603210F220023C4F20A0500F030F8FB
:100A4000204604210F22002300F02AF855F8200C3C
:100A500040F4702040F0220045F8200C04F0A8FC7F
:100A600004F0A6FC28684FF6006120F00200286020
:100A70006868CFF6E04108406860686840F440303C
:100A800040F03C006860286820F00400286000BF47
:100A9000E8680028FCD0286840F001002860B0BD5C
:100AA00070B56FF01F0C0CEB810C0446082938BFA1
:100AB0004FEA810C4FF00F0E28BF043426680EFA5F
:100AC0000CF5AE432660266802FA0CF2324322602F
:100AD000012202FA01F1002BD0F800230CBF22EA18
:100AE00001011143C0F8001370BD000070B540F261
:100AF00004010C25C2F200014278C4F20005096825
:100B000090F802C090F804E043792E68541CB1FBC1
:100B1000F4F146F480562E604FF4484501FB05F58C
:100B200086792B4443EA8E1340F20C0543EA860390
:100B30004FF00846336090F90030C2F20005DEB293
:100B40002D6842EAC602B5FBF4F542EA4C0441F2D4
:100B50008042C0F2EF32954288BF44F004040C2278
:100B6000C8F6000242F8084C032E9ABF0EA656F8AB
:100B700023304FF48053C0784FF47A7600FB06F0B0
:100B8000B0FBF3F0013000FB01F042F8040C02204E
:100B900010601068800758BF70BD00BF00BF1068AC
:100BA0008007FBD470BD00BF0010000000100000E3
:100BB0000020000000080000B0B584B08024C4F21A
:100BC0000A0420460021012201230025FFF768FFC7
:100BD0002046012101220023FFF762FF4FF461400C
:100BE00000904FF04070019040F2003042F200045B
:100BF000C0F60020C4F204040290694620468DF835
:100C00000C5000F02DFC204600F0DAFC04B0B0BD22
:100C1000B0B501380024B4EB106F1CBF0120B0BD8B
:100C20004EF21005CEF20005686000F00DFD0720C1
:100C3000AC6028602046B0BD80B524F0B1FD80BD19
:100C40004FF080410868C00740F20C00C2F200007B
:100C50000CD10968C1F38201042940D8DFE801F012
:100C6000031626292E004FF4FA4137E04AF200011C
:100C7000C4F20A010968890745F60021C0F2622121
:100C80005CBF42F60051C0F231112FE04AF2000180
:100C9000C4F20A01096C89074CF2EC11C0F6EB3181
:100CA0005CBF40F60061C0F2277117E04FF40041CD
:100CB00014E041F60031C0F2B7010FE042F60051F6
:100CC000C0F2311101604AF20001C4F20A01096860
:100CD000890704D545F60021C0F2622101604FF07A
:100CE00080410968890702D50168C9080160006868
:100CF0004DF68361C4F21B31A0FB0101880C40F268
:100D00000401C2F20001086070470000B0B5702510
:100D1000C4F2000555F8680C962440F0007045F8C0
:100D2000680C9620FFF7E4FB002024F00BFDFFF792
:100D300087FF40F20C00C2F20000006840F600613C
:100D4000C0F22771884217D84BF20041C0F2C4416B
:100D5000884201D978240FE045F60021C0F26221D3
:100D6000884201D9502407E04CF28031C0F2C91109
:100D70001E24884288BF28242046FFF7B9FB40F292
:100D80008010C4F20A00D0F8001121F00201C0F86E
:100D90000011016821F00C010160286820F00600B4
:100DA0002860286840F002002860B0BD0121416140
:100DB000704700002DE9F0410446A0F18040A0F505
:100DC0008D204FEAB010DDF81880042840F20800AA
:100DD0001D4616460F46C4F2000004D8016841F4CF
:100DE0000061016003E0416841F4800141602046F8
:100DF00000F004FAA068B8F1000F20F00F00A06026
:100E0000A06840EA0700A060A6F101002063A5F1F8
:100E1000010020604FF0010060612169404618BF69
:100E2000012021F00101084448F6BF01C4F2040189
:100E30008C42206129DD48F6BF10C4F204008442D0
:100E400046DD48F63F20C4F20400844278DD48F6CF
:100E50004020C4F20400844200F0C28048F68020A2
:100E6000C4F20400844200F0C58048F6C020C4F2F9
:100E70000400844240F0C480B8F1000F00F0C0804C
:100E8000572000F0D1FBBDE8F08146F6FF00C4F228
:100E90000400844239DC46F67F00C4F20400844238
:100EA00062DC46F60000C4F20400844200F0AA802E
:100EB00046F64000C4F20400844240F0A180B8F13C
:100EC000000F00F09D80032000F0AEFBBDE8F08134
:100ED00048F63F10C4F20400844259DC48F6C000D2
:100EE000C4F20400844200F0958048F60010C4F279
:100EF0000400844240F08480B8F1000F00F080804C
:100F0000502000F091FBBDE8F08148F63F00C4F2AC
:100F10000400844250DC46F60010C4F2040084420F
:100F200000F0808048F60000C4F20400844267D1DB
:100F3000B8F1000F64D00B2000F076FBBDE8F08123
:100F400048F6C010C4F20400844273D048F6002072
:100F5000C4F20400844253D1B8F1000F50D05420A1
:100F600000F062FBBDE8F08146F68000C4F20400A8
:100F7000844267D046F6C000C4F2040084423FD1E8
:100F8000B8F1000F3CD0162000F04EFBBDE8F08118
:100F900048F64010C4F2040084425BD048F680104A
:100FA000C4F2040084422BD1B8F1000F28D05220A3
:100FB00000F03AFBBDE8F08148F64000C4F20400BE
:100FC00084424FD048F68000C4F20400844217D116
:100FD000B8F1000F14D01D2000F026FBBDE8F08111
:100FE000B8F1000F08BFBDE8F081552000F01CFBF0
:100FF000BDE8F081B8F1000F1CBF562000F014FBD3
:10100000BDE8F081B8F1000FFAD0022000F00CFB2F
:10101000BDE8F081B8F1000FF2D01F2000F004FB12
:10102000BDE8F081B8F1000FEAD04F2000F0FCFAE3
:10103000BDE8F081B8F1000FE2D0532000F0F4FADF
:10104000BDE8F081B8F1000FDAD0142000F0ECFA1E
:10105000BDE8F081B8F1000FD2D0512000F0E4FAE1
:10106000BDE8F081B8F1000FCAD01A2000F0DCFA18
:10107000BDE8F08148F6BF01C4F20401884248F699
:101080004041C4F2040123DD48F6BF12C4F2040259
:1010900090423ADD48F63F22C4F2040290425CDD01
:1010A00048F64022C4F20402904200F08F8048F6D5
:1010B0008022C4F20402904200F08B8048F6C022E5
:1010C000C4F20402904240F098804FF4006090E037
:1010D00046F6FF02C4F204029042A1F5005228DC59
:1010E00046F67F01C4F20401884245DC46F6000161
:1010F000C4F2040188426FD046F64001C4F20401F4
:10110000884218BF7047022074E048F63F12C4F2CC
:10111000040290423EDC48F6C002C4F2040290424F
:101120005CD048F60012C4F20402904265D110204F
:101130005FE048F63F03C4F20403984238DC46F609
:101140000013C4F2040398424AD048F60002C4F2E5
:101150000402904251D101204BE048F6C012C4F283
:10116000040290423ED048F60022C4F204029042AB
:1011700043D14FF480703CE046F68001C4F2040194
:10118000884231D046F6C001C4F20401884234D10D
:1011900008202FE048F64012C4F20402904225D005
:1011A00048F68012C4F20402904226D1402020E08A
:1011B00048F64002C4F20402904219D048F6800278
:1011C000C4F20402904218D1042012E04FF40070DF
:1011D0000FE04FF480600CE001200BE0082008E0F5
:1011E000102007E0802004E0042003E0202000E03D
:1011F00002200A46116808431060704748F6BF0194
:10120000C4F20401884248F64041C4F2040123DDDF
:1012100048F6BF12C4F2040290423BDD48F63F227A
:10122000C4F2040290425FDD48F64022C4F2040298
:10123000904200F0958048F68022C4F20402904269
:1012400000F0918048F6C022C4F20402904240F0BF
:10125000A5806FF400609DE046F6FF02C4F2040230
:101260009042A1F500522ADC46F67F01C4F2040147
:10127000884248DC46F60001C4F20401884275D079
:1012800046F64001C4F20401884218BF70476FF06F
:10129000020080E048F63F12C4F20402904241DCB2
:1012A00048F6C002C4F20402904262D048F600122E
:1012B000C4F20402904271D16FF010006AE048F667
:1012C0003F03C4F2040398423BDC46F60013C4F229
:1012D0000403984250D048F60002C4F2040290423F
:1012E0005CD16FF0010055E048F6C012C4F2040270
:1012F000904244D048F60022C4F2040290424DD1FC
:101300006FF4807046E046F68001C4F20401884222
:1013100038D046F6C001C4F2040188423ED16FF0D5
:10132000080038E048F64012C4F2040290422CD083
:1013300048F68012C4F2040290422FD16FF04000B0
:1013400028E048F64002C4F20402904220D048F659
:101350008002C4F20402904220D16FF0040019E030
:101360006FF4007016E06FF4806013E06FF001001E
:1013700011E06FF008000DE06FF010000BE06FF06F
:10138000800007E06FF0040005E06FF0200001E04E
:101390006FF002000A4611680840106070470000B4
:1013A000B0B582B043F20004C4F20404204644F213
:1013B000100100F039F8A0B1204600F0F5F890B126
:1013C00020464FF4804100F02FF850B120464FF4F2
:1013D000804100F021F84AF6D100C2F2000001215C
:1013E000017002B0B0BD01AD05E000BF204600F0C5
:1013F000DBF80028E4D12046294600F0E7F8002871
:10140000F4D128460121FFF719F8EFE7416821F4EC
:101410000071416070470000490458BF7047C169BE
:1014200041F40051C1617047CA0644BF82685FEA57
:10143000422212D44A0444BF82685FEA82220CD45A
:101440004A0744BF82685FEA823206D4490652BF27
:1014500000208068C0F3C060704701207047000022
:1014600070B50446A0F18040A0F584204FEAF02634
:10147000032E0D4608D8082147A0C4F2000150F8F9
:1014800026000A68104308602046FFF7BFFFA068E7
:101490004CF20001C0F6FF710840A06040F20C0061
:1014A000C2F2000000682968032EB0FBF1F0A168C9
:1014B000A0F1010041EA3010A060606820F47C00D7
:1014C0006060687929794FEAC04040EA8140A97993
:1014D000626840EA020040EA81506060E06880B2E1
:1014E000E060E879697AE26842EA004040EA016037
:1014F00040F6FF71E060E06920EA0100E061E87A0F
:10150000E16940EA010040F48050E061606844F223
:10151000140120EA01006060AA7A297A4FEA820366
:10152000287B43EA0113656843EA050343EA8033F5
:10153000636088BF70BDDFE806F002091017114331
:10154000084318D0002000F063F870BD1143084331
:1015500015D0012000F05CF870BD1143084312D093
:10156000082000F055F870BD114308430FD0152036
:1015700000F04EF870BD002000F032F870BD012080
:1015800000F02EF870BD082000F02AF870BD15207C
:1015900000F026F870BD00BF400000008000000091
:1015A00000010000000200004068012121EAD00093
:1015B000704700004068012121EA000070470000E8
:1015C000416841F4007141607047000002680220E8
:1015D00000EA52206FF35F220A6070470160704793
:1015E00000F01F00012101FA00F04EF28011CEF24E
:1015F00000010860BFF34F8FBFF36F8F704700008B
:101600004EF20810CEF200004FF4007101607047F6
:1016100000F01F00012101FA00F04EF20011CEF29D
:101620000001086070470000002848BF704700F0C4
:101630001F01012202FA01F14EF200124009CEF21E
:10164000000242F8201070474EF62350CEF2000000
:10165000E02101707047000070B5056804462878E5
:1016600000F01AF8002804BF002070BD681E002595
:10167000064600BF821C226005EB850116F8012F8B
:10168000807802EB4101A1F1300500F005F8002857
:101690003046EFD1284670BDA0F1300100200A2964
:1016A00038BF01207047000010B540F2D440C2F2AC
:1016B0000000402100F00AFF43F64520C0F2000080
:1016C0001E210022002420F03FF940F2E041C2F246
:1016D0000001086002F05EF940F26860C2F20000AA
:1016E000047010BD70B50346B1F90000B2F90040B6
:1016F000B1F902C0B2F90250B1F904E0B2F90460E4
:10170000A042B1F90610B2F90620C8BF0446AC45A4
:101710001C80C8BF6546B6455D80B8BF764691421D
:101720009E80B8BF0A460020B4424FF00001D8BFE7
:1017300001219542D8BF0120DA80084070BD000029
:101740002DE9F04381B00C46B0F90070B1F90010FA
:101750008F423DDBB0F90260B4F902108E4237DBF4
:10176000B0F90490B4F90410894531DCB0F9068071
:10177000B4F9060080452BDC15466AB3694620465D
:101780002A46ADF80070ADF8026000F097F8F8B1A5
:10179000694620462A46ADF80090ADF8026000F098
:1017A0008DF8A8B1694620462A46ADF80070ADF81C
:1017B000028000F083F858B1694620462A46ADF809
:1017C0000090ADF8028000F079F801B0BDE8F08338
:1017D000002001B0BDE8F083012001B0BDE8F08336
:1017E000B0F90020B1F904309A4213DCB0F90420BA
:1017F000B1F900309A420DDBB0F90220B1F90630A0
:101800009A4207DCB0F90600B1F902108842A4BF81
:1018100001207047002070472DE9F04381B00C464D
:10182000B0F90460B1F900108E4211DBB0F9067016
:10183000B4F902108F420BDBB0F90080B4F9041048
:10184000884505DCB0F90290B4F90600814503DD56
:10185000012001B0BDE8F0831546EAB16946204693
:101860002A46ADF80080ADF8029000F027F898B94C
:10187000694620462A46ADF80060ADF8029000F0B7
:101880001DF848B9694620462A46ADF80080ADF8F3
:10189000027000F013F818B1002001B0BDE8F08329
:1018A000694620462A46ADF80060ADF8027000F0A7
:1018B00005F880F0010001B0BDE8F0832DE9F04F9C
:1018C00083B00646B1F90000B6F90070B8420EDBED
:1018D000B6F904A050450ADCB1F90200B6F902805D
:1018E0000C46404503DBB6F90690484503DD002071
:1018F00003B0BDE8F08F1546012A6BDB30460FF0D0
:10190000E3F881B200EBD1300FFA80FB4FEA6B00B5
:10191000009030460FF038F881B2002200EBD13051
:10192000009900B24610B1EB600FB8BF4FEA6B06EA
:10193000AE42A8BF2E46ADF80470374406EB08054A
:1019400001A82146ADF80870ADF80680ADF80A5040
:10195000FFF7B4FF30B1B819ADF80800A819ADF819
:101960000A0022E0A9EB060B01A821460022ADF8EF
:1019700006B0ADF80A90FFF7A1FF18B1B819ADF89D
:1019800008000EE0AAEB060701A821460022ADF8E8
:101990000470ADF808A0FFF791FF68B1B81BADF86F
:1019A0000400ABEB0600ADF8060001A821461DF0CF
:1019B0005DF803B0BDE8F08F01A821460022ADF824
:1019C0000680ADF80A50FFF779FF18B1B81BADF8E3
:1019D0000400C3E7012003B0BDE8F08F70B5B1F992
:1019E0000030B2F90040B1F902C0B2F90250B1F9C9
:1019F00004E0B2F90460A342B1F90610B2F906207E
:101A0000B8BF1C46AC450480B8BF6546B6454580A6
:101A1000C8BF764686809142C8BF0A46C28070BD64
:101A2000F0B585B005461FF011FF40F298660746F5
:101A30000020C2F2000604902DB1E868306028460C
:101A400020F09CF802E011F099FB306030680069EA
:101A50001CF0B6FF30684069002818BF1CF0B0FFCA
:101A60003068C0691CF0ACFF3068006A1CF0A8FF49
:101A700030680169002949D01DF08CFA1DF0E6F9A3
:101A80003068B0F85011C9B30168097C890716D5D0
:101A900011F08CFB3168451E084611F0DFFB013860
:101AA00004B22BB202AD28460021002200940FF0B0
:101AB00055F830680168896B4D6004F00FFD30689F
:101AC0004FF48071303017F097FE3068202100F518
:101AD000987017F091FE30680021A0F85011384638
:101AE0001FF0AEFE049030680068436A33B14AF6D6
:101AF000D402C2F2000204991268984717F020FC41
:101B000000F034F800F008F805B0F0BD0021A0F8AE
:101B1000501105B0F0BD0000B0B540F2E44500241E
:101B2000C2F200052859002818BF17F0ABFC28198D
:101B30001C2117F061FE1C34702C08BFB0BDF1E70A
:101B400040F2A871C2F20001096804E00A7E42F086
:101B500001020A764969002908BF70474A68824233
:101B6000F4D00A688242F5D1F0E700007047000027
:101B700080B540F2E050C2F20000042100F0A6FC63
:101B800080BD000080B540F2F050C2F200001C2180
:101B900000F09CFC80BD00002DE9F04F81B00A9F51
:101BA000002B044608BFB7F5807F00F0D680DDF833
:101BB0002C804FF0FF3EB8F802C0B8F900900FFA41
:101BC0008CF507FB09F007FB05F6A1EB0901521B99
:101BD0004042764201FB07F102FB07F20EEB1020B8
:101BE0000EEB162E022606EB112106EB1222002B1D
:101BF0002080A4F802E0A180E28000F0B48046F2E8
:101C00006769C6F2666953FB09F0811001EBD07772
:101C100007EB8700A3EB400538B220F0F1F8791C00
:101C200009B28246084620F0EBF807F15A0109B2E2
:101C30000646084620F0E4F807F15B0109B20746C2
:101C4000084620F0DDF8C5F10A0101FB0AF201FBAC
:101C500007F105FB062205FB001052FB09F250FBC1
:101C600009F0911001EBD271821002EBD070B4F93F
:101C7000009043114A11B4F9021003FB09FEB8F8B1
:101C8000005002FB11ECB4F9046005EB9C2002FB50
:101C900009FB009003FB06F0B4F9067003FB01F9A1
:101CA00003FB01BA02FB1101B8F8028005EB912C8D
:101CB00002FB06F102FB069902FB17E602FB170086
:101CC00008EB992E05EB962905EB9020009D03FB70
:101CD00007B603FB07110FFA89F32DB208EB9A2A16
:101CE00008EB962208EB912800B20FFA8CF1AB4278
:101CF0002E46B8BF1E4688420F46B8BF0746BE42B2
:101D0000B8BF3746AB422780C8BF1D468842C8BF10
:101D1000014610B20FFA8AF28D42C8BF29460FFA67
:101D200088F30FFA8EF7A18090421146B8BF0146A2
:101D3000BB423E46B8BF1E46B142B8BF0E469042B7
:101D40006680C8BF0246BB42C8BF1F46BA42C8BF72
:101D50001746E78001B0BDE8F08F00202060481EE4
:101D6000A080501E0AE01FFA89F3184420800EEB71
:101D70000C006080C818A08002EB0C00E08001B06D
:101D8000BDE8F08F2DE9F04F81B00446B0F90800AE
:101D9000B4F90A30081AE189D21AB1F5807F2168B6
:101DA0000ED1D4E90B67636A07FB00F507FB02F766
:101DB00006FB125206FB007003EBA20582101AE02C
:101DC000A36BA78903FB00F003FB02F240114FEA6B
:101DD000621277B1D4E90B67636A00FB07F502FB77
:101DE00007F706FB125206FB007003EBA2258212D6
:101DF00001E0636AC518002D4FF0000062D4B4F909
:101E000004302E129E425DDAA06A12EB000A4FF0F7
:101E1000000057D4B4F906204FEA2A2B934551DA33
:101E200094F83420500715D40FFA86F90FFA8BF77F
:101E3000238A04F11808404649463A4614F0B8FE91
:101E4000A082404649463A4614F034FE00274FF03F
:101E500000081AE00BFB036092070AD401EB400173
:101E60004FEA400804F114000222022717F054FC44
:101E70000CE000EB400804F1140001EB08073946C0
:101E8000022217F049FCB8780327A07594F83400B3
:101E9000C00707D0A08AB0F5FC6F02BF002001B0D8
:101EA000BDE8F08FE07C80B12046A587A4F83EA075
:101EB000A4F84060A4F842B0C4F8448084F84870A4
:101EC00000F008F801B0BDE8F08F012001B0BDE8D6
:101ED000F08F00002DE9F04F87B090F83C100446D9
:101EE000D0F8009090F83E006F290DD8B4F940204A
:101EF0000027002AC8BF4FF0FF376FF07F0281EA4A
:101F000002086F2810D822E091294FF000071AD359
:101F1000B4F94020B4F904300132C1F17F089A428B
:101F2000B8BF01276F2812D991284FF0000619D3A6
:101F3000B4F94210B4F906200131C0F17F0091429A
:101F4000B8BF01260FE04FF0FF086F28ECD8B4F9B6
:101F5000421000260029C8BF4FF0FF366FF07F0106
:101F6000484000E0FF200390A08AA17D019094F8F2
:101F700034000291400748D4B4F84000B4F942203C
:101F80003844238A01B204F11805284614F010FEE3
:101F9000B4F84220B4F940103244238A12B2ADF8AA
:101FA0001800284614F004FEB4F84010B4F842209B
:101FB00039443244238A09B212B2ADF814002846DB
:101FC00014F0F6FD94F83410ADF81000890749D5E7
:101FD000B4F940B0B4F942A00BEB07000FFA80F956
:101FE00028464946524614F065FD0AEB06010EB23A
:101FF000824628465946324614F05CFD8346284600
:102000004946324614F056FD4AE0606C94F8481098
:10201000022207FB010009EB000106A817F07CFB78
:10202000B4F90410606C94F8482006FB01F101FB40
:102030000200022209EB000105A817F06DFBB4F9BC
:102040000410606C94F8482006FB017101FB02004B
:10205000022209EB000104A817F05EFB94F834009B
:10206000800705D400204FF0000B4FF0000A17E066
:1020700094F84800616C421EB4F9043006FB00F687
:1020800002EB010C07FB00C506FB031107FB002058
:102090005318084419F805A019F803B019F80000FE
:1020A00094F83410029F890703D4FF204546A07599
:1020B00049E05FFA88F181F0FF0202FB0AF30BFBB3
:1020C00001F617FB013112FB0063C1F307220399EC
:1020D000C3F30723C9B202FB01F681F0FF0113FB32
:1020E00001660021032A4FF0000538BF0125032BAC
:1020F00038BF0121360A2940A67501D045461CE0AB
:10210000032A039A38BF0022032B38BF4FF0FF3257
:102110000392032F424638BF0022BAF1030F38BFA3
:102120004FF0FF32BBF1030F38BF4FF00008032818
:1021300038BF4FF0FF384546904600291EBF0020AB
:1021400007B0BDE8F08F5FFA88F2FF2A04D001984B
:1021500022B9BDF8186006E0019E04E0BDF8181031
:1021600010F0F0FA0646EAB2FF2A03D02AB9BDF809
:10217000100008E0BDF8140005E0BDF81400BDF83B
:10218000101010F0DFFA0399CAB242B1FF2A01D150
:10219000304604E0B3B281B2184610F0D3FAA08200
:1021A000012007B0BDE8F08F2DE9F04381B004466F
:1021B000B0F90C0046F26768C6F2666850FB08F199
:1021C000B4F908208B1003EBD1771202626207EB9F
:1021D0008702B4F90A10A0EB4205784200B2090266
:1021E000A1621FF00DFEF94309B2814608461FF0B7
:1021F00007FEC7F15A0109B2064608461FF000FE65
:10220000C7F1590109B2074608461FF0F9FD05FB61
:1022100006F1C5F10A0205FB00F002FB091102FB01
:10222000070051FB08F150FB08F08A1002EBD17156
:10223000821002EBD07049114211A07CE16222634E
:1022400014F058FD94F83420A17C02F0FE021044F2
:1022500084F83400084614F041FD94F83410A27C50
:1022600001F0F90160F34101101F0023032838BF7A
:10227000012341EA8300216884F8340002F01F0042
:1022800020762046216230F8191FA28801F0030150
:1022900041EA8201E2886FF35F31E38941EA42312A
:1022A000D20882705A0802F50012B2FBF3F20180E4
:1022B000218AFF20A263A075A18201B0BDE8F0834E
:1022C000F0B581B016460C4607461FF0BFFAA2B221
:1022D00040F2FC54C2F2000405462046394633461B
:1022E00015F0E0F868B1E0690021A16218B928464C
:1022F0001FF0A6FAE061E069002804BF0120E06158
:1023000007E020462C2117F077FA4FF00040A0623A
:102310000024204601B0F0BD10B540F22860C2F2A2
:102320000000142100F0D2F815F076F8E0B146F67E
:10233000B951C0F20101044615F042F947F20521F6
:10234000C0F20101204615F03DF947F27531C0F2A7
:102350000101204615F038F946F68151C0F201011D
:10236000204615F02BF910BDFEE70000F0B585B052
:1023700004460D4610B134B905B0F0BD10F0FEFEB4
:102380000446002CF8D00020CDB30290204610F077
:102390000DFF0138ADF80C00204610F05FFF01384A
:1023A000ADF80E00684602AA2946FFF79BF90028FF
:1023B000E2D02068017C890725D48269002A1CBFED
:1023C00069469047B4F8500190B104F130050027F8
:1023D0006E4600BF304629460022FFF7B1F90028BB
:1023E000CAD1B4F850010137874205F10805F1D38D
:1023F0001F2816D804EBC0006946303017E0A4F857
:10240000500105B0F0BD0298039920630120A4F8A3
:102410005001606861630028AED01FF0BFFB05B0BB
:10242000F0BD0020A4F8500104F1300002A90EF024
:10243000DFF9B4F85011606801310028A4F8501198
:1024400018BF1FF0ABFB05B0F0BD000070B504462F
:1024500000F014F8002808BF70BD05462046294644
:1024600000F026F806462046294600F081F8284666
:1024700017F008F8002E3546F0D170BD002814BFC3
:102480004068002070470000B0B50446FFF7F6FF33
:10249000002804BF0020B0BD0146002520460135BC
:1024A00000F006F801460028F8D12846B0BD00002B
:1024B000006808444068704700680858704700008A
:1024C000002814BF806800207047000003310022FC
:1024D00021F00301C0E9001282607047B0B50446E4
:1024E0000068083016F012FF0546A0B120462946C4
:1024F000002220F0DDFC62682046294620F0D0FC56
:10250000616819B120462A4620F0D2FCA0686560B7
:10251000002808BFA5602846B0BD0000B0B504463D
:102520000068083016F0F2FE0546A0B120462946A4
:10253000002220F0B5FCA2682046294620F0B8FC15
:10254000A16819B120462A4620F0AAFC6068A5605F
:10255000002808BF65602846B0BD000028B141686A
:1025600009B9806808B10020704701207047000059
:1025700070B5002808BF70BD04460D46FFF77EFF0A
:10258000A8421AD02046FFF79BFF06462046294660
:10259000FFF792FFAE4206461BD020462946FFF7C2
:1025A00087FF0546204631462A4620F079FC204622
:1025B0002946324620F07CFC70BD20462946FFF7B4
:1025C00077FF606068B101462046002220F070FC71
:1025D00070BDA66046B120463146002220F060FC66
:1025E00070BD0020A06070BD0020606070BD000064
:1025F00010B5044600688268002A1CBF2146904737
:1026000020680068002808BF10BD20602046FFF742
:10261000EFFF10BD8068002814BFC08A002000B200
:10262000704700002DE9F04F91B00446408CDDF872
:1026300068B040F00400608422841646BBF808208D
:1026400020461F468A461AF087F92784BBF80820DF
:102650000546204651461AF07FF9618C814621F0EB
:1026600004004D45608406D104BF89EA05005FEA95
:10267000004000F087802684BBF8082020465146A1
:102680001AF06AF980462046514627840CF064F817
:102690000068BBF8081042461DF05EFFBBF808005A
:1026A000602828D147F6FF76B14518BFB04522D142
:1026B00020461AF00FFC81B200EBD13000B2451079
:1026C00020461AF007FC81B2B04500EBD13000B2D1
:1026D0004FEA600005D1691C00F101084145B8BF0F
:1026E000884647F6FF71894505D1691C00F101094B
:1026F0004945B8BF894640F24460C2F20000FFF786
:10270000EDFE002842D0C0E9038904600646BBF80C
:10271000080001ACB0802046C6F808A00DF082FA8F
:10272000204631460DF0A6FB46F67511C0F20201B7
:1027300020460DF0F7FA20460DF05EFB46F6DD214F
:10274000C0F2020120460DF02FFB20460021FF229F
:102750000DF06CFBBBF8001020460DF055FBBBF8EC
:10276000021020460DF0D0FADBF80C1020460DF0D8
:10277000F9FA20460DF0CCFADBF81000069020465E
:102780000DF094FB11B0BDE8F08F00BFFEE7000034
:1027900080B540F24460C2F200001421FFF796FEBB
:1027A00080BD00002DE9F04F81B00446408C10F44C
:1027B000FC7F00F02A816FEA01096FEA020B4FF0FB
:1027C000000AE84600250AE00120002800F02081E8
:1027D000608C0135C0F3C500854280F01B81E6683E
:1027E00006EBC50040688101F2D420F07F401CF068
:1027F000E5F810EA090100EA0B0018BF0121B0FA60
:1028000080F040094140DFD156F8356041F61001B3
:10281000304642461DF00EFC002877D1304641F686
:10282000110142461DF006FC00286FD1304641F6EA
:10283000120142461DF0FEFB002867D1304641F6EA
:10284000130142461DF0F6FB00285FD1304641F6E9
:10285000150142461DF0EEFB002857D1304641F6E7
:10286000140142461DF0E6FB00284FD1304641F2EC
:10287000690142461DF0DEFB002847D1304643F295
:102880000C0142461DF0D6FB00283FD1304643F2F2
:102890000D0142461DF0CEFBC0BB304641F20101A6
:1028A00042461DF0C7FB88BB304641F20401424658
:1028B0001DF0C0FB50BB304641F2020142461DF004
:1028C000B9FB18BB304641F2030142461DF0B2FB92
:1028D000E0B9304641F2050142461DF0ABFBA8B914
:1028E000304641F2060142461DF0A4FB70B9304665
:1028F00041F2320142461DF09DFB38B9304643F6A5
:102900000F0142461DF096FB002871D00127002FD1
:1029100060D1304640F60A0142461DF08BFB00288C
:1029200056D1304640F60B0142461DF083FB00288D
:102930004ED1304643F60F0142461DF07BFB002886
:1029400046D1304643F60E0142461DF073FB002887
:102950003ED1304640F63C0142461DF06BFBB8BB11
:10296000304640F63D0142461DF064FB80BB3046D8
:1029700040F63A0142461DF05DFB48BB30464FF43D
:10298000046142461DF056FB10BB304640F645013F
:1029900042461DF04FFBD8B9304640F64101424651
:1029A0001DF048FBA0B9304640F6420142461DF0FA
:1029B00041FB68B9304640F6430142461DF03AFB00
:1029C00030B9304640F6490142461DF033FB48B16C
:1029D0004FF0020A002F3FF4F7AE002000287FF4EA
:1029E000F7AE15E0BAF1000F08BF4FF0010AF1E7AA
:1029F000304643F60E0142461DF01CFB07460028F8
:102A000018BF0127002FE5D183E74FF0000A01E04E
:102A10004FF0030A5FFA8AF001B0BDE8F08F0000C2
:102A200040F29860C2F200000068704770470000F2
:102A3000C0F30410072828BF0720704780B540F274
:102A40005860C2F200001821FFF740FD01201EF07F
:102A5000B5FF80BD2DE9F041F8B1164604460D469C
:102A6000FDF77BFC40F21008C2F20008D8F8002005
:102A70000746204629469047D8F8002005462044BE
:102A800031469047391A8D4288BFBDE8F081204415
:102A9000425D625501358D42FAD9BDE8F0810000F2
:102AA0002DE9F04140F21808C2F200081446D8F8A7
:102AB00000200F4619461D4606469047386040B133
:102AC0002868D8F800203044002190472060BDE8F5
:102AD000F08100202060BDE8F08100002DE9F04F7A
:102AE00087B0DDF840900446B9F1000F1CBF00200C
:102AF000A9F800001F4690468B4634B3BBF1000F87
:102B00004FF0000079D02178002976D0DDF844A07C
:102B10001AF0060F1DD00020012142F2014200E010
:102B20000130235C0D2BFBD801FA03F71742F7D0D5
:102B3000002B18BF0130B9F1000F5ED04FF6FF71C6
:102B4000A9F8001007B0BDE8F08F002007B0BDE87D
:102B5000F08F0026012F8DF81B60059634DB20785E
:102B600090B32046002100260022B1FA81F10492A0
:102B7000490904AA3BB201920391594642460DF11C
:102B80001B05CDF800A002951FF06CF9BDF81010E0
:102B90000E44C8B1059B227818440A2A059018BF34
:102BA0000D2A11D0225C0D2A18BF0A2A0AD0781AE1
:102BB00007B2012F08DB0599605C002804EB0100D7
:102BC000D2D101E001300590059880B940F218009B
:102BD000C2F20000026805A920469047B9F1000F33
:102BE00005D001465846002213F018FB0646B9F1FD
:102BF000000F18BFA9F80060059807B0BDE8F08F76
:102C00002DE9F04381B000281CBF1446002A02D1F0
:102C100001B0BDE8F083054620468846FDF79DFBE0
:102C20000028F5D006462846FDF797FB074640F2F8
:102C30001000C2F2000002682846414607EB060970
:102C400090478119894507D3AA1900BFEB5DD35579
:102C5000013FF3198B42F9D228442146324616F03F
:102C600077FD01B0BDE8F083A0F59C4145F2A612C6
:102C700091423CBF01207047202802BF002181F013
:102C8000010070474BF6A20C0122C0F2020C00BFFB
:102C9000D11FB1FA81F14FEA511104D01CF8023072
:102CA00001328342F4D181F00100704723290AD117
:102CB00003780022022B08D0012B09D0002B04BF7F
:102CC0000122027006E0002204E00270012201E00D
:102CD000002202700378012B06D120291CBF01209D
:102CE0007047022101220170104670472DE9F04122
:102CF00082B004460B46CDE9001100200021224697
:102D00004FF000081FF09EFB451C0746284616F0B2
:102D1000FDFA58B100F80780019B29462246064675
:102D20001FF090FB304602B0BDE8F081FEE70000E6
:102D30002DE9F047002A04BF0020BDE8F087DDF848
:102D400020909A4614460F46804606E064F0010043
:102D50003044441C05EB0A0774B1660806FB0A758B
:102D600040462946C8470128F0DAB0F1FF3F344613
:102D7000F2DD2846BDE8F08700252846BDE8F0874B
:102D80002DE9F04F85B09246DDE91225149C0DF136
:102D9000380999E8C0028B46A107804635D44DB169
:102DA000E00708D014F00C0018BF012040EA090029
:102DB0002D1A00E00025974219D21F2F17D8F9438A
:102DC00011444446C7F11F08F019414538BF8846F1
:102DD00008F1010130229946FDF7ADFA129A4B46EF
:102DE000DDF8409008EB0700A046149C471CE00764
:102DF0000BD0AF4209D21F2F07D8302039460137F8
:102E0000AF42705438BF202FF8D3E00629D511986F
:102E100061050CD45FB1974218BFAF4207D1791E4C
:102E20000A4618BFBA1E102818BF0A4617461028AF
:102E30000BD114F0200103D1202F01D2782009E01A
:102E400019B1202F01D2582004E0022804D11F2FED
:102E500002D86220F05501371F2F9EBF3020F05559
:102E600001371F2F11D8B9F1000F03D02D20F055D5
:102E700001370AE0600705D4200742BF2020F05543
:102E8000013702E02B20F0550137404659465246A3
:102E9000CDE900670295039400F0A6F805B0BDE8FF
:102EA000F08F00002DE9F04F91B01F461646DDE986
:102EB0001CB3DDE91AC2DDF87C90BCF1000F08BF3D
:102EC00029F01009BCF1000FCDE9076704D119F40E
:102ED000806401D000241EE009F0200484F0610425
:102EE00004F1F60800250DF1240A00BFBCFBFBF736
:102EF000464607FB1BC404F0FE0EBEF10A0F38BFA6
:102F0000302626446C1CDC450AF8056003D31F2DCF
:102F10002546BC46EAD3CDE9022B0493DDE907231D
:102F200009AFCDE900741E9FCDF818900597FFF703
:102F300027FF11B0BDE8F08F2DE9F04F93B0DDE928
:102F40001C65DDF89080209C0DF11C0C56EA0507ED
:102F500008BF28F010088CE80F0027B918F4806724
:102F600001D0002227E008F02000219F80F06100BE
:102F700000F1F6094FF0000A0DF12C0B30462946FE
:102F800022463B46FDF786F900FB146202F0FE0381
:102F90000A2B4B4638BF3023361B13440AF101027B
:102FA00075EB07060BF80A3005D3BAF11F0F9246EE
:102FB00006460D46E2D30BA8CDE900021E9807ABEA
:102FC000CDE902042298239F04900FCBCDF81880FE
:102FD0000597FFF7D5FE13B0BDE8F08F9A4238BFD2
:102FE00088547047704700002DE9F04F83B0DDF83A
:102FF0003C80DDF834A0994615468B4606465FEACC
:103000008870144610D10E982C4682450CD20E982A
:103010002A46A0EB0A0700BF202059464B46541C05
:10302000B047013F2246F7D1BAF1000F08F0020085
:103030000195029010D00C98A0F1010818F80A0030
:10304000594622464B46AAF10105671CB047002DA0
:103050003C46AA46F2D100E02746029888B1019981
:10306000DDF83880781A40450DD24D42202059466F
:103070003A464B467C1CB047281940452746F5D3B5
:1030800002E03C4600E03C46204603B0BDE8F08F3D
:10309000024659B10278002A024607D04942024648
:1030A00012F8013F013101D2002BF9D1101A7047FB
:1030B0002DE9F04F91B08A461A9942F6E57614460A
:1030C000C0F200064FF0000B4FF000080E91109375
:1030D000BAF1000F18BF064610990878002800F0D2
:1030E0007482252809D0EFE0514642462346B04776
:1030F0001098A84601301090EEE7481C4FF00009E8
:10310000109004E0481C10900020002822D1109953
:103110000878A0F12002102A4FF00100F5D8DFE86E
:1031200002F00D0C0C090C0C0C0C0C0C0C100C13FC
:103130000C0C160049F01009E4E7E6E749F008092D
:10314000E0E749F00409DDE749F00209DAE749F070
:103150000109D7E7109D2F783846FEF79DFA18B180
:1031600010A8FEF779FA12E02A2F0FD10E9951F824
:10317000040B00280D900E9144BF41420D91002890
:1031800048BF49F00209681C109001E000200D9032
:10319000109D28782E2819D1681C10906F7849F45A
:1031A00080693846FEF778FA20B110A8FEF754FA85
:1031B00005460CE02A2F09D10E9951F8040B0E9107
:1031C00020EAE071A81C0D46109000E00025109840
:1031D000017868394FEA7101092917D8DFE801F051
:1031E00008127B1616160516160549F480790BE0B1
:1031F000411C10914178682940F07F8049F0C00956
:10320000023002E049F4007901301090109A1078F1
:10321000A0F12503532B00F257801021DFE813F0B3
:10322000A7005400540054005400540054005400AB
:1032300054005400540054005400540054005400EE
:1032400054005400540054005400540054005400DE
:1032500054005400540054005400540054005400CE
:1032600054005400540054005400540054005400BE
:10327000540054005400640054005400540054009E
:10328000540054005400AC00540054005400540046
:1032900054005400540054005400AB003C0157004B
:1032A000540054005400540057005400540054007B
:1032B000540054007300640054005400750054001E
:1032C000570054005400AC0008F101050CE729F048
:1032D00010090A2150E0411C109141786C290FD14E
:1032E00049F44079023090E712F8010F49F48879E7
:1032F000562808BF109210213EE049F0800985E76A
:1033000049F4807982E7082136E00E98294650F882
:10331000047B002D0E9008BF4FF0FF313846FFF7B9
:10332000B7FE09F4806BA842294638BF0146BBF1BD
:10333000000F08BF014619F002000C9040F0D48045
:103340000D98814280F0EC800A97A946421C471AEA
:1033500000250B9208EB0502202051462346B0477A
:103360000135AF42F6D10A9FA8444D46DAE008F194
:1033700001052520B8E602211098007840F00802E7
:10338000582A08BF49F0200964281CBF692829F081
:103390000C095FEA495248BF29F00109562814D0A8
:1033A000692818BF642822D15FEA89502FD45FEAC8
:1033B000C9504ED45FEA496000F184800E985FEAFC
:1033C0000962006848BF00B27EE00E99A4EB0802D3
:1033D00051F8040B0E9141680F680AEB08010F9732
:1033E000036830460097FFF763FE804494E05FEA8D
:1033F000895037D45FEAC95071D45FEA496078D404
:103400000E9B5FEA0962186848BF80B273E00E98AD
:10341000073020F007000346426853F8080BCDE957
:10342000041B10EBE2700D990E9342EBE27380EAFD
:10343000E27083EAE273CDE90719D70FCDE9000303
:10344000304651464246234606950297FFF774FDE3
:1034500061E00E9A52F8040B00280E92024648BF13
:10346000424238E00E98073020F0070003464268D9
:1034700053F8080BCDE9041B0D99CDE900020E931A
:10348000CDE9071930465146424623460695CDF808
:1034900008B0FFF751FD3EE019F0020926D10D9862
:1034A00002286CD300F1010B4542002708EB07020C
:1034B000202051462346B0470137E8190130F5D1A5
:1034C000B8445EE00E9800780246002848BF4242A9
:1034D0000E9B04330E93C00FCDE900200FE00E9A2F
:1034E00052F8040B0E9208E00B911BE04FF0010B19
:1034F00047E00E9B187804330E93CDE9000B0D982E
:10350000CDE9021504903046514642462346CDF897
:103510001490FFF7C7FC8046109801301090DBE54F
:10352000481C0B903878A0B107F101090BE000BFEF
:10353000C0B251464246234608F10107B04719F888
:10354000010BB84630B1BBF1000FF1D00DB1013D18
:10355000EEE747460C98A0B30D980B99814230D204
:10356000451A4FF0000B00BF202051463A46234633
:1035700007F10108B047013D4746F5D1CCE74FF0D0
:10358000020B0E99424611F8040B234608F101077D
:103590000E915146B047B9F1000F12D00D988345F6
:1035A0000FD2A0EB0B054FF0000B00BF20205146BF
:1035B0003A46234607F10108B047013D4746F5D199
:1035C000AAE7B8464FF0000BA6E742460020514656
:1035D0002346A04528BF621EB047404611B0BDE853
:1035E000F08F000010B54FF0000448B100F018F85B
:1035F0000C28014698BF0C21B0F5004F38BF0C468F
:10360000204610BD20F00300704700004A1E114202
:1036100004D108440138494208407047FEE70000E1
:103620004A1E114204D108440138494208407047FB
:10363000FEE700002DE9F041044608680D4601212F
:103640006186C0B14BF2F1780026C0F20208002773
:1036500006E000BF01370136B0B255F8200058B17E
:10366000017849B14146FCF77FFE0028F2D1608E17
:1036700001306086EFE70027BDB2208E854208BF8B
:10368000BDE8F081A06A18B115F0FCFE0020A06230
:10369000E06A18B115F0F6FE0020E062E80015F0CF
:1036A00035FEA06280B1680015F030FEE06268B1BE
:1036B000A16A002908BF0F46B9B2490016F09CF86C
:1036C0002786BDE8F08100BFFEE700BFFEE70000EF
:1036D0002DE9F04F85B09246427A0C4602F0070180
:1036E00040F2AC7940F2EC58022956464FF01301F3
:1036F00008BF2646C2F20009C2F200085445C8BFFE
:10370000A24601EB4A02D9F80070D8F8001040F246
:10371000B07BC2F2000B22F003057A1ADBF800102E
:103720002A448A4204D2796821F0004179603BE062
:103730008D42039009D9284615F0E8FD20B10746CF
:10374000406840F000402DE0FEE7DBF80010CDE9D6
:1037500001468A421FD94DF24D144FF2AD37C0F2E7
:10376000000404AEC0F200074FF0FF300490204682
:10377000314600220BF0DEFD3846314600220BF0C8
:10378000D9FDD9F80000D8F80010401ADBF8001075
:1037900028448842E8D8D9F80070DDE90146786805
:1037A00020F000407860039831B2224601F03CFCE2
:1037B000386078680121B0F1FF3F61F31E00786046
:1037C000A7F80CA0FE8108DDD9F8000000F1100177
:1037D0002844B960C9F8000002E007F11000B860A1
:1037E000384605B0BDE8F08FF0B583B090F83C20C6
:1037F000002302F00302012A8DF80B308DF80A3005
:103800008DF8093042D0022A40F0808040F22C0C22
:10381000C2F2000C9CF80030022B40F26463C2F24A
:1038200000031FD0878C46F6174607EB4707C1F207
:10383000C1667F02FF08A7FB067690F826003327B3
:1038400000FB07F0B7081F804CF6CD47CCF6CC47FD
:10385000A0FB0707380940F26667C2F2000738701C
:103860008CF8002040F26662C2F2000292F800C0BA
:1038700018880DF10A020DF109070092CAB20DF184
:103880000B036146019709F0EFF878E040F22C0352
:10389000C2F200031F78012F22D0878C46F617460C
:1038A00007EB4707C1F2C1667F02FF08A7FB067658
:1038B00090F82700B708332600FB06F040F2646654
:1038C000C2F2000637804CF6CD47CCF6CC47A0FBC1
:1038D0000707380940F26767C2F2000738701A70AC
:1038E00040F2646040F26762C2F20000C2F200027D
:1038F000008812780DF10A030DF109070093C9B28F
:103900000DF10B03019709F0AFF838E040F22C04F9
:10391000C2F20004237840F2666E40F2676C934274
:10392000C2F2000EC2F2000C17D090F826303325F8
:1039300003FB05F390F827004CF6CD46CCF6CC46B9
:10394000A3FB063700FB05F03B098EF80030A0FB17
:10395000060318098CF80000227001EB41009EF864
:10396000001040009CF800200DF10A0380B20DF118
:10397000090700930DF10B03019709F075F89DF805
:103980000B009DF80A109DF809200EF095FE03B07B
:10399000F0BD000080B540F26860C2F20000012175
:1039A000017040F2D440C2F20000FEF767FD01460C
:1039B00040F2E040C2F20000006811B11EF0EEF8E3
:1039C00080BD1EF0DBF880BD10B5044690F83E00C7
:1039D00010F0020107D1A28F2AB14FF6FF739A426D
:1039E0001CBF013AA287A28F12B9C9B9626BBAB1E2
:1039F000D4E90D23002AC3F10003E36208BF10BD20
:103A000011B9216B4942E162D4E9091380F0020047
:103A100084F83E00E069E161C4E90902636310BD16
:103A200040F2D440C2F200002146FEF7A1FDFFF7AC
:103A3000B1FFE16800291CBF20468847204615F0E9
:103A400021FD10BD2DE9F04740F2C478C2F2000814
:103A5000D8F800001DF0F4FE40F26969C2F20009D6
:103A600099F80010044681F0010089F8000040F246
:103A7000D440C2F20000FEF701FD002863D040F2FE
:103A8000686740F2D4450646C2F200074FF0000ACC
:103A9000C2F2000507E000BF28463146FEF708FDE8
:103AA000064600284FD096F83E0099F80010C0F363
:103AB000800287F800A08A423ED000F0FB0242EA72
:103AC0008101020786F83E101BD4F16A002918DC38
:103AD000091916D4C00709D1316939B13046884770
:103AE000F169726A01441044F1617062B1680029A1
:103AF0001CBF3046884796F83E0040F0080086F824
:103B00003E00F06A0019F06216D4B16A8842C8BF5C
:103B1000F162B16930468847326A904205D07268D6
:103B2000014630620AB130689047D6E90A01814205
:103B3000A4BF3046FFF748FF38780128ACD12846AB
:103B4000FEF79CFCACE71DF081FEC8F80000BDE864
:103B5000F0870000F0B581B0144690B106460F46DC
:103B600018F0ACFA78B10546006870B130463946B5
:103B700018F0AAFA58B12B68A1B202462846984715
:103B800006E0204604E0204602E0204600E0204611
:103B9000C0EA040001B0F0BDB0B5044640680D466F
:103BA00000281CBF2946FFF7F7FF2268002A08BF3C
:103BB000B0BD204629469047B0BD000080B589B20F
:103BC0000CF070FD80BD000080B589B20CF0ACFD3A
:103BD00080BD0000B0B50D46044600F035F800B1D8
:103BE000FEE7284600F020F9616808440430606070
:103BF000204600F035F82046B0BD000010B50C4658
:103C000000F012F904F110020021904228BF0121B6
:103C1000084610BD08387047B0B582B00546084662
:103C20000C4600F001F901A96A461EF09BFFDDE990
:103C30000032284621460AF0F3FF02B0B0BD000072
:103C4000406800F00100704780B500F0EDF8B0FA70
:103C500080F0400980BD0000406800F0020070471D
:103C600010B5044600F07EF8046010BD70B582B057
:103C70000D46044600260196009669B101A96A46E0
:103C800028461EF087FF0198082807DC01A96A462C
:103C9000204620F03BF8064616B90EE0002666B135
:103CA000304600F0C1F8A84201D200BFFEE7DDE9CE
:103CB0000032204631461FF0B7FD304602B070BDDD
:103CC00010B50446FFF7CCFF00F096F8204600F050
:103CD0008DF810BD10B5044600F044F800F092F8DD
:103CE000204600F09BF810BD70B5064608460C460D
:103CF00000F038F850B10546FFF7A2FF78B1204632
:103D0000FFF7A2FF18B100BFFEE700BFFEE7304695
:103D1000294600F057F820462946FFF75BFF20466A
:103D200070BD000070B5064608460C46FFF794FFCC
:103D3000002804BF204670BD204600F039F868B165
:103D40000546FFF77DFF58B13046294600F03AF8A6
:103D500028462146FFF73EFF70BD00BFFEE700BFCB
:103D6000FEE70000B0B50446FFF76EFF08B100BFE4
:103D7000FEE7204600F088F80546204600F054F89B
:103D8000011F28461FF02CF9B0BD0000002904BF18
:103D90000020704752B110B50C4600F077F820466D
:103DA000FFF798FF204600F06FF810BDFEE7000017
:103DB00010B50446FFF750FF00281CBF206810BD57
:103DC000FEE70000B0B582B0054608460C4600F09C
:103DD0002BF801A96A461EF0C5FEDDE9003228462F
:103DE00021461FF021FD02B0B0BD0000416841F046
:103DF0000101416070470000416841F002014160EB
:103E000070470000416821F00201416070470000E6
:103E1000426802F00302114341607047416821F09B
:103E20000101416070470000406820F003007047C6
:103E3000F0B581B00C46054600F026F8211F1FF0B2
:103E4000CFF8064600F020F804210746FFF7DEFB16
:103E5000874200D0FEE72846FFF7E6FF001B011F60
:103E60003046FFF7D5FF3046FFF7DEFF0B2809D9B4
:103E700028462146FFF7CCFF3046FFF721FF3046AA
:103E800001B0F0BDFEE700000830704770B5044691
:103E9000084616460D46FFF7D3FEB8B12846314610
:103EA000FFF7ACFE002808BF70BD28463146FFF77B
:103EB000BFFF06462846FFF7D3FE3046FFF79CFFBC
:103EC00020463146FFF7A8FE70BD00BFFEE70000A8
:103ED00070B50446084615460E46FFF7B1FE00B120
:103EE000FEE730462946FFF789FE002808BF70BD6F
:103EF00030462946FFF79CFF0546FFF783FF204623
:103F00002946FFF7F1FE01462046FFF785FE70BD0A
:103F100010B582B048F64004C4F204044FF0010C1E
:103F20002046002114224FF47A73CDF800C0FCF72C
:103F300041FF2046FDF79EF802B010BDB0B582B03B
:103F4000044613F079FD054613F0BAFD38B1208F11
:103F5000E086204619F066FA012002B0B0BD204686
:103F600011F03CFEF0B1204611F004FD218FE08EEF
:103F700081420BD02087019001AA20461C2112F01B
:103F800045F80128E9D1204619F04CFA284613F0EB
:103F9000A3FD042809D1204617F0B6F8002112F03D
:103FA00063FD02E0204611F077FE012002B0B0BDB3
:103FB000B0B512F027F8044617F0F6F8054620468B
:103FC0000DF0B4FB0146284601221CF0F3FEB0BD03
:103FD000C0B2C00970470000C0F3801070470000F5
:103FE000C0B2C00970470000C0F300207047000055
:103FF000C0F3C00070470000C0F3401070470000DD
:10400000C0F3402070470000C0F30030704700004C
:10401000C0F30010704700002DE9F04F85B00C464A
:104020000021054616F094FF30B32846214600F0E3
:10403000A7FA2846214600F06BF8284618F0A2FAA5
:104040008146284618F0E6FB0490284617F0C2FE89
:104050000646284618F00CFF0746284618F00AF9CD
:1040600042F2D1718F4282460DD1688C012100F459
:10407000806081EA902B08E020461C2115F0BCFBF3
:1040800005B0BDE8F08F4FF0000B701EB0FA80F065
:104090004FEA5018284616F0CFFF0646284609F08A
:1040A00007FEA168236927680246CDE90031304642
:1040B00059464B46CDF80C8002970AF0CFFB20837F
:1040C00042F2D1704FF0000982454FF0000605D151
:1040D000688C012100F4007081EA5026284616F011
:1040E00093FF0746284609F0E7FDE16863696568C4
:1040F000CDE90031049B024638463146CDF80C909C
:1041000002950AF0ABFB608305B0BDE8F08F0000BC
:104110002DE9F04F81B08946064609F007FD824639
:10412000304616F089FF0090504600F0E3FFC9F8D2
:104130001000400015F020F9D9F81010C9F800005F
:10414000480015F019F9D9F81010C9F8080000292D
:104150004FD040F2010B41F69A72C0F2060B4FF0BD
:10416000000811E020B2D9F8081041F69A72002830
:104170004FF00000D8BF044621F81840D9F81010BD
:1041800008F10108884534D23AF818009042F5D178
:10419000304616F0EFFE00284EF20104E2D0002572
:1041A0004EF2010406E000BF3046013516F0E2FE93
:1041B0008542D7D23046294616F0CAFE59460746F0
:1041C00018F0DAFE0028EFD1384609F0B9FC0128D2
:1041D000EAD1384609F0AEFC8045E5D1384618F002
:1041E00079FE21B28142DFDC384618F073FE0446C6
:1041F000DAE74FF00008D1B1002041F69B7241F69A
:104200009A7C002700240BE0D9F80850634514BFBE
:1042100025F8103035F810301F440130814208D0A5
:104220003AF910309342EFDB23449C1AF5E700245F
:104230000027304618F0A6F9D9F81010009B4A1E46
:1042400002FB1030C01B02B2002AD8BF4046E9B1C1
:1042500083B24FF0FF37002241F69B764FF0000803
:1042600003E000BF0132914212D03AF91250B54238
:10427000F8DBAF1B0FFA87F8D9F8085008FB03F7F3
:10428000B7FBF4F725F812701746EBE74FF0FF374E
:10429000002F0BD481B2A4EB080202FB01F1D9F884
:1042A0000820B1FBF4F1401A22F8170001B0BDE874
:1042B000F08F00002DE9F04F83B00021002204466A
:1042C0004EF2010A1AF02EF8204617F095FE054628
:1042D000204618F0B7FA4619204618F0D5F80544DC
:1042E000204617F0C5FC304428440FFA80FB2046D6
:1042F000029516F03FFE002845D00546019630B2E3
:1043000001264FF00009C0F204064EF201080090A9
:1043100010E000BFB7F91A00B4F916100FFA88F2CE
:10432000401A00F101089045B8BF904609F1010913
:104330004D452AD0A0683146006850F829703846AB
:1043400018F01AFE0028F1D1384619F0CFF80028ED
:10435000E0D1384617F0B2FC0328DBD9384618F014
:10436000B1FD0028E2D107F114000FFA88FA0CF031
:10437000B7FA0099014451454EF2010A0199A8BFCC
:1043800000EB0108D2E74EF2010802981FFA88F20A
:10439000404401B25945D8BF5846524508BF584617
:1043A00000B203B0BDE8F08F2DE9F04F83B00021DB
:1043B000002204464EF2010B19F09EFF204617F032
:1043C0001BFE0546204618F09FF94619204618F0B6
:1043D00009F94719204617F059FCB91908440FFA92
:1043E00080F9204616F0C6FD0546204617F0D2FC9F
:1043F00001284FD1002D019700F09880029630B22D
:1044000001264FF0000AC0F204064EF201080090A7
:1044100010E000BFB4F91800B7F914100FFA88F2D1
:10442000401A00F101089045B8BF90460AF1010A10
:1044300055457DD0A0683146006850F82A7038464E
:1044400018F09AFD0028F1D1384619F04FF80028ED
:10445000E0D1384617F032FC082806D8012101FACD
:1044600000F040F249110842D4D1384618F022FD3C
:104470000028DBD107F114000FFA88FB0CF0BEFA1C
:104480000099014459454EF2010B0299A8BF00EB77
:104490000108CBE7002D02964DD038B240F2010A58
:1044A0000026C0F2040A4EF20108019700900EE0C7
:1044B000B7F91800B4F914100FFA88F2401A00F195
:1044C00001089045B8BF90460136B54235D0A06886
:1044D0005146006850F82670384618F04DFD002807
:1044E000F2D1384619F002F80028E1D1384617F029
:1044F000E5FB072805D8012101FA00F010F0930F21
:10450000D6D1384618F0DEFC0028DDD107F11400C2
:104510000FFA88FB0CF072FA0099014459454EF2EB
:10452000010B0199A8BF00EB0108CDE74EF201088D
:104530000198404403E04EF20108029840441FFAFB
:1045400088F1594508BF084601B282B24945D8BF33
:1045500048465A4508BF484600B203B0BDE8F08F50
:1045600010B50446006814F077FF606814F074FF1B
:10457000A06814F071FFE06814F06EFF10BD000039
:104580002DE9F04F81B08846064609F0CDFF8146FF
:1045900000F0B0FDC8F81400400014F0EDFED8F8AB
:1045A0001410C8F80400480014F0E6FED8F81410FF
:1045B000C8F80C00002950D040F2010A41F69A7266
:1045C000C0F2060A4FF0000B12E000BF20B2D8F88C
:1045D0000C1041F69A7200284FF00000D8BF044634
:1045E00021F81B40D8F814100BF1010B8B4534D285
:1045F00039F81B009042F5D1304616F0BBFC00287C
:104600004EF20104E2D000254EF2010406E000BFA4
:104610003046013516F0AEFC8542D7D230462946E9
:1046200016F096FC5146074618F0A6FC0028EFD17C
:1046300038460AF00DF80128EAD138460AF002F8A7
:104640008345E5D1384616F065FD21B28142DFDCB5
:10465000384616F05FFD0446DAE7E9B1002041F67E
:104660009B7241F69A7C0025002704E02B199D1AC5
:104670000130814212D039F910409442F6DAD8F86C
:104680000C30644504D133F810301F44F0E700BF0C
:10469000274423F81040EBE700270025304618F0A8
:1046A000B9F80446304616F0AFFCD8F81410E9B15A
:1046B0004A1E02FB14000022C01B00B241F69B738D
:1046C00020EAE07080B202E0013291420ED039F966
:1046D00012709F42F8DBFF1A3FB2D8F80C6007FB5C
:1046E00000F7B7FBF5F726F81270EDE701B0BDE86B
:1046F000F08F000010B582B0B1F800C00389B1F8A6
:1047000002E044899C44ADF800C004EB0E0CB1F803
:1047100004E0C9887344ADF8043021444369ADF81E
:1047200006106946ADF802C0984702B010BD0000FF
:104730002DE9F04182B00446006B0D4608B10078C7
:1047400008B9606B20B3606B58B140F22400C2F22C
:104750000000066820461CF063FEB047616B88428B
:1047600018D2206BC0B140F218080020C2F2000835
:1047700001AF0190206B0199465C2EB1D8F8002062
:1047800039469047A842F5D1002E18BF012604E013
:10479000012602E0002600E00126304602B0BDE816
:1047A000F08100002DE9F04F8FB00990C87840F6F5
:1047B000992CDDF870B010F0010EC0F2010C40F63B
:1047C000591091460A91C0F20100614608930E9279
:1047D000049008BF0146079105E000BF4FF0000AB2
:1047E0005FEACA7056D0BBF80200DBF81010BBF8C5
:1047F0000420A0EB0202A9B1DBE90310002601F1BD
:104800000807002307E000BF3988521A01368642A4
:1048100007F1140707D2397AC907F5D1B9880B44D3
:10482000F4E700BF0023DBF810000028D6D00027F3
:1048300000204FF0000A06E0DBF81010013088423B
:1048400007F11407CCD2DBF80C1039440C7CE507D7
:10485000F2D115B21EB2B1F9048095FBF6F5CE681F
:1048600006FB05F52EB2B1F90650AE42B8BF35468B
:104870004545B8BF4546B5421EBF44F001040C741F
:104880004FF0010ADBF80C10521B39448C890D8162
:104890001B1BD1E740F66D3040F67931C0F20100C4
:1048A000C0F20101BEF1000F08BF01460498039158
:1048B00008BF60460490099817F084FA80460021EA
:1048C0000A98ADF83610ADF834100DF136010078C5
:1048D000BBF90220BBF9083000911A990DAF01977E
:1048E0001EF080FBB8F1010F0CD10A98C07810F0CF
:1048F000010007D0099816F09FFBBDF83610084458
:10490000ADF836000998494616F022FB0A9D0028AA
:1049100000F0398104460E980899884200F03381EE
:10492000BDF834000126C0F206060EAF0590CDF8A2
:10493000188000BF2046314618F01EFB002840F0CA
:104940001481204617F0DEFB98B1DBF8100070B13F
:10495000DBF80C000021083050F8082CA2420DD0E2
:10496000DBF810200131914200F11400F4D300274C
:1049700005E0608C20F4C06060842EE00788E87851
:10498000618CC0074FF4806008BF4FF4007004F1E1
:1049900014060843079960843046884780B28742EE
:1049A0001BD0204618F03EFD0DF12C09484631463B
:1049B0000BF048FF39B2039A304690472046292130
:1049C0004A4611F023FB204616F0EEFB2221224638
:1049D00011F01CFB204618F025FD6878012812D044
:1049E00002281BD1BBF900000499013020F0010618
:1049F00004F114008847301A00EBD0704710B8F16A
:104A0000010F0FD01BE00499BBF8006004F1140003
:104A10008847371AB8F1010F04D010E00027B8F129
:104A2000010F0CD1E87810F0010008D0079904F1CB
:104A300014008847BDF83610081AADF83600204635
:104A400018F0C4F98246204618F0D8F9804620466E
:104A500018F040FA0646204616F05CFB0AF4C04106
:104A6000B1F5005F14D12AF4C041B1F5FA6F0FDC43
:104A7000B1F57A7FC8BFC1F57A7101FB06F148F242
:104A80001F52C5F2EB1251FB02F14A1102EBD17A2F
:104A900008F4C041B1F5005F14D128F4C041B1F56C
:104AA000FA6F0FDCB1F57A7FC8BFC1F57A7101FBEF
:104AB00000F048F21F51C5F2EB1150FB01F041111B
:104AC00001EBD078A14639F8140F0A9A189DBDF869
:104AD0003660D27855443346281AB9F8021012F0DD
:104AE000010208BF3B46C5181998002A08BF37467F
:104AF0004044401A074445EA0700000417D0204606
:104B000018F090FCA08A218B2844A0824819E18AE1
:104B10002083C819618BE082C8196083204618F091
:104B200081FC29B23AB22046012318F02DFDDDF8B0
:104B30001880B8F1010F09D10A98C07810F001006F
:104B400004D01B980599301A401A07E00799484687
:104B500088471B9931440844059908440A9D012659
:104B6000ADF83600C0F206060EAFE8783A46C0F35C
:104B70008001099809F030FB28B104460E98089985
:104B800088427FF4D7AE0FB0BDE8F08F2DE9F04F2B
:104B90008FB0002900F09581044600680D4600287A
:104BA000218318BF14F06EFC05EB4500062101EBD4
:104BB000400014F0ABFB2060B0B100EB450100EB0E
:104BC000850202310432012DC4E90102E1600CD1F9
:104BD000B4210170D4E902014FF480320A6000214F
:104BE00001800FB0BDE8F08FFEE7680002940095E9
:104BF000AC00851CA80014F0BFFB834600EB450009
:104C000022B20EAE04900DF13601304600F066F986
:104C1000BDF938000025801009903046059500F058
:104C200053F9002800F0C18000200EAF0DF13606C8
:104C30000DF124080DF114090025039022E000BFB6
:104C400029B20DF1140C2BF811000498DDF808A01E
:104C500020F811409CE80D101044184400EB0C02A1
:104C60000120DAF8043005445A54DAF804200134FB
:104C7000535C38461B015354039400F025F9002877
:104C800000F093804FF0000A3846314600F02EF9CC
:104C9000384600F019F980B1BDF8380001B200F0D3
:104CA0000300891048F82A1049F82A000AF1010A7D
:104CB000BAF1040FE8D14FF0040A039CBAF1040FD3
:104CC00073D109980C998842BAD00A99884225D1A3
:104CD0000B9B29B2059A9842049B2BF8110023F8EC
:104CE000114041D1DDE9063CDDF808A01A44DAF8AC
:104CF000043062445A54DAF804200138535C1B0132
:104D00005354691C09B2049A2BF811009DF8200035
:104D100022F8114000F10C0245E000BF29B2049BCB
:104D2000DDF808A02BF8110023F81140DDE9054259
:104D3000DAF804C001380CF801400192DAF80420D6
:104D4000DDF81CC0545CDDF820E024015454691CDB
:104D500009B2039C2BF81100039823F81100019865
:104D600060447044021D1EE0DDF808A0DDF818C0A4
:104D7000DAF8044062446254DAF804200138545CE2
:104D8000DDF81CC024015454691C09B2DDF820E090
:104D90002BF81100DDE90302039C22F811000CEB53
:104DA0000E0000F1080202205BE728B2DDF800E007
:104DB00040F2D321431E0EFB01F23BF91310B1EB7D
:104DC000A22F4FEAA22106D1049F37F9133099424E
:104DD00001D1029C1CE06FF39F22B2F5007F03D843
:104DE00002FB02F2D20B06E0C2F5806202FB02F285
:104DF0000F23A3EBD232049B029C2BF8101023F854
:104E00001010616801350A5461680A5C12010A5485
:104E100028B2022818DB0BEB8E01ABF1040200BFB5
:104E200031F810302FB2049E2BF8173032F81030C2
:104E3000013526F8173063681E1816F8026CDE5527
:104E4000831E0138002BEBDC29B2D4F80CC0002003
:104E50000129ACF8000031DB0BEB8E00A268831D4A
:104E60004FF0000E002405E026460EF1010E8E42A2
:104E7000344623DA0FFA8EF58C422CF815403BF8B5
:104E8000140022F81500EFDA049830F814601FFAC5
:104E90008EF08642E8D100BF32F815603BF91470FD
:104EA000BE42B8BF3746661C8E4222F81570DCDA67
:104EB00033F8144084423446EED0D6E7584614F016
:104EC000CBFA0FB0BDE8F08FB0F90010B0F90220B6
:104ED00000208A42D8BF01207047000000230280D2
:104EE0004380C2F10100088070470000B1F9002042
:104EF000B0F802C0002A0ADD0388ACEB030302EB22
:104F0000430205320A8001884A1E014602E002EB94
:104F10004C0203320A804188013141807047000011
:104F2000B0B5022A2AD9C1F3C42CC0F3C423C1F3FB
:104F3000451EC0F345149C44BCF11F0F00F01F0533
:104F4000744401F01F004FF01F0328BF9C463F2C04
:104F500028BF3F2428441F2838BF034603F01F0002
:104F600040EACC2004F03F0340EA4310FF2A08BF88
:104F7000B0BD80B289B20DF003FC01460846B0BD59
:104F800010B5022A9CBF084610BDC0F3C42CC1F363
:104F9000C42300F01F0EC0F34510C1F3451403FBFA
:104FA0000CFC04FB00F001F01F036FF01F0403FB77
:104FB0000EF304EA50002CF01F04A40144EA53133A
:104FC000FF2A184408BF10BD89B20DF0D9FB10BDEF
:104FD00080B5022A26D9C1F3C42CC0F3C423C1F37F
:104FE000451EACEB030323EAE37CC0F3451300F05A
:104FF0001F00AEEB030E01F01F03181A20EAE07049
:105000002EEAEE7300F01F0040EACC2003F03F03CD
:1050100040EA4310FF2A08BF80BD80B289B20DF07C
:10502000AFFB0146084680BD484080EA62007047F9
:1050300070B582B0044610F0E5FF0546204610F03A
:10504000C5FF0646284616F0AFF80A2E04460BD0D8
:105050002B2E33D120461BF0A5FE01462046002210
:105060001BF0A8FE02B070BD01A9284616F010F989
:10507000284615F0E1FF0546204616F0B3FE05EB85
:10508000D572BDF90410012808BF494201EB620046
:1050900090FBF5F00025010458BF05B220461BF037
:1050A00081FE06462046294601221BF083FEB542BA
:1050B00004D020461C21002210F0A8FF02B070BDD1
:1050C00010B50446C0E9020010302821FBF73AF978
:1050D00004F13400002100BF2022034643F8044FAE
:1050E000013AFBD10131092900F1800008BF10BD50
:1050F000F2E70000811E4FF0FF3041F6FF7200BF63
:1051000031F8023F01309342FAD17047B0B582B016
:10511000044690F8500000F001028A4228D000F0C6
:10512000FE00002918BF012108446D4684F8500094
:1051300004F1440128460BF0C7FB606ABDF800206B
:10514000818AC08ABDF802300A44ADF800201A18DE
:10515000BDF80430ADF80220BDF806201944104413
:10516000ADF80410ADF806002046294618F08EF977
:1051700002B0B0BD80B588B211460DF0C9F980BD4E
:105180002DE9F04F8BB00E46C97A032903D20120D6
:105190000BB0BDE8F08F1746326931898346184657
:1051A000FDF78EF850B10446007D00F01F0528463B
:1051B00011F0A0FD30B14FF0060A0CE000200BB05A
:1051C000BDE8F08F284611F089FD4FF0040A002851
:1051D00018BF4FF0050A226A52B1584639461EF0F0
:1051E00079FF204601F0B2FB01200BB0BDE8F08F43
:1051F000A069002851D009A839460BF0FFFA35887C
:105200001DB97088B0F5807F28D038460BF008FCB7
:10521000804638460BF076FB024670882BB206F1CA
:10522000040C009009A84146CDF804C0FCF7B4FC7A
:105230003888BDF824107A88BDF826300144ADF8CE
:1052400024109918BDF82830ADF82610BDF82A10A2
:105250001844ADF828008818ADF82A00DBF80810CB
:105260000DF11C0909AA4846FCF73CFA80460028C3
:1052700000F08B80DBF80850CBF80890A369584603
:1052800031463A46CDF800A00EF064FACBF808504B
:10529000B8F1000F3FF47BAFA3E7DBF8081009A8D3
:1052A0003A46FCF71FFA002877D009A80BF0B8FBA4
:1052B000049000EB400014F05FF80DF11C08DBF8DF
:1052C00008508146404609A90BF098FA4046012152
:1052D0000BF04CFCBDF92600BDF92A10884249DCD0
:1052E000BDF824103A887B88891AC71AA0F10108F2
:1052F00008B2039005A8294607AAFCF7F3F908B3FA
:10530000DDE903133AB22046CDF8009012F042F9DD
:10531000012819D105A8CBF808005846314607AA3C
:105320004B46CDF800A00EF015FABDF81E00BDF8F2
:1053300022100130ADF81E00481C01370021ADF8E5
:1053400022000DE006210BE0204612F051F84846FD
:1053500014F082F8204601F0F9FACBF80850012148
:10536000062918BF00290BD1BDF92A0008F1010850
:105370008045BFDB4846CBF8085014F06DF800219B
:10538000002000297FF431AF2BE7204601F0DEFA40
:10539000B8F1000F3FF4FBAE23E7204601F0D6FA48
:1053A0000121012000297FF420AF1AE77047000097
:1053B0004FF080400168C90710D1006810F01C0F41
:1053C00006D04FF08040006800F01C00082805D18E
:1053D000142000BF013800BFFCD104E044F6206077
:1053E000013800BFFCD17047B0B50B88498804462E
:1053F00042F214051846C4F2000504F05BFC28686C
:10540000000403D500BF28680004FBD420460DF03B
:10541000AFFEB0BD80B5FBF7FDF90AF027F842F208
:105420000000C4F20000FBF7EFF980BD2DE9F04168
:10543000044612F001FB216B054608461CF000FAF9
:105440002968898B88422FD294F83C00B4F82480D4
:1054500094F8267000F00300022808D094F8276022
:10546000012806D0002808BF4FF0000802E064269B
:1054700000E06427284612F0D5FB380440EA0660B5
:1054800000EB080120460DF04DFD00280AD0204613
:105490001C210022002510F0B9FD012808BF0125BC
:1054A00035B101E001251DB11CF0D0F920630120C8
:1054B000C0B2BDE8F08100002DE9F04F9DB019ACFD
:1054C0000746204616460D460DF0F2FE384616F009
:1054D00037FC9DF8711001F0FB0160F3820130464A
:1054E0008DF871100BF0EAFA81B200EBD1307188BF
:1054F0000FFA80F8308801EB680100EB6800ADF826
:105500006210ADF86000384616F098FF039006A8C8
:105510002946059515F032FB4FF4003013904BF2FD
:10552000E800C0F20200079000200497303708908E
:1055300038460E94FCF7C4FF00285AD0DDF810A0BE
:1055400004464FEA6800029007E000BF3846214653
:10555000FCF7B2FF044600284BD020790328F5D190
:10556000208B6179ADF86400208A039AADF866005B
:1055700001FB02F0FD29114698BF010A8DF8701059
:105580002568A068B5F92030EE8B6969AA691E44C8
:10559000009613F0A5FEB5F92030EE8B8346E06847
:1055A0006969AA691E44009613F09AFE618B8046D1
:1055B00002980DF118090844ADF8540018AD504692
:1055C0001A214A4617940F9510F020FD1FFA8BF010
:1055D000BDF854301FFA88F60090059819A92A469C
:1055E00001960DF051FE50461B214A4610F00EFD6B
:1055F000ACE71DB0BDE8F08FB0B500220C46054603
:1056000007F004F828462146012206F0FFFF28464D
:105610002146022206F03AFE28462146042206F0E0
:1056200035FEB0BD2DE9F04F9BB00E46C978032979
:10563000C0F0EF81814619A811460BF0FDF8B6F9CC
:105640002000022823DB96F82200FD281FD3308893
:10565000E8B196F82300BDF86420C0F3C001BDF89E
:1056600066301144C0F38002ADF864109918C0F39D
:105670000012BDF86830ADF86610991AC0F340000A
:10568000BDF86A20ADF86810101AADF86A00D9F8B4
:10569000082017A819A9FCF725F8002800F0B981FF
:1056A000F07B062110F0070008BF0421775A7189AA
:1056B0000DF164087C1A18BF044640460EF0B2FD96
:1056C000B17800250028CDE91555CDE91355CDE970
:1056D000115510958DF859100490ADF8487008BF19
:1056E0005FEA046000F05A81B01D0590F0780394E1
:1056F000FC2888BF4FF0FF3019AF029038460BF0FE
:10570000C5F9834638460BF021F9B6F900A080466A
:105710008345B8BF5846BAEB600FA8BF4FEA600A8E
:1057200017A80BF0B3F90021BAF1010FB8BF01219E
:10573000049C0746E2430A4210D1384613F01CFE8F
:105740000FFA8AF20AAE054619A9304600230FF077
:105750003DF8304600210EF027FB01E04FF6FF70C8
:10576000BDF86010BDF85C20ADF8241008A90190C8
:10577000059810911591FF21ADF820208DF8581053
:1057800059464246139510F0C5FF03995FFA81FB15
:10579000BBF1020F0AD148B18268BDF95C1002EB7F
:1057A0004102BDF96410A2EB410111910590CCB307
:1057B000BDF95E40BDF96200844200F31381029896
:1057C0000DF14008C6B20AE0484641460FF0E0FA43
:1057D000BDF96200844204F1010480F2038128468D
:1057E00031463A46ADF82240ADF8264013F0BEFFF0
:1057F000BDF95C1022B228463B460EF0CBFC0128D6
:1058000008BF0220BBF1010F8DF85000DCD10598D4
:10581000BDF966108068A0EB410030F81400ADF8C7
:105820004800D1E7BAF1010F5DDB02984FF00008A4
:10583000C0B2049008E000BF484610A90FF0A8FAD3
:1058400008F10108C2454ED0BDF86600BDF86A10E7
:10585000404404B2A1EB0800BDF95E1006B28C42D0
:1058600003DABDF962008642EADC049928463A462A
:1058700013F07CFFBDF92010284622463B460EF06F
:1058800089FCBDF95E10012808BF02208C428DF80A
:10589000500013DBBBF1010FADF82240ADF82640FC
:1058A00008D10599BDF966008968201A31F8100001
:1058B000ADF84800484610A90FF06AFABDF9620039
:1058C0008642BDDCBBF1010FADF82260ADF8266069
:1058D000B2D10599BDF966008968301A31F8100017
:1058E000ADF84800A8E7BDF86400BDF86610ADF853
:1058F0001800BDF86800ADF81C0001EB0A00BDF807
:105900006A10ADF81A00A1EB0A00ADF81E0006A857
:105910000EF088FC03990646090608BF002E4DD0FC
:105920000298BDF966108DF85800BDF96A00A0EB29
:105930000A048A440120A2458DF8500052DC0298E6
:105940005FFA80F808E000BF484610A90FF020FA7F
:10595000A2450AF1010A45DA76B1284641463A469F
:1059600013F004FFBDF95C100FFA8AF228463B469B
:105970000EF010FC8DF85000BBF1010FADF822A025
:10598000ADF826A0E0D10598BDF966108068A0EBBF
:10599000410030F81A00ADF84800D5E730880028FB
:1059A0007FF4A2AEF07810A98DF858004846CDF8E3
:1059B00040800FF0EDF91BB0BDE8F08FBDF8660038
:1059C000BDF86A105044ADF82200A1EB0A00ADF812
:1059D0002600029810A98DF8580000201390484620
:1059E0000FF0D6F9002D1CBF284613F035FD019AA3
:1059F0004FF6FF7190B2059C884205D010B20EF0B0
:105A000091FF0AA80EF0F0FB002C1CBF204610F0FE
:105A100079FE1BB0BDE8F08F2DE9F0478EB08946C6
:105A20000969002900F09580804699F81A0003283A
:105A3000C0F08F800846164611F0ECFF02284FD1C7
:105A4000D9E90412002741F6FF70CDE900700DA8D6
:105A5000002302971CF0EAFA348830460BF016F85F
:105A600081B200EBD130BDF8341000B201EBD1327D
:105A700004EB600012B27488A0EB6200ADF82C0059
:105A800008440138ADF8300030460AF05FFF81B2BB
:105A900000EBD130BDF8361000B201EBD13204EB8F
:105AA000600012B203ACA0EB6200ADF82E00084417
:105AB0000138ADF8320020460EF038F9D9E904304B
:105AC00099F81A100BAA8DF826100390B9F818004F
:105AD0002146ADF81800404600970DF05DFE38E015
