:020000040000FA
:1000000038500020BD010000C5010000C7010000FC
:10001000C9010000CB010000CD010000000000007C
:10002000000000000000000000000000CF01000000
:10003000D101000000000000D3010000810B00008E
:10004000D7010000D9010000DB010000DD01000044
:10005000DF010000E1010000E3010000E501000014
:10006000F50C0000E9010000EB010000ED010000CB
:10007000EF010000F1010000F3010000F5010000B4
:10008000F7010000F9010000FB010000FD01000084
:10009000FF01000001020000030200000502000051
:1000A00007020000090200000B0200000D02000020
:1000B0000F020000110200001302000015020000F0
:1000C00017020000190200001B0200001D020000C0
:1000D0001F02000021020000230200002502000090
:1000E00027020000290200002B0200002D02000060
:1000F0002F02000031020000330200003502000030
:1001000037020000390200003B0200003D020000FF
:100110003F020000410200004302000045020000CF
:1001200047020000490200004B0200004D0200009F
:100130004F0200005102000053020000550200006F
:1001400057020000590200005B0200005D0200003F
:100150005F0200006102000063020000650200000F
:1001600067020000A90500006B0200006D0200009C
:100170006F020000710200007302000075020000AF
:1001800077020000790200007B0200007D0200007F
:100190007F0200008102000083020000850200004F
:1001A0008702000089020000DFF80CD000F0DCF8C4
:1001B0000048004739260000385000203348804767
:1001C00033480047FEE7FEE7FEE7FEE7FEE7FEE70F
:1001D000FEE7FEE7FEE7FEE7FEE7FEE7FEE7FEE7F7
:1001E000FEE7FEE7FEE7FEE7FEE7FEE7FEE7FEE7E7
:1001F000FEE7FEE7FEE7FEE7FEE7FEE7FEE7FEE7D7
:10020000FEE7FEE7FEE7FEE7FEE7FEE7FEE7FEE7C6
:10021000FEE7FEE7FEE7FEE7FEE7FEE7FEE7FEE7B6
:10022000FEE7FEE7FEE7FEE7FEE7FEE7FEE7FEE7A6
:10023000FEE7FEE7FEE7FEE7FEE7FEE7FEE7FEE796
:10024000FEE7FEE7FEE7FEE7FEE7FEE7FEE7FEE786
:10025000FEE7FEE7FEE7FEE7FEE7FEE7FEE7FEE776
:10026000FEE7FEE7FEE7FEE7FEE7FEE7FEE7FEE766
:10027000FEE7FEE7FEE7FEE7FEE7FEE7FEE7FEE756
:10028000FEE7FEE7FEE7FEE7FEE70000F5040000FC
:10029000A901000040EA01039B0703D009E008C957
:1002A000121F08C0042AFAD203E011F8013B00F83B
:1002B000013B521EF9D27047D2B201E000F8012B87
:1002C000491EFBD270470022F6E710B513460A46D6
:1002D00004461946FFF7F0FF204610BD421C10F8F7
:1002E000011B0029FBD1801A704710B5002200E0E5
:1002F000521C835C8C5CA34201D1002BF8D1D8B294
:10030000E1B2401A10BD2DE9F05F0546002092468B
:100310009B4688460646814640241BE028464146C7
:100320004746224600F041F853465A46C01A9141CA
:1003300010D311461846224600F028F82D1A67EB14
:1003400001084F4622460120002100F01FF817EB5C
:1003500000094E41201EA4F10104DFDC484631466D
:100360002A464346BDE8F09F064C074D06E0E0688C
:1003700040F0010394E8070098471034AC42F6D3EC
:10038000FFF716FF883A0000A83A0000202A04DB95
:10039000203A00FA02F1002070479140C2F1200398
:1003A00020FA03F3194390407047202A04DB203AD7
:1003B00021FA02F00021704721FA02F3D040C2F185
:1003C0002002914008431946704770B58D1810F807
:1003D000014B14F0030201D110F8012B231106D1B7
:1003E00010F8013B03E010F8016B01F8016B521E9D
:1003F000F9D1ABB110F8012B04F00C048A1A0C2CC3
:1004000003D0A2EB84129B1C08E010F8014BA2EB76
:100410000422F8E712F8014B01F8014B5B1EF9D5F5
:10042000A942D4D3002070BD80B500F005F8B0FA21
:1004300080F0400980BD000040F29030C2F2000020
:10044000D0F80014D0F80404C94308446FF39F2087
:10045000704700002DE9F04381B040F29039C2F2BC
:100460000009D9F80054D9F804240C469542804676
:1004700011DAFFF7E1FFA042B8BF044609EB05001F
:1004800041462246FFF706FFD9F8000426462044DD
:10049000C9F8000429E04FF48060002A08BF40F248
:1004A000FF30471B2646A742B8BF3E4609EB050072
:1004B00041463246FFF7EEFED9F8000440F2FF3223
:1004C0003044C11700EB9151A74221EA0201A0EB91
:1004D0000100C9F8000408DAFFF7A6FF28B908EB05
:1004E0000600A11BFFF7B6FF0644304601B0BDE889
:1004F000F08300004EF68850CEF20000016841F40F
:10050000700101607047000080B54FF6AC72EFF3E8
:10051000108172B64F28C0F611320EDC1E282CD086
:1005200028281BD140F2314348F6492041F2A94125
:10053000C1F20013984762B680BD502828D07828B1
:100540000CD141F6894040F23143C0F2010043F63C
:100550006B51C1F20013984762B680BD41F68940E5
:10056000C0F2010040F2314300F5924044F674417C
:10057000C1F20013984762B680BD40F2314348F69D
:10058000491040F6A171C1F20013984762B680BDD0
:1005900040F231434DF2493042F64A11C1F20013A4
:1005A000984762B680BD000010B542F20004C4F264
:1005B0000004204600F004F8204600F005F810BDC5
:1005C0000121016070470000C16841F00201C16073
:1005D00070470000B0B50024C4F20A044AF2400596
:1005E000204603210F220023C4F20A0500F030F850
:1005F000204604210F22002300F02AF855F8200C91
:1006000040F4702040F0220045F8200C00F0E2FF9A
:1006100000F0E0FF28684FF6006120F0020028603B
:100620006868CFF6E04108406860686840F4403090
:1006300040F03C006860286820F00400286000BF9B
:10064000E8680028FCD0286840F001002860B0BDB0
:1006500070B56FF01F0C0CEB810C0446082938BFF5
:100660004FEA810C4FF00F0E28BF043426680EFAB3
:100670000CF5AE432660266802FA0CF23243226083
:10068000012202FA01F1002BD0F800230CBF22EA6C
:1006900001011143C0F8001370BD0000B0B586B071
:1006A0000D4640F6A811C2F2000191F84E20014615
:1006B0000120022A18BF49020024CDE9000002905F
:1006C00005AB11200222039400F034FC08B106B0FF
:1006D000B0BD41F63000C4F2000000BF01688906D9
:1006E00001D400BFFAE720210160291F802200BF4A
:1006F00050F8103C013A41F8043FF9D101E000BF45
:1007000000BF01688907FBD502210160002006B007
:10071000B0BD0000B0B586B00D4640F6A811C2F2DB
:10072000000191F84E20014600240120022A18BF42
:100730004902CDE90004029005AB1820022203947F
:1007400000F0F8FB08B106B0B0BD41F63000C4F2CD
:10075000000000BF0168C90601D400BFFAE71021FC
:100760000160291F802200BF51F8043F013A40F880
:10077000103CF9D101E000BF00BF01688907FBD53B
:1007800002210160002006B0B0BD00002DE9F04F4D
:1007900089B04FF080410A684BF2004722F4406272
:1007A0000A6040F20802C2F2000212680B68C0F24E
:1007B000C447BA4288BF43F400630B600821C4F207
:1007C00000010A68804642F4800041F62C07086068
:1007D000C4F200074FF0807038604FF4786047F83B
:1007E000040C48F2A060C0F2010000F03BFC0521BF
:1007F000C0F20C0141EA0020386000BF3868800771
:10080000FCD540F20400C2F200000168002401EBB4
:100810008101B4EB410F09D0002100BF00BF026885
:10082000013102EB8202B1EB420FF7D34FF0FF3000
:10083000B8600020002100220023CDE9004402948A
:10084000039400F077FB08AB08204FF4D571022227
:10085000CDE900440294039400F06CFB054618B106
:10086000284609B0BDE8F08F089840F6A81BA0F50F
:10087000D570B0FA80F040F200094009C2F2000BD6
:100880000024C8F2100908AE8BF84E003720002172
:1008900002223346CDE900440294039400F04AFB5F
:1008A000002840F0A0809DF82000800640F19D8047
:1008B0009BF84E004946012808BF01F180412920DC
:1008C00002223346CDE900440294039400F032FB47
:1008D0000898B0F1FF3FD9DC400044BF02208BF8FC
:1008E0004E000DF1100900260220002101224B4686
:1008F000CDE90066CDE902664FF0020A012500F05D
:1009000019FB484602F0C2F808AB0320002102227E
:10091000CDE900660296039600F00CFB08980122D0
:10092000010CABF84C104FF6FF7120EA01010920D1
:100930004B46CDE900660296039600F0FBFA484666
:1009400002F0FEF8DBF84800B0F5007F88D3386885
:100950004FF6047188433860404600F083FB3968E5
:1009600008AD41EA0020032240F004003860BBF8E3
:100970004C002B4601040720CDE900660296039641
:1009800000F0D8FAC7F804A0BBF84C00022201041A
:1009900037202B46CDE900660296039600F0CAFA8E
:1009A0000620022102222B46CDE90066029603961C
:1009B00000F0C0FA57F8040C4FF4007140F0020048
:1009C00047F8040C102002222B46CDE90066CDE941
:1009D00002664FF4007400F0ADFA0025CBF84840F1
:1009E00047F8284C3CE705463AE7012538E7000080
:1009F00070B586B00E4640F6A811C2F20001154649
:100A000091F84E200146022A18BF49020020012217
:100A1000CDE90022039005AB12200222029600F0DD
:100A200089FA08B106B070BD41F63000C4F200008A
:100A3000CEB12B1F00224FF0200C00E000BF016858
:100A40008906FBD580251946C0F800C050F8104C27
:100A5000013D41F8044FF9D10132B24203F5007370
:100A6000EDD100E000BF01688907FBD502210160DC
:100A7000002006B070BD000070B586B00E4640F68E
:100A8000A811C2F20001154691F84E200146022A33
:100A900018BF490200200122CDE90020039005ABD8
:100AA00019200222029600F045FA08B106B070BD86
:100AB00041F63000C4F20000CEB12B1F00224FF0EF
:100AC000100C00E000BF0168C906FBD5802519465F
:100AD000C0F800C051F8044F013D40F8104CF9D166
:100AE0000132B24203F50073EDD100E000BF0168AE
:100AF0008907FBD502210160002006B070BD00000F
:100B0000B0B584B08024C4F20A042046002101223A
:100B100001230025FFF79CFD20460121012200232F
:100B2000FFF796FD4FF4614000904FF04070019048
:100B300040F2003042F20004C0F60020C4F2040487
:100B40000290694620468DF80C5000F033F920469B
:100B500000F0E0F904B0B0BDB0B501380024B4EB4A
:100B6000106F1CBF0120B0BD4EF21005CEF2000583
:100B7000686000F06FFA0720AC6028602046B0BDC6
:100B800080B502F097FA80BD4FF080410868C00739
:100B900040F20800C2F200000CD10968C1F38201E2
:100BA000042940D8DFE801F0031626292E004FF46F
:100BB000FA4137E04AF20001C4F20A0109688907E4
:100BC00045F60021C0F262215CBF42F60051C0F23E
:100BD00031112FE04AF20001C4F20A01096C8907C1
:100BE0004CF2EC11C0F6EB315CBF40F60061C0F294
:100BF000277117E04FF4004114E041F60031C0F2D4
:100C0000B7010FE042F60051C0F2311101604AF223
:100C10000001C4F20A010968890704D545F60021DC
:100C2000C0F2622101604FF080410968890702D556
:100C30000168C908016000684DF68361C4F21B3188
:100C4000A0FB0101880C40F20401C2F2000108601F
:100C500070470000B0B57025C4F2000555F8680C67
:100C6000962440F0007045F8680C9620FFF74CFC85
:100C7000002002F083F9FFF787FF40F20800C2F27C
:100C80000000006840F60061C0F22771884217D862
:100C90004BF20041C0F2C441884201D978240FE0F0
:100CA00045F60021C0F26221884201D9502407E0B4
:100CB0004CF28031C0F2C9111E24884288BF28241A
:100CC0002046FFF721FC40F28010C4F20A00D0F861
:100CD000001121F00201C0F80011016821F00C019F
:100CE0000160286820F006002860286840F00200B3
:100CF0002860B0BDB0B582B043F20004C4F2040471
:100D0000204644F2100100F039F8A0B1204600F06E
:100D1000F5F890B120464FF4804100F02FF850B123
:100D200020464FF4804100F021F841F23000C2F239
:100D300000000121017002B0B0BD01AD05E000BFAF
:100D4000204600F0DBF80028E4D12046294600F0D8
:100D5000E7F80028F4D128460121FFF77BFBEFE7F5
:100D6000416821F40071416070470000490458BF98
:100D70007047C16941F40051C1617047CA0644BF60
:100D800082685FEA422212D44A0444BF82685FEA62
:100D900082220CD44A0744BF82685FEA823206D4BA
:100DA000490652BF00208068C0F3C0607047012030
:100DB0007047000070B50446A0F18040A0F5842083
:100DC0004FEAF026032E0D4608D8082147A0C4F2AA
:100DD000000150F826000A68104308602046FFF71B
:100DE000BFFFA0684CF20001C0F6FF710840A06090
:100DF00040F20800C2F2000000682968032EB0FB30
:100E0000F1F0A168A0F1010041EA3010A060606833
:100E100020F47C006060687929794FEAC04040EA9C
:100E20008140A979626840EA020040EA815060602E
:100E3000E06880B2E060E879697AE26842EA0040FE
:100E400040EA016040F6FF71E060E06920EA0100DD
:100E5000E061E87AE16940EA010040F48050E06135
:100E6000606844F2140120EA01006060AA7A297ADD
:100E70004FEA8203287B43EA0113656843EA0503CE
:100E800043EA8033636088BF70BDDFE806F0020983
:100E900010171143084318D0002000F0CFF870BDA0
:100EA0001143084315D0012000F0C8F870BD11436C
:100EB000084312D0082000F0C1F870BD1143084368
:100EC0000FD0152000F0BAF870BD002000F0A6F891
:100ED00070BD012000F0A2F870BD082000F09EF85F
:100EE00070BD152000F09AF870BD00BF40000000F2
:100EF00080000000000100000002000040680121A5
:100F000021EAD000704700004068012121EA00007A
:100F100070470000416841F4007141607047000073
:100F20000268022000EA52206FF35F220A607047D5
:100F300001607047F0B541F6300CC4F2000C5CF86B
:100F40002C5C1704059C6FF31B4547EA00674CF8BF
:100F50002C5C079E5CF82C5C47EA4454069FDDF845
:100F600020E045EA064544EA07144CF82C5C4CF8AE
:100F7000281C44EA0E01012E84BF41F0200141F0FB
:100F800002010F4688BF47F00407352808BF0F4607
:100F90004CF8247CDCF80000C0070DD1DCF8000020
:100FA000C00317D4DCF800000004F3D54FF0FF3085
:100FB000CCF800000120F0BD0120012ACCF800008F
:100FC0000ED0022A1CBF0020F0BD5CF8200C186077
:100FD0000020F0BD4FF48030CCF800000220F0BDBE
:100FE0005CF8140C5CF8181C000240EA11601860F0
:100FF0005CF8180C5CF81C1C000240EA1160586098
:101000005CF81C0C5CF8201C000240EA116098603F
:101010005CF8200C0002D8600020F0BD00F01F003A
:10102000012101FA00F04EF28011CEF200010860B9
:10103000BFF34F8FBFF36F8F7047000000F01F00AA
:10104000012101FA00F04EF20011CEF20001086019
:10105000704700004EF62350CEF20000E0210170F0
:10106000704700004FF08041096817A2C1F3812149
:1010700052F8211040F20802C2F20002126822FA6D
:1010800001F1B1FBF0F0802884BF80207047402838
:1010900084BF40207047202884BF2020704710283C
:1010A00084BF10207047082884BF08207047042898
:1010B00084BF0420704702288FBF02200238B0FA94
:1010C00080F04009704700BF0100000003000000ED
:1010D000020000000000000010B504460020E0708F
:1010E0004FF0FF302063204601F0B0FC00281CBF09
:1010F000042010BD04F2322001F09CFA4AF655217A
:1011000088421CBF032010BD94F83400E83803283F
:101110000FD802280DD004F16A0008A1032201F0C3
:1011200045FB40B104F1860005A1052201F03EFB1C
:1011300008B1022010BD002010BD00BF4641540080
:101140004641543332000000421E00BF12F8010F26
:10115000002818BF8842F9D170470000826902391F
:10116000023A914224BF00207047C26A408901FBC5
:10117000002070472DE9F04F81B0804601F11A0040
:10118000894601F057FA18B1002001B0BDE8F08F90
:1011900099F800000D2100F03F0000FB01F043F240
:1011A000986AA0F10D0400250127C0F2000A4FF64D
:1011B000FF7B04E05E45E7D101350D2D17D01AF80D
:1011C0000500484401F036FA002F0646F2D0FF2C05
:1011D000DAD8304601F02AF838F8141007460846E5
:1011E00001F024F88742CFD101343746E4E7002FDD
:1011F0001CBF99F8000010F0400003D1012001B09D
:10120000BDE8F08F38F814000028BDD1F6E70000E3
:101210002DE9F04381B0D0F800808946064639B107
:101220003046494601F030F902280AD201247CE018
:10123000D8F8105075B1D8F81800854228BF01259C
:1012400009E0044601303ED0D8F818004D468442EB
:101250006BD300E00125D8F8140090B34D4518D1A8
:10126000D8F818006F1C874228BF0227304639463D
:1012700001F00AF90446013057D0C4B3012C54D010
:10128000D8F81000022804D3D8F81810884238BFC4
:101290000546002474B3404621464FF0FF3201F06A
:1012A00025FDB9F1000F05D020B940464946224638
:1012B00001F01CFD50B10124012808BF4FF0FF349C
:1012C00033E0002431E04FF0FF342EE0D8E905018F
:1012D000C8F81040023988429CBF0138C8F8140091
:1012E00098F8040040F0010088F804001DE03C4636
:1012F000002CD0D12F4600BFD8F818000137874204
:1013000028BF022701D3022D0ED33046394601F003
:10131000BBF80446013008D05CB1012C05D0AF42C7
:101320004FF00004E8D100E00024204601B0BDE801
:10133000F0833C46AFE700002DE9F04F87B08046D0
:1013400000688A460968D0F80CB006A8069101F03A
:10135000CDFE0646013051D000270FF2642906ACBD
:10136000B1B2B6F5803F22BF300C2BF81700013721
:10137000202968D32F2918BF5C291AD07F290BD8C0
:101380004846FFF7E1FE0146FE2F4FF0060000F24F
:10139000148119B111E100BFFE2F2FD820467D1C0A
:1013A0002BF8176001F0A2FE064601302F46D7D178
:1013B00024E0069801785C2918BF2F2901D101305B
:1013C000F8E7002606900698CAF800009FB1B7FA21
:1013D00087F00BEB470240097942002732F8023CC4
:1013E0002E2B18BF202B0DD14B1C47F10000023AC9
:1013F0008B421946F2D200202BF81700062007B0C6
:10140000BDE8F08F0023C0071380F7D14842ABF14D
:1014100002014FF0FF340A4632F8023F0134202B1C
:10142000FAD046F003022E2B08BF1646002C18BF38
:10143000164600BF48B131F81030421E2E2B104620
:10144000F8D1551C02E00426BDE7002508F1200074
:1014500020210B22049001F0C3F90095A5F10109A8
:1014600008254FF0010C00230020002101916A1E85
:101470000595824604E000BF81450CD046F0030686
:101480003BF814702046202F04F10104F6D02E2FD3
:10149000F2D0002F6ED0AA4557D2814555D0802F6B
:1014A00019D3384640F2B511CDE9022A9A4665466D
:1014B00046F0020600F098FE0746000606D543F205
:1014C000186107F07F00C0F200010F5C5346DDE9B0
:1014D000022AAC46059DB7F5807F05D3924516D309
:1014E00046F00306AA46CBE76FB138A03946CDE9EE
:1014F00002CA9A461546FFF727FE5346DDE902CA9F
:101500002A46059D88B146F003065F2706E0380AA3
:1015100008EB0A010AF1010A81F8200008EB0A0130
:101520000AF1010081F82070A3E7A7F1410080B221
:101530001A2838BF43F00203A7F1610080B21928CE
:101540009CBF43F00103203FE8E70199C90746F03B
:1015500003010ED1814518BF0E4600998C4209D86F
:1015600001209B000B254FF0000C019008200C4639
:101570007DE70E46049946F002020878E52804BF8C
:10158000052008705FEACC7018BF9B0003F00301D0
:1015900003F00C00032908BF16460C2808BF1646A6
:1015A000102000EA031003F0040140EA4100B107F3
:1015B00058BF0643002088F82B6007B0BDE8F08FC5
:1015C000222A3A3C3E3F7C7F000000002B2C3B3D12
:1015D0005B5D00004FF080400168C90710D10068D2
:1015E00010F01C0F06D04FF08040006800F01C0087
:1015F000082805D1142000BF013800BFFCD104E049
:1016000044F62060013800BFFCD17047F0B581B0CE
:1016100005680E460021044600F0DAF920B10428DE
:1016200008BF072001B0F0BD002706E000272046D4
:10163000012100F0B3F80028F1D1A169284601F09A
:1016400005FA0028EBD1E1690978E52918BF0029DE
:10165000ECD10137B742EAD1E1E70000F0B581B043
:101660000D46044601F0F6FC00281EBF012001B023
:10167000F0BD20462946FFF771FD04F1340605460A
:101680002063304600214FF40072002701F0A8F8D3
:10169000608960B1002700BF6078EA1931460123F4
:1016A00000F052FA18B9608901378742F4D3608993
:1016B000381A18BF012001B0F0BD00002DE9F04F2D
:1016C00081B0D0F800B00021044600F081F907464F
:1016D00018B1384601B0BDE8F08F4FF0FF3904F182
:1016E0002008FF254FF0FF0AC4F82C90A169584646
:1016F00001F0ACF907460028EBD1E6693078002804
:1017000047D0F27AE52802F03F01A17103D0120719
:101710000CD50F290AD0C4F82C90FF2520460021B3
:1017200000F03CF80028E1D035E000BF0F291DD1C2
:1017300094F82B104906F1D4410606D596F80DA071
:10174000216900F0BF000546E162E9B28842E4D1B8
:10175000707B8245E1D1DBF80C003146FFF70AFDD2
:10176000013D002808BF4FF0FF35D7E7280604D118
:10177000304601F0E1FB8245ABD094F82B00C00766
:10178000C9D1304641460B2201F010F80028C2D1E1
:101790009FE704279DE707469BE700002DE9F043FC
:1017A00081B0044600690E4600F12007B7F5001F1E
:1017B00024BF0020A061A069E8B33D46D4F80090A2
:1017C0006FF35F2545B109EB050034302761E06117
:1017D000002001B0BDE8F08361690130A06119B358
:1017E000B9F80A004FF6FF72C0F21F02104400F56C
:1017F000C00010EA572FE6D1204600F045FE02282F
:101800003EBF022001B0BDE8F0838046013036D0F3
:10181000D9F81800804512D248464146C4F81480D1
:10182000FFF79CFCA061CEE7B9F80800B0EB571FAA
:10183000C9D80020A061042001B0BDE8F083002ECB
:10184000F7D061692046FFF7E3FC804601300328AA
:101850000FD24FF6F871C0F2FF0101EAC00040F26A
:101860000171C0F2020121FA00F0C0B201B0BDE87E
:10187000F08348464146FFF7F1FE0028CCD0012016
:1018800001B0BDE8F08300002DE9F04F83B00446BD
:1018900090F82B0010F0A00F04D00627384603B0B4
:1018A000BDE8F08FD4F800A00B25DAF80C00023860
:1018B00030F8021F01350029FAD104F120096846E9
:1018C00049460C2200F082FF9DF80BB05FEACB7016
:1018D0003ED14EF64F40C4F6C460A5FB0001012086
:1018E00000EB91055FEA8B7058BF01252046294621
:1018F000FFF78CFE013D07464BD0002F49D12069F0
:10190000A0EB4511204600F063F80746002840D1BF
:10191000484601F011FB8046012600BFA1695046F0
:1019200001F094F8A0BBDAF80C00E169EAB2434692
:1019300001F05EFA204600218AF80360FFF72EFFCF
:10194000012D074625D0002FA5F10105E6D020E0A6
:1019500040200126E84684F82B0000BFDAF80C206E
:1019600048464146334600F041FD2046FFF7A6FEBB
:10197000074618B90136642EF0D16426642E01D1D1
:1019800007278BE7042F7FF489AF84F82BB0A0E7FB
:101990000746002F7FF482AFA169504601F056F848
:1019A000074600287FF47AAFE0690021202200F08A
:1019B00017FFE06949460B2200F008FF94F82B005E
:1019C000E16900F01800087301208AF8030065E758
:1019D0002DE9F0410C461F21CFF6E0710C4202D0F8
:1019E0000220BDE8F0818768D0F8008005460461D8
:1019F000F7B137B3B8F80A00B4EB402F13D346025F
:101A00002846394600F040FD0746013004BF01205A
:101A1000BDE8F081022FE3D3D8F818008742DFD267
:101A2000A41BB442ECD240463946FFF797FB10E0C6
:101A300098F8000003282CBFD8F828700027002F42
:101A4000D8D1B8F80800B0EB541FC9D9D8F828008D
:101A5000002700286F61A861C2D000EB54206FF30B
:101A60005F2408EB04013431C5E906010020BDE81C
:101A7000F081000001281CBF0120704710B58024B0
:101A8000C4F20A042046022107220023FEF7E0FDEB
:101A90002046042108220123FEF7DAFD2046052115
:101AA00008220123FEF7D4FD204606210622012349
:101AB000FEF7CEFD10342046002107220123FEF759
:101AC000C7FD2046012106220123FEF7C1FD49F290
:101AD0008060C0F29800FEF759FEB0FA80F141F242
:101AE00034024909C2F20002002818BF0120117017
:101AF00010BD0000013818BF0120800070470000B1
:101B000001281CBF0420704780B58C46012B04D1EE
:101B100010466146FEF7C2FD04E099B210466246E7
:101B2000FEF766FF002818BF012080BD41F2340196
:101B3000C2F200010138097818BF012060EA0100F3
:101B400000F001007047000001281CBF042070470E
:101B500080B58C46012B04D110466146FEF7DAFDB4
:101B600004E099B210466246FEF786FF002818BFCF
:101B7000012080BD10B582B0044600F0FFF908B125
:101B800002B010BD01A9204601F0C2FA002804BF2E
:101B90000021216002B010BDB0B584B005460390AD
:101BA00001A81446CDE9011100F0CCFC00281CD49A
:101BB00040F29871C2F2000151F82020002A1CBFA7
:101BC00000231370002D1CBF00222A70002C41F846
:101BD00020500FBF00200DF108000DF10C01002274
:101BE00018BF00F005FE04B0B0BD0B2004B0B0BDBE
:101BF0002DE9F04F8FB00E9148B302F03F078346B6
:101C00000EA801A93A4600F0F3FD0546002840F071
:101C1000EF80DDF804A00E9902A8CDF808A000F02E
:101C200089FB0546002D9DF933004FF0060108BFE2
:101C300001EAD01517F01C0F0BD0C5B1042D03D14C
:101C400002A8FFF721FE054647F0080719E009251D
:101C5000D3E0002D4DD19DF80E00C10648D4C00739
:101C6000284618BF0720B90748BF054641E09DF840
:101C70000E0010F0110F01D0072502E0780748BFD1
:101C80000825B5BB17F0080033D0099E50463146F1
:101C900000F0BAFC0021804606F10E00C4F6216176
:101CA00001F046F92020F07250463146002201F042
:101CB0002BF906F11C00002101F03AF90120B8F1DE
:101CC000000F8AF8030014D0DAF8309002A84146D9
:101CD000002201F0D3F808B105460AE05046494613
:101CE00000F0B4FE0546A8F10100CAF8100000E0BB
:101CF000042515B1002D7BD10AE007F0080047EA62
:101D0000C007DAF830000999CBE90801002D6FD13E
:101D1000099E5046314600F077FCCBF8080006F1EA
:101D20001C0000F085FCCBF80C00CBF800A0BAF842
:101D300006000BF12808ABF8040000208BF8110016
:101D4000CBF81C00CBF81400404600214FF4007281
:101D50008BF8107000F044FDB80649D5DBF80C6034
:101D6000002E45D0DBF80810B5FA85F04FEA501088
:101D7000CBF8146005BBBAF80A205402A6421BD95E
:101D80000020A0EB422900BF584600F07DFB02284E
:101D900038BF02250146013008BF0125E8B2B0FA7C
:101DA00080F2371B00284FEA521006D109EB0602D9
:101DB000A2423E46E8D800E03746CBF81810B8B14A
:101DC00038466FF35F2098B15046FFF7C7F970B1FE
:101DD00000EB57224146CBF81C209AF80100012362
:101DE0000124FFF78DFE002818BF254600E00225DC
:101DF00028061CBF0020CBF80000E8B20FB0BDE8F9
:101E0000F08F00002DE9F04F83B0044600200F460C
:101E1000186002A920469B46164601F079F908B9D8
:101E2000607C10B103B0BDE8F08F207CC00702BF1A
:101E3000072003B0BDE8F08FE0686169401AB04246
:101E400038BF0646002E00F08E8004F12800019075
:101E500028E099F80100019952460123FFF750FE4E
:101E6000002840F08680C4F81CA000BF60696FF3B2
:101E70005F20C0F500752044B54288BF354600F1AB
:101E8000280138462A4600F0A1FCDBF80000761B4A
:101E90002844CBF8000060692F44284460614FF06B
:101EA0000000BFD06069C105E0D1DDF80890B9F845
:101EB0000A10013901EA5028B8F1000F0DD130B1F4
:101EC000A169204600F0E0FA012803D84FE0A0689D
:101ED00001284CD9411C4CD0A061A1694846FFF7AC
:101EE0003DF9002843D00021B1EB562F00EB080A42
:101EF00024D0750AB9F80A1008EB0500884299F851
:101F0000010088BFA1EB0805394652462B46FFF772
:101F1000F7FD70BB94F91000B0F1FF3F0CDCE069F5
:101F2000A0EB0A00A84207D207EB402001994FF42A
:101F3000007200F04BFC00BF6D02A6E7E26952455B
:101F400091D094F91000B0F1FF3F3FF782AF99F8BC
:101F5000010001990123FFF7F7FD50B9207C00F043
:101F60007F00207475E7002003B0BDE8F08F0220E9
:101F700000E00120607403B0BDE8F08F70B582B05E
:101F800001A9044601F0C4F8064600283ED1207C91
:101F900041063BD500060DD50198E269407804F171
:101FA000280101230126FFF7CFFD78BB207C00F03C
:101FB0007F002074019D216A284600F047FD0646F7
:101FC00020BB666AF07A314640F02000F07220684B
:101FD000A26800F099FFE16806F11C0000F0A8FF7C
:101FE000002106F11600C4F6216100F0A1FF06F100
:101FF0001200002100F09EFF0120E870284600F04A
:10200000DFFF217C064601F0BF002074304602B09D
:1020100070BD00002DE9F04F83B0044600200F464C
:10202000186002A920469B46164601F071F810B1CF
:1020300003B0BDE8F08F607C0028F9D1207C8007D8
:102040005EBF072003B0BDE8F08F6069C043B042B7
:1020500038BF0646002E00F0A280DDF8088004F1AB
:102060002800019025E0C4F81CA000BF6069394633
:102070006FF35F20C0F500752044B54288BF354638
:1020800028302A4600F0A2FB207C40F0800020741B
:10209000DBF80000761B2844CBF800006069E1689B
:1020A000284488422F44606188BF0146002EE160C9
:1020B00075D06069C105D9D1B8F80A10013901EAB3
:1020C0005029B9F1000F13D120B1A1692046FFF7C3
:1020D0009FF802E0A06800285FD0411C69D000286A
:1020E0005DD0012863D0A168A061002908BFA0606D
:1020F00094F91000B0F1FF3F0CDC98F80100E269A0
:1021000001990123FFF720FD002852D1207C00F027
:102110007F002074A1694046FFF720F8002846D0D0
:102120000021B1EB562F00EB090A22D0750AB8F84E
:102130000A1009EB0500884298F8010088BFA1EB5E
:102140000905394652462B46FFF7FEFC88BBE0697D
:10215000A0EB0A00A8420AD207EB402101984FF4F5
:10216000007200F033FB207C00F07F0020746D02D1
:102170008EE7E06950453FF476AFE06861698142DF
:10218000BFF471AF98F80100019952460123FFF79F
:10219000B7FC00283FF467AF0BE0002196E7207CF6
:1021A00040F040002074002003B0BDE8F08F022012
:1021B00000E00120607403B0BDE8F08F8028024683
:1021C00010D3FF284FF000020CD840F2B51399420B
:1021D00008D143F68811C0F2000101EB40006FF016
:1021E000FF01425A104670477F289EBF82B21046B8
:1021F00070470022B2EB104F04BF40F2B513994272
:1022000001D01046704743F688120021C0F2000248
:1022100032F81130834204D07F2901F10101F7D354
:10222000802101F18000C2B2104670470021B1EB5D
:10223000104F18BF704710B51FFA80FC43F2DA63E5
:1022400043F29671C0F20003C0F20001BCF5805F5A
:1022500038BF0B46B3F800E0BEF1000F17D000BF47
:10226000F44514D35A88191D5EFA82F4130AA44562
:1022700011D3D4B22246002B18BF00220B4631F8EE
:1022800012E008BF03EB4403BEF1000FE8D180B2B7
:10229000BDE810407047082BF9D8DFE803F0050AC5
:1022A00010121416181A1C00ACEB0E0031F81000B6
:1022B000EDE7A0EB0E0101F00101401AE7E710384D
:1022C000E5E72038E3E73038E1E71A38DFE70830A0
:1022D000DDE75038DBE7A0F5E350D8E72DE9F04122
:1022E00084B000210446FEF7F7FE02281ED1E8461E
:1022F000A8F104064FF4FD7740F23A25E01900F00A
:1023000097F946F8040F1037AF42F7D1002600BF07
:1023100058F8261000290EBF03202046FEF7DCFEE9
:10232000022E03D8012806F10106F1D804B0BDE859
:10233000F081000070B582B005680446019100BFCD
:1023400008785C2818BF2F2801D10131F8E7002058
:10235000A06008780191202808D2802084F82B0002
:1023600020460021FFF734FB02B070BD01A92046D2
:10237000FEF7E2FF08B102B070BD01AE2046FFF7E4
:102380009DF994F82B10A8B94907F4D4A079C00698
:1023900017D520696FF35F20284400F134012846E7
:1023A00000F032F9A06020463146FEF7C5FF002854
:1023B000E4D0E0E70428DED1490758BF052002B089
:1023C00070BD052002B070BDB0B542F20005C4F288
:1023D00004050446C1B22846FEF7AAFD2846FEF7CA
:1023E00093FD0028FAD12046B0BD0000F0B583B0BF
:1023F00016460B221D46074600F0E8F9052D16D9B2
:102400003088A0B141F22101C0F20101102200BFC9
:1024100000F001032C0443EA45054FEA500048BF91
:102420004D40013AF4D136F8020F0028EED10721D1
:1024300001A8002205F00F0303F13006392E88BFF2
:1024400003F13706B2EB151F4654A1F101014FEA23
:102450001515EFD17E2242544FF0000241B10B46D8
:10246000BE5C202E04D0013B02F10102F8D10A46E5
:1024700007299ABF435C01312023BB540132082A4B
:1024800024BF03B0F0BDF3E7F0B581B0022930D32B
:1024900005680C46A86988422BD9287803282BD0D8
:1024A00002283BD0012824D104EB5407686A00EBD2
:1024B0005721284600F0CAFAB8BB696A7E1C6FF340
:1024C0005F27E81901EB562190F83470284600F098
:1024D000BDFA50BB6FF35F26A81990F83400E207ED
:1024E00047EA002108466FF31F3018BF080901B002
:1024F000F0BD012001B0F0BD686A00EBD4112846A0
:1025000000F0A4FA88B904F07F0005EB80003430B5
:1025100000F08EF820F0704001B0F0BD686A00EB6A
:102520001421284600F092FA18B14FF0FF3001B0A4
:10253000F0BDE0B205EB4000343000F07BF801B0B4
:10254000F0BD00002DE9F043D0F80080B8F1000F95
:1025500004BF4FF0FF30BDE8F083002318F80310EC
:102560000133202901D33A29F8D13A291CBF002090
:10257000BDE8F083022B06D198F80010A1F13009D4
:10258000B9F10A0F2FD3A8F1010C4FF000090FF297
:102590006C0E00BF5EF8291066464C1E1D4600BF3B
:1025A00014F8017F16F8011FA7F16102D2B21A2AAE
:1025B00038BF203FA1F16102D2B21A2A38BF2039B8
:1025C0003A06A5F1010503D0C9B2FFB28F42E7D0A8
:1025D000002D08BF002A06D009F10109B9F1030F47
:1025E000D8D14FF00309B9F1020FCFBF4FF0FF3040
:1025F00008EB030101604846BDE8F083D5360000D2
:10260000D2360000CE360000B0B5044601F11A0003
:102610000D4600F00FF821780446032905D105F195
:10262000140000F007F844EA00442046B0BD000062
:102630000068704700887047ADF58B6DFEF70AFBA8
:1026400000F040FDFEF75CFA31A033A100F080FD00
:10265000012000F023FD40F6FC50C2F2000031A141
:102660000122FFF799FA08B12FA04DE043F2C261B1
:102670008BA8C0F200010A22FFF7BAFA08B12FA016
:1026800042E040F20C04C2F200042046FDF726FEB0
:1026900002468BA80DF254432146FFF7BBFC08B15C
:1026A0002BA031E08BA8FFF765FA43F2C26101A8C5
:1026B000C0F200010122FFF79BFA08B129A023E034
:1026C00040F6FC1101A80DF25443C2F2000140F2A1
:1026D000FF32FFF797FB08B127A015E001A8FFF72D
:1026E00049FA40F6FC1040F20C01C2F20000C2F2BE
:1026F0000001FDF7FAFD014624A043F2A562C0F2F5
:102700000002002908BF104600F074FFFEE700BF7A
:1027100025730D0A0000000031353A32383A32385C
:102720000000000073643A0073646361726420699E
:102730006E6974206661696C210D000063726561C9
:1027400074652066696C65206661696C210D000006
:1027500077726974652066696C65206661696C21B1
:102760000D0000006F70656E2066696C6520666103
:10277000696C210D00000000726561642066696C5F
:1027800065206669616C210D00000000726561645E
:1027900020737472696E6720213D207772697465B9
:1027A00020737472696E670D000000005242431E70
:1027B000013900BF13F801CF11F8010F0132ACEB62
:1027C000000008BF70470028F4D070470138013975
:1027D00011F8013F013A00F8013FF9D170470000BC
:1027E00080B51346CAB21946FDF766FD80BD0000EC
:1027F0002DE9F0470F46002115463960FFF7A2FE8C
:10280000002844BF0B20BDE8F087064640F29870D0
:10281000C2F2000050F82640002C04BF0C20BDE896
:10282000F087207805F0FE053C6068B16078FFF71E
:102830007DF9C10708D140070A21002D18BF01EA20
:10284000E0752846BDE8F08700202070F0B2667081
:10285000FFF710F9C1071CBF0320BDE8F087002D6A
:102860001EBF10F004000A20BDE8F0872046FFF7E5
:1028700035FD042804BF0120BDE8F08701284AD8AF
:10288000D4F830A004F13F00FFF7D4FEB0F5007F8C
:1028900041D104F14A00FFF7CDFE054620B904F10D
:1028A0005800FFF7C5FE054694F84470E561781EB0
:1028B0000128A7702FD894F84160701E3040B6FAF6
:1028C00086F118BF012049090843668123D104F12C
:1028D0004500FFF7AFFE81460007A4F808901AD123
:1028E00004F14700FFF7A6FE804620B904F154002A
:1028F000FFF79EFE804604F14200FFF79BFE50B1B9
:1029000005FB07F101EB19121318984524BFA8EB3A
:102910000302B24202D20D20BDE8F087B2FBF6F20C
:102920004FF6F677C0F6FF774FF00008BA4238BF8F
:102930004FF003084FF6F677BA4238BF4FF002085F
:1029400040F6F677BA4238BF4FF00108B8F1000FF1
:10295000E1D0961C50445344B8F1030FA661C4E97A
:1029600008A0E3620DD104F15E00FFF763FE50EAB8
:102970000900D0D104F16000FFF75AFEA062B00058
:102980000FE0B9F1000FC6D00844B8F1020FA06201
:1029900001D1700005E006EB460002F0010101EBF9
:1029A000500000F2FF10B5EB502FB4D34FF0FF30C2
:1029B000C4E904008020B8F1030F207133D104F181
:1029C0006400FFF737FE01282DD10AF101012046EE
:1029D00000F03CF838BB0020207104F23220FFF7F1
:1029E00029FE4AF6552188421DD104F13400FFF733
:1029F0001FFE45F25221C4F26111884213D104F541
:102A00000670FFF715FE47F27221C6F241118842A7
:102A100009D104F50770FFF70BFE606104F508703B
:102A2000FFF706FE206140F2A470C2F200000188A8
:102A300084F800800131018040F2A670C2F20000EB
:102A4000E0600020E180BDE8F0870000F0B581B0D3
:102A50000446006B884201D1002513E020460E4653
:102A600000F0F8FA054668B9607804F1340132469E
:102A700001230127FFF744F800281CBF4FF0FF3661
:102A80003D462663284601B0F0BD000080B50268CF
:102A90006FF0FF0C40F6A8110CEA12234FEA126EF9
:102AA000C2F2000181F82CE0CB85B1F82EC0C2F350
:102AB0000723120643EA0C03CB850A6342684FF4EE
:102AC0007F0303EA12220B6B1A430A6342684FF436
:102AD0007F4303EA12220B6B1A430A6342790B6BA2
:102AE0001A430A63D0E9012381F834204FF07F4272
:102AF00002EA03224FEA136C81F835C08A63427AF6
:102B00008B6B43EA02428A63027A8B6B43EA0222AE
:102B10008A63C27B8B6B1A438A63C06891F83C203E
:102B2000C0F303531A434FF4706303EA102381F890
:102B30003C20CB87CA8FC0F307201043C88780BDD5
:102B400010B5D0E9003240F6A8144FEA937CC2F2E7
:102B5000000484F800C0C3F3836CC3F3016E190C46
:102B600084F801C084F802E0E170190A21716FF065
:102B70000F0101EA12516371E180E188C2F303534E
:102B80001943C2F30343E180C2F3C0312372C2F39D
:102B900080336172C2F34031A372C2F30033E17239
:102BA00000212373617394F84E10130A02293ED258
:102BB0004FF4406101EA83210623216101792269F2
:102BC00042EA810121618168226942EA91722261AF
:102BD000C1F3C262C1F30261227561758168C1F3FC
:102BE000425203EAD133A275C1F38242E2752376E1
:102BF000227EC1F3C0331A432276226994F818C0AA
:102C0000C1F30723511C042202FA0CF24FEAE27CC2
:102C1000A2FB01E20CFB012C227A01219140AEFBC8
:102C200001E20CFB0122A164C4E910E219E018D111
:102C30004FF47C1101EA02414FF4007C2161C17A1A
:102C4000226942EA01212161817A226911432161CD
:102C5000437A2169C4F848C00131CA04490BC4E968
:102C600010217E22C3F3801102EA43026176A2762C
:102C7000017AA27E42EAD11201F07F01A276E176CA
:102C8000C068C0F34172C10F217762770C22C0F394
:102C9000826102EA9052A177E277E17FC0F381522C
:102CA0001143C0F34052E177002184F82020C0F3A3
:102CB000004284F82110C0F3C03184F82220C0F310
:102CC000803284F82310C0F3403184F82420C0F30C
:102CD000003284F82510C0F38121C0F3012084F86C
:102CE000262084F8271084F8280010BD2DE9F04331
:102CF00081B002293FD3044680690F4688423CD9FF
:102D00002078154603283DD0022856D0012867D1E7
:102D100007EB5709606A00EB59212046FFF796FE42
:102D2000064658BB09F101086FF35F2904EB09005F
:102D3000343017F001070FBFE9B2017801F00F013D
:102D400065F30B110170606A012200EB58212046E7
:102D5000E270FFF77BFE064680B96FF35F2804EB55
:102D6000080000F13400EFBB0178C5F3032201F045
:102D7000F001114438E0022600E00226304601B09E
:102D8000BDE8F083606A00EBD7112046FFF75EFED6
:102D900006460028F2D107F07F0004EB800000F126
:102DA00034073846FFF744FC014665F31B013846FB
:102DB00000F0BEF80120E070E0E7606A00EB172148
:102DC0002046FFF743FE06460028D7D1F8B204EBB1
:102DD0004000A9B2343000F0ADF80120E070CDE73A
:102DE0000226CBE7C5F3071101700120E070C5E7AB
:102DF0002DE9F04F81B081460F208A464B73A1F830
:102E00000B0001F11A00002116464FF6FF74002551
:102E100000F090F80D2006FB00F043F2986B00964E
:102E2000A0F10D06C0F2000B4FF000081FFA88F069
:102E3000A0421CBF39F8168001361BF805001FFAA6
:102E400088F75044394600F075F8002F08BFA046B7
:102E500001350D2DEAD11FFA88F00099A04206D065
:102E600039F81600002808BF41F0400101E041F0A8
:102E700040018AF8001001B0BDE8F08FF0B581B0D4
:102E800002292DD305680446A8690E46884227D931
:102E90005AB1284611464FF0FF32FFF727FF20B105
:102EA00001B0F0BD87423E462BD220463146FFF7A7
:102EB000EBFA07460130032815D328463146002295
:102EC000FFF714FF0028EBD1D5E90510821E9142CF
:102ED000E8D22A790131696142F001012971E1E703
:102EE000022001B0F0BD4FF6F871C0F2FF0101EA17
:102EF000C0000121C0F2020121FA00F0C0B201B00D
:102F0000F0BD002001B0F0BD70B50D46064601F1E0
:102F10001A0091B2144600F00DF83078032818BF5B
:102F200070BD05F11400210C00F004F870BD000024
:102F3000016070470180704700224FF0FF3100BFF1
:102F4000D2B200EB010C530843EAC2129CF80130E4
:102F500001310A291A44F3D1D0B2704780B54AF240
:102F60000000C4F20A0001210160FEF733FB4FF0BC
:102F70008040016841F00101016080BD10B5044648
:102F8000FFF7ECFFFDF726FB0420C4F2000001214F
:102F900001604FF080400168002C21F01C010160AD
:102FA000016841F004010160016821F0020118BFCD
:102FB00002310160016821F00101016010BD0000D3
:102FC000F0B581B0054600F045F8044600283ED132
:102FD0002878032833D12879012830D105F1340627
:102FE000304600214FF400720027FFF7F9FB05F28D
:102FF00032204AF65521FFF79DFF45F25221C4F2D7
:1030000061113046FFF794FF47F2722105F5067013
:10301000C6F24111FFF78CFF696905F50770FFF7EC
:1030200087FF296905F50870FFF782FF286A314696
:10303000421C687801232A63FEF786FD2F716878A9
:1030400000210022FEF756FD002818BF012420466B
:1030500001B0F0BD70B50446C078E0B16078226B75
:1030600004F13405294601230126FEF76DFD08B160
:10307000304670BD606A216BE269081A00269042F2
:10308000E670F5D2A078022805D160780A44294676
:103090000123FEF759FD0026304670BD40F6F811B9
:1030A000C2F200010A6800BF0B689B1A8342FBD37F
:1030B0007047000040F6F810C2F2000001680131CC
:1030C0000160704780B540F20800C2F2000000685D
:1030D00044F6D351C1F26201A0FB01018809FDF75A
:1030E0003BFD002808BF80BDFEE70000B0B50568C5
:1030F000044615F8010B40B140F2B511FFF75EF838
:10310000002804BF4FF0FF30B0BD2560B0BD000007
:10311000B0B505460C4690B1286880B1017871B110
:10312000A988C28891420AD14078FEF7FFFC00F0DE
:103130000100424280F0010102F0090001E0092093
:103140000021002914BF296800212160B0BD0000C2
:103150000FB4054B10B503A9044A029800F018F803
:1031600010BC5DF814FB0000C92300000000002023
:1031700002E008C8121F08C1002AFAD17047704740
:10318000002001E001C1121F002AFBD1704700009E
:103190002DE9FF4F8DB00F460546002606E0252895
:1031A0000BD0DDE90F1290476D1C761C28780028A3
:1031B000F5D111B03046BDE8F08F0024A246A146FB
:1031C0000122EC4900E0044315F8013F203B02FADC
:1031D00003F00842F7D128782A2810D06FF02F0288
:1031E0002878A0F13001092914D80AEB8A0102EBF2
:1031F000410144F0020400EB010A6D1CF0E701CF2D
:103200005FEA000A03D544F40054CAF1000A44F00E
:1032100002046D1C28782E2817D115F8010F44F0F0
:1032200004042A280ED06FF02F022878A0F1300174
:1032300009290AD809EB890102EB410100EB0109D8
:103240006D1CF2E757F8049B6D1C28786C280FD092
:1032500006DC4C2817D068280DD06A2814D104E069
:10326000742810D07A280FD10DE044F400140AE03D
:1032700044F4801401E044F440146978814202D19E
:1032800004F580146D1C6D1C2A786E2A1FD00CDC8E
:10329000632A31D004DC002A8BD0582A11D1A3E054
:1032A000642A68D0692A0CD165E0732A2ED004DC28
:1032B0006F2A73D0702A04D19BE0752A6FD0782AC8
:1032C0006ED01046DDE90F129047761C50E1C4F332
:1032D0000250022806D0032809D0042801CF09D0C3
:1032E000066045E101CFF117C0E9006140E101CF7F
:1032F00006803DE106703BE117F8040B8DF80000F5
:1033000000208DF80100EB46012003E057F804BBD4
:103310004FF0FF3061074FF0000102D40DE008F1DB
:103320000101884649450FDA8045F8DB1BF8081093
:103330000029F4D108E008F1010188468142FADB56
:103340001BF808100029F6D1DDE90F23AAEB0800CD
:103350008146214600F036F9304400EB080604E0CF
:10336000DDE90F121BF8010B9047B8F10108F7D205
:1033700021464846F7E00A21C4F302534FF0000B00
:103380000891022B04D001CFC117032B09D00AE00A
:10339000FF1D27F00707F7E8020108E032E01FE011
:1033A00020E000B2C117042B01D140B2C117031EA7
:1033B00071F1000307DA4FF0000CD0EB0C006CEB5E
:1033C00001012D2302E0230504D52B238DF82430A1
:1033D000012303E0E30701D02023F7E7984658E0F4
:1033E0000A2110E010210EE010204FF0000B089091
:1033F0000CE010214FF0000B44F004044FF00809DA
:10340000089103E008214FF0000B0891C4F3025328
:10341000022B04D001CF0021032B06D006E0FF1DB4
:1034200027F00707F7E8020103E080B2042B00D180
:10343000C0B24FF0000823072BD5702A07D0DDF863
:1034400020C08CF0100C5CEA0B0C05D00EE0402381
:103450008DF82430012308E050EA010306D0302320
:103460008DF824308DF8252002239846DDF820C001
:103470008CF0080C5CEA0B0C0BD150EA010301D173
:10348000630706D530238DF824304FF00108A9F1E9
:103490000109582A04D038A20B9208AA0A920BE01C
:1034A0003AA2F9E75B46089AFCF72DFF0B9B9B5C61
:1034B0000A9A521E0A92137050EA0102F2D10A9837
:1034C000ADEB000000F1200B600702D524F480343E
:1034D00001E04FF00109D94502DDA9EB0B0000E046
:1034E000002000EB0B0141440890AAEB010AE00325
:1034F00006D4DDE90F232146504600F063F8064468
:103500004FF0000908E009A911F80900DDE90F12E0
:10351000904709F10109761CC145F4DBE0030CD5A5
:10352000DDE90F232146504600F04CF8064404E044
:10353000DDE90F1230209047761C0899481E08904C
:103540000029F5DC08E00A980A990078491C0A91DC
:10355000DDE90F129047761CBBF10001ABF1010BC6
:10356000F1DC21465046DDE90F2300F019F806444E
:103570006D1C1BE6092801003031323334353637F3
:1035800038396162636465660000000030313233AF
:10359000343536373839414243444546000000004F
:1035A0002DE9F041044600251E461746880404D440
:1035B00005E039462020B0476D1C641EF9D5284629
:1035C000BDE8F0812DE9F041044600251E469046F5
:1035D000C80301D5302700E02027880404D505E082
:1035E00041463846B0476D1C641EF9D52846BDE8F3
:1035F000F081000010B5044601E0FEF7E5FE14F886
:10360000010B04490028F8D1BDE810400A20FEF75C
:10361000DBBE000000000020809A45418E418F8073
:103620004545454949498E8F9092924F994F55553E
:1036300059999A9B9C9D9E9F41494F55A5A5A6A728
:10364000A8A9AAABACADAEAFB0B1B2B3B4B5B6B782
:10365000B8B9BABBBCBDBEBFC0C1C2C3C4C5C6C772
:10366000C8C9CACBCCCDCECFD0D1D2D3D4D5D6D762
:10367000D8D9DADBDCDDDEDFE0E1E2E3E4E5E6E752
:10368000E8E9EAEBECEDEEEFF0F1F2F3F4F5F6F742
:10369000F8F9FAFBFCFDFEFF01030507090E101205
:1036A0001416181C1E7265616420737472696E674B
:1036B000203D3D20777269746520737472696E676E
:1036C0000D0073643A746573742E747874007573A6
:1036D000620073640072616D00007D1D0100632C47
:1036E000001E9601A01E5A01001F0806101F0606A4
:1036F000201F0806301F0806401F0606511F07003E
:10370000591F521F5B1F541F5D1F561F5F1F601FF5
:103710000806701F0E00BA1FBB1FC81FC91FCA1F93
:10372000CB1FDA1FDB1FF81FF91FEA1FEB1FFA1F61
:10373000FB1F801F0806901F0806A01F0806B01F69
:103740000400B81FB91FB21FBC1FCC1F0100C31F4C
:10375000D01F0206E01F0206E51F0100EC1FF31F49
:103760000100FC1F4E210100322170211002842132
:1037700001008321D0241A05302C2F04602C020173
:10378000672C0601752C0201802C6401002D26088F
:1037900041FF1A03000061001A03E0001703F8005C
:1037A0000703FF000100780100013001320106012A
:1037B000390110014A012E017901060180014D00F5
:1037C0004302810182018201840184018601870113
:1037D000870189018A018B018B018D018E018F0187
:1037E00090019101910193019401F60196019701D5
:1037F000980198013D029B019C019D0120029F01BF
:10380000A001A001A201A201A401A401A601A70197
:10381000A701A901AA01AB01AC01AC01AE01AF0146
:10382000AF01B101B201B301B301B501B501B701F7
:10383000B801B801BA01BB01BC01BC01BE01F7016E
:10384000C001C101C201C301C401C501C401C70156
:10385000C801C701CA01CB01CA01CD011001DD01B8
:1038600001008E01DE011201F3010300F101F401F8
:10387000F401F8012801220212013A020900652C24
:103880003B023B023D02662C3F02400241024102E4
:1038900046020A0153024000810186015502890156
:1038A0008A0158028F015A0290015C025D025E0299
:1038B0005F02930161026202940164026502660282
:1038C0006702970196016A02622C6C026D026E0219
:1038D0009C01700271029D01730274029F017602C5
:1038E0007702780279027A027B027C02642C7E02E3
:1038F0007F02A60181028202A9018402850286025A
:103900008702AE014402B101B20145028D028E026E
:103910008F0290029102B7017B030300FD03FE03B7
:10392000FF03AC0304008603880389038A03B10301
:103930001103C2030200A303A303C4030803CC03BF
:1039400003008C038E038F03D8031801F2030A00CF
:10395000F903F303F403F503F603F703F703F9039D
:10396000FA03FA0330042003500410076004220114
:103970008A043601C1040E01CF040100C004D00442
:103980004401610526040000C700FC00E900E200D4
:10399000E400E000E500E700EA00EB00E800EF00EB
:1039A000EE00EC00C400C500C900E600C600F4004B
:1039B000F600F200FB00F900FF00D600DC00A200D8
:1039C000A300A500A7209201E100ED00F300FA009A
:1039D000F100D100AA00BA00BF001023AC00BD0066
:1039E000BC00A100AB00BB009125922593250225C8
:1039F0002425612562255625552563255125572502
:103A00005D255C255B251025142534252C251C25DA
:103A100000253C255E255F255A2554256925662508
:103A2000602550256C256725682564256525592561
:103A30005825522553256B256A2518250C258825E0
:103A400084258C2590258025B103DF009303C003D6
:103A5000A303C303B500C403A6039803A903B403D7
:103A60001E22C603B50329226122B1006522642209
:103A700020232123F7004822B0001922B7001A2280
:103A80007F20B200A025A000A83A0000000000207E
:103A900090030000CA030000D83A00009003002001
:103AA000A84C00008031000012000122140500140F
:103AB000FF2D310148692066726F6D2053796E7752
:103AC0006974210A1001FF1001FF10016B102D8C89
:083AD0000300000000000000EB
:04000005000001A94D
:00000001FF
