:020000040000FA
:1000000088400020BD010000C5010000C7010000BC
:10001000C9010000CB010000CD010000000000007C
:10002000000000000000000000000000CF01000000
:10003000D101000000000000D3010000D501000044
:10004000D7010000D9010000DB010000DD01000044
:10005000DF010000E1010000E3010000E501000014
:10006000E7010000E9010000EB010000ED010000E4
:10007000EF010000F1010000F3010000F5010000B4
:10008000F7010000F9010000FB010000FD01000084
:10009000FF01000001020000030200000502000051
:1000A00007020000090200000B0200000D02000020
:1000B0000F020000110200001302000015020000F0
:1000C00017020000190200001B0200001D020000C0
:1000D0001F02000021020000230200002502000090
:1000E00027020000290200002B0200002D02000060
:1000F0002F02000031020000330200003502000030
:1001000037020000390200003B0200003D020000FF
:100110003F020000410200004302000045020000CF
:1001200047020000490200004B0200004D0200009F
:100130004F0200005102000053020000550200006F
:1001400057020000590200005B0200005D0200003F
:100150005F0200006102000063020000650200000F
:1001600067020000F10400006B0200006D02000055
:100170006F020000710200007302000075020000AF
:1001800077020000790200007B0200007D0200007F
:100190007F0200008102000083020000850200004F
:1001A0008702000089020000DFF80CD000F072F82E
:1001B00000480047A50E00008840002033488047D3
:1001C00033480047FEE7FEE7FEE7FEE7FEE7FEE70F
:1001D000FEE7FEE7FEE7FEE7FEE7FEE7FEE7FEE7F7
:1001E000FEE7FEE7FEE7FEE7FEE7FEE7FEE7FEE7E7
:1001F000FEE7FEE7FEE7FEE7FEE7FEE7FEE7FEE7D7
:10020000FEE7FEE7FEE7FEE7FEE7FEE7FEE7FEE7C6
:10021000FEE7FEE7FEE7FEE7FEE7FEE7FEE7FEE7B6
:10022000FEE7FEE7FEE7FEE7FEE7FEE7FEE7FEE7A6
:10023000FEE7FEE7FEE7FEE7FEE7FEE7FEE7FEE796
:10024000FEE7FEE7FEE7FEE7FEE7FEE7FEE7FEE786
:10025000FEE7FEE7FEE7FEE7FEE7FEE7FEE7FEE776
:10026000FEE7FEE7FEE7FEE7FEE7FEE7FEE7FEE766
:10027000FEE7FEE7FEE7FEE7FEE7FEE7FEE7FEE756
:10028000FEE7FEE7FEE7FEE7FEE70000B90200003A
:10029000A9010000064C074D06E0E06840F00103AC
:1002A00094E8070098471034AC42F6D3FFF780FF7C
:1002B000B40F0000D40F00004EF68850CEF20000BC
:1002C000016841F4700101607047000080B54FF68D
:1002D000AC72EFF3108172B64F28C0F611320EDC0B
:1002E0001E282CD028281BD140F2314348F6492043
:1002F00041F2A941C1F20013984762B680BD50286F
:1003000028D078280CD141F6894040F23143C0F220
:10031000010043F66B51C1F20013984762B680BDED
:1003200041F68940C0F2010040F2314300F59240AD
:1003300044F67441C1F20013984762B680BD40F2A2
:10034000314348F6491040F6A171C1F200139847B5
:1003500062B680BD40F231434DF2493042F64A1157
:10036000C1F20013984762B680BD000000EB810027
:10037000002101647047000000EB8100006C7047B1
:100380002DE9F04381B0074640F2FF70C4F204004B
:1003900000249846914687420D46C4F20A041ADDAD
:1003A00041F2FF70C4F2040087422ADC40F60000EC
:1003B000C4F20400874239D041F20000C4F20400C4
:1003C000874256D10820C4F200000168203441F071
:1003D000040101604DE0B7F1402F30D044F6000039
:1003E000C4F2000087423CD00020C4F204008742DF
:1003F0003FD10820C4F20000016841F00101016012
:1004000037E041F60000C4F20400874220D041F2F8
:100410000000C4F20A0087422BD10820C4F2000079
:100420004168403441F00101416022E00820C4F2FB
:1004300000000168103441F00201016019E0082059
:10044000C4F200000168803441F01001016010E046
:100450000820C4F200000168303441F00801016056
:1004600007E00820C4F200000168903441F0200148
:1004700001602046294600220123012600F002FAED
:1004800006FA05F07968B9F1010F14BF21EA0000FE
:100490000843786001210898A940D4F80021B8F1F8
:1004A000010F14BF22EA010111430122C4F8001117
:1004B000012802FA05F0D4F8002214BF22EA000055
:1004C00010430999C4F800020120A8400129D4F87A
:1004D00000140CBF084321EA0000C4F8000401B076
:1004E000BDE8F08300EB810001210164704700004A
:1004F00010B542F20004C4F20004204600F004F8F3
:10050000204600F073F810BD012101607047000023
:100510002DE9F04742F2000CC4F2000C604506D110
:100520000822C4F20002136843F0804313600B7882
:100530000E7F4A789D1E45EA861502F001074B7F23
:10054000ACF1402645EA074502F0FE0203FB06F641
:1005500045EA024206F500552A4342F4607291F8DA
:10056000068091F80AE042610D89CA896FF0FF099F
:100570004F8840F2000A09EB0525CFF6FF7A013AD1
:100580000AEB07462A433243A8F1010542EA856295
:10059000604582618A890D8A8C8809EB0222A5F167
:1005A00001050AEB044442EA050242EA0402AEF104
:1005B000010542EA8562C2618A69426240F2FF1225
:1005C0000264466484644969C164A7F1010101655C
:1005D0004FF001010160436018BFBDE8F087002BB8
:1005E00018BF00F02DFBBDE8F0870000C16841F0A6
:1005F0000201C160704700002DE9F04182B0402542
:10060000C4F20A0505F1400420460D210222002310
:1006100000F038F920460E21032200234FF00E0887
:1006200000F030F9A5F13006304607210122002301
:1006300000F028F9304608210422002300F022F9B6
:10064000304609210422002300F01CF930460A211B
:100650000422002300F016F928460F21012200236E
:1006600000F010F928460E210122002300F00AF9BB
:1006700005F1500738460E210122002300F002F94F
:1006800038460D210122002300F0FCF838460C21E9
:100690000122002300F0F6F838460B210122002346
:1006A00000F0F0F838460A210122002300F0EAF8B1
:1006B000384609210122002300F0E4F838460821D9
:1006C0000122002300F0DEF8384607210122002332
:1006D00000F0D8F8384606210122002300F0D2F8B5
:1006E000384603210222002300F0CCF838460F21BF
:1006F0000122002300F0C6F838460221012200231F
:1007000000F0C0F820460F210322002300F0BAF8C1
:10071000284607210122012300F0B4F828460621CB
:100720000122012300F0AEF8284605210122012311
:1007300000F0A8F8284604210122012300F0A2F8C5
:10074000284603210122012300F09CF828460221BB
:100750000122012300F096F82846012101220123FD
:1007600000F090F8284600210122012300F08AF8C9
:10077000284608210122012300F084F82846092197
:100780000122012300F07EF828460A2101220123DC
:1007900000F078F828460B210122012300F072F8BE
:1007A00028460C210122012300F06CF828460D2177
:1007B0000122012300F066F8203D28460E21012287
:1007C000012300F05FF828460F210122012300F0E9
:1007D00059F8304606210122002300F053F8204644
:1007E0000C210222002300F04DF84FF080400090D1
:1007F00040F20220ADF8040068468DF8068000F053
:1008000067F802B0BDE8F081B0B50024C4F20A0474
:100810004AF24005204603210F220023C4F20A05B4
:1008200000F030F8204604210F22002300F02AF8BF
:1008300055F8200C40F4702040F0220045F8200CC0
:1008400000F006FA00F004FA28684FF6006120F084
:10085000020028606868CFF6E04108406860686878
:1008600040F4403040F03C006860286820F004000C
:10087000286000BFE8680028FCD0286840F001002C
:100880002860B0BD70B56FF01F0C0CEB810C0446F6
:10089000082938BF4FEA810C4FF00F0E28BF0434EF
:1008A00026680EFA0CF5AE432660266802FA0CF2B2
:1008B00032432260012202FA01F1002BD0F800231A
:1008C0000CBF22EA01011143C0F8001370BD000003
:1008D00070B540F200010C25C2F200014278C4F26A
:1008E0000005096890F802C090F804E043792E688A
:1008F000541CB1FBF4F146F480562E604FF4484589
:1009000001FB05F586792B4443EA8E1340F2080576
:1009100043EA86034FF00846336090F90030C2F294
:100920000005DEB22D6842EAC602B5FBF4F542EAE4
:100930004C0441F28042C0F2EF32954288BF44F04D
:1009400004040C22C8F6000242F8084C032E9ABF99
:100950000EA656F823304FF48053C0784FF47A76C1
:1009600000FB06F0B0FBF3F0013000FB01F042F8B1
:10097000040C022010601068800758BF70BD00BFD3
:1009800000BF10688007FBD470BD00BF00100000DE
:100990000010000000200000000800004FF080411F
:1009A0000868C00740F20800C2F200000CD10968D4
:1009B000C1F38201042940D8DFE801F0031626299B
:1009C0002E004FF4FA4137E04AF20001C4F20A0166
:1009D0000968890745F60021C0F262215CBF42F632
:1009E0000051C0F231112FE04AF20001C4F20A01B5
:1009F000096C89074CF2EC11C0F6EB315CBF40F694
:100A00000061C0F2277117E04FF4004114E041F695
:100A10000031C0F2B7010FE042F60051C0F23111CF
:100A200001604AF20001C4F20A010968890704D58D
:100A300045F60021C0F2622101604FF08041096853
:100A4000890702D50168C908016000684DF6836115
:100A5000C4F21B31A0FB0101880C40F20001C2F27C
:100A60000001086070470000B0B57025C4F20005B1
:100A700055F8680C962440F0007045F8680C9620F4
:100A8000FFF724FC002000F053FAFFF787FF40F245
:100A90000800C2F20000006840F60061C0F2277151
:100AA000884217D84BF20041C0F2C441884201D9B4
:100AB00078240FE045F60021C0F26221884201D976
:100AC000502407E04CF28031C0F2C9111E24884244
:100AD00088BF28242046FFF7F9FB40F28010C4F2BB
:100AE0000A00D0F8001121F00201C0F800110168DD
:100AF00021F00C010160286820F0060028602868B9
:100B000040F002002860B0BD2DE9F04F81B040F206
:100B1000800B8246824291460F46BCBF8146924678
:100B2000C2F2000B8B42B8BF1F46DBF800009846AC
:100B3000B8BF884690F864100A9D89070AD5066EEA
:100B40000FFA8AF039B20FFA89F20FFA88F300959A
:100B5000B047A0B10FFA89F40FFA88F8564600BFE3
:100B6000DBF8000039B2036830B22A469847701C9F
:100B700006B2A642F4DD781C07B24745EEDD01B0AF
:100B8000BDE8F08F80B582B040F28001C2F2000172
:100B9000096884468888C9880138013902B20BB2D5
:100BA00000200021CDF800C0FFF7AEFF02B080BDED
:100BB000844601608280C3804FF00410591FCCF836
:100BC0002000501FACF82610ACF81E106FF07F41CB
:100BD000ACF82400ACF81C0040F20110CCF848102E
:100BE00048F6EF31ACF844000020C0F25E01CCE9D9
:100BF00013010021CCF83000CCF84000CCF83A00CA
:100C0000CCF83600CCE90400CCF818000CEBC1029B
:100C100001310329906582F85C00F7D140F2800130
:100C2000C2F200010120C1F800C0704740F2040385
:100C3000C2F200031B6800EB812043F820207047BC
:100C40004EF20810CEF200004FF4007101607047C0
:100C50004FF080400168C90710D1006810F01C0FE8
:100C600006D04FF08040006800F01C00082805D135
:100C7000142000BF013800BFFCD104E044F620601E
:100C8000013800BFFCD17047B0B58AB041F600050D
:100C9000C4F2040500242846012101220123009406
:100CA0000194FFF76DFB28460121FFF75FFB44F23B
:100CB0004020C0F20F0000BF013800BFFCD1284621
:100CC0000121FFF70FFC00242846092101220123FE
:100CD00000940194FFF754FB28460921FFF702FC1A
:100CE00000F02EF840F20310ADF8080040F200408A
:100CF000C0F25820CDF80A0040208DF80E008C205C
:100D0000ADF810000C208DF812004FF01410059073
:100D100040F20400C2F200000068032107904FF483
:100D20007F00089040F20110ADF81810ADF82400D3
:100D3000A5F57E3002A9FFF7EBFB0AB0B0BD0000BD
:100D400070B52024C4F20A042046042106220023A0
:100D5000FFF798FD2046052104220023FFF792FDAE
:100D60002046082101220023FFF78CFD204609219F
:100D700004220023FFF786FD20460A2104220023D7
:100D8000FFF780FD20460B2104220023FFF77AFDA8
:100D900020460C2103220023FFF774FD20460D217D
:100DA00006220023FFF76EFDA4F1200528460C2142
:100DB00004220023FFF766FD28460D2104220023AC
:100DC000FFF760FD28460E2102220023FFF75AFD9F
:100DD00028460F2102220023FFF754FD2046002160
:100DE00005220023FFF74EFD2046012106220023A5
:100DF000FFF748FD2046022106220023FFF742FDAF
:100E00002046032106220023FFF73CFDA4F1100633
:100E10003046012104220023FFF734FD30460B2128
:100E200006220023FFF72EFD30460D210722002366
:100E3000FFF728FD30460F2107220023FFF722FD90
:100E40002846022104220023FFF71CFD2846092121
:100E500002220023FFF716FD28460A21052200235F
:100E6000FFF710FD28460B2104220023FFF70AFD9F
:100E70003046052106220023FFF704FD30460221FB
:100E800006220023FFF7FEFC6034204608210322DF
:100E90000023FFF7F7FC20460B2102220023FFF777
:100EA000F1FC70BD82B00024C4F20404FFF7DCFD45
:100EB0000025204600210022012300950195FFF71F
:100EC0005FFA204605210122002300950195FFF7D6
:100ED00057FAFFF791FBFFF7D7FEA4F57830FFF73D
:100EE00085FB00F047F84FF47F00FFF74BFE03E06F
:100EF00020460521FFF73AFA20460021FFF73CFA89
:100F00000028F5D120460521FFF7ECFAF4E70000B0
:100F100080B54AF20000C4F20A0001210160FFF727
:100F200097FE4FF08040016841F00101016080BDF3
:100F300010B50446FFF7ECFFFFF766FC0420C4F28F
:100F40000000012101604FF080400168002C21F079
:100F50001C010160016841F004010160016821F099
:100F6000020118BF02310160016821F00101016036
:100F700010BD000080B540F2100040F62D41C2F2D5
:100F80000000C0F200014FF480624FF41673FFF7C7
:100F90000FFE80BD02E008C8121F08C1002AFAD166
:100FA00070477047002001E001C1121F002AFBD1E9
:100FB00070470000D80F0000000000201000000063
:100FC000940F0000E80F000010000020784000009F
:100FD000A40F0000000000001400000000000080CA
:080FE000002D310100000000AA
:04000005000001A94D
:00000001FF
