:020000040000FA
:1000000008400020BD010000C5010000C70100003C
:10001000C9010000CB010000CD010000000000007C
:10002000000000000000000000000000CF01000000
:10003000D101000000000000D3010000D501000044
:10004000D7010000D9010000DB010000DD01000044
:10005000DF010000E1010000E3010000E501000014
:10006000E7010000E9010000EB010000ED010000E4
:10007000EF010000F1010000F3010000F5010000B4
:10008000F7010000F9010000FB010000FD01000084
:10009000FF01000001020000030200000502000051
:1000A00007020000090200000B0200000D02000020
:1000B0000F020000110200001302000015020000F0
:1000C00017020000190200001B0200001D020000C0
:1000D0001F02000021020000230200002502000090
:1000E00027020000290200002B0200002D02000060
:1000F0002F02000031020000330200003502000030
:1001000037020000390200003B0200003D020000FF
:100110003F020000410200004302000045020000CF
:1001200047020000490200004B0200004D0200009F
:100130004F0200005102000053020000550200006F
:1001400057020000590200005B0200005D0200003F
:100150005F0200006102000063020000650200000F
:1001600067020000690200006B0200006D020000DF
:100170006F020000710200007302000075020000AF
:1001800077020000790200007B0200007D0200007F
:100190007F0200008102000083020000850200004F
:1001A0008702000089020000DFF80CD000F072F82E
:1001B000004800475D0700000840002033488047A2
:1001C00033480047FEE7FEE7FEE7FEE7FEE7FEE70F
:1001D000FEE7FEE7FEE7FEE7FEE7FEE7FEE7FEE7F7
:1001E000FEE7FEE7FEE7FEE7FEE7FEE7FEE7FEE7E7
:1001F000FEE7FEE7FEE7FEE7FEE7FEE7FEE7FEE7D7
:10020000FEE7FEE7FEE7FEE7FEE7FEE7FEE7FEE7C6
:10021000FEE7FEE7FEE7FEE7FEE7FEE7FEE7FEE7B6
:10022000FEE7FEE7FEE7FEE7FEE7FEE7FEE7FEE7A6
:10023000FEE7FEE7FEE7FEE7FEE7FEE7FEE7FEE796
:10024000FEE7FEE7FEE7FEE7FEE7FEE7FEE7FEE786
:10025000FEE7FEE7FEE7FEE7FEE7FEE7FEE7FEE776
:10026000FEE7FEE7FEE7FEE7FEE7FEE7FEE7FEE766
:10027000FEE7FEE7FEE7FEE7FEE7FEE7FEE7FEE756
:10028000FEE7FEE7FEE7FEE7FEE70000B90200003A
:10029000A9010000064C074D06E0E06840F00103AC
:1002A00094E8070098471034AC42F6D3FFF780FF7C
:1002B0002C0800004C0800004EF68850CEF20000DA
:1002C000016841F4700101607047000080B54FF68D
:1002D000AC72EFF3108172B64F28C0F611320EDC0B
:1002E0001E282CD028281BD140F2314348F6492043
:1002F00041F2A941C1F20013984762B680BD50286F
:1003000028D078280CD141F6894040F23143C0F220
:10031000010043F66B51C1F20013984762B680BDED
:1003200041F68940C0F2010040F2314300F59240AD
:1003300044F67441C1F20013984762B680BD40F2A2
:10034000314348F6491040F6A171C1F200139847B5
:1003500062B680BD40F231434DF2493042F64A1157
:10036000C1F20013984762B680BD000000EB810027
:10037000002101647047000000EB8100006C7047B1
:100380002DE9F04381B0074640F2FF70C4F204004B
:1003900000249846914687420D46C4F20A041ADDAD
:1003A00041F2FF70C4F2040087422ADC40F60000EC
:1003B000C4F20400874239D041F20000C4F20400C4
:1003C000874256D10820C4F200000168203441F071
:1003D000040101604DE0B7F1402F30D044F6000039
:1003E000C4F2000087423CD00020C4F204008742DF
:1003F0003FD10820C4F20000016841F00101016012
:1004000037E041F60000C4F20400874220D041F2F8
:100410000000C4F20A0087422BD10820C4F2000079
:100420004168403441F00101416022E00820C4F2FB
:1004300000000168103441F00201016019E0082059
:10044000C4F200000168803441F01001016010E046
:100450000820C4F200000168303441F00801016056
:1004600007E00820C4F200000168903441F0200148
:1004700001602046294600220123012600F076F87B
:1004800006FA05F07968B9F1010F14BF21EA0000FE
:100490000843786001210898A940D4F80021B8F1F8
:1004A000010F14BF22EA010111430122C4F8001117
:1004B000012802FA05F0D4F8002214BF22EA000055
:1004C00010430999C4F800020120A8400129D4F87A
:1004D00000140CBF084321EA0000C4F8000401B076
:1004E000BDE8F08300EB810001210164704700004A
:1004F000B0B50024C4F20A044AF2400520460321A4
:100500000F220023C4F20A0500F030F8204604212F
:100510000F22002300F02AF855F8200C40F4702038
:1005200040F0220045F8200C00F0FCF800F0FAF84A
:1005300028684FF6006120F0020028606868CFF656
:10054000E04108406860686840F4403040F03C009A
:100550006860286820F00400286000BFE868002870
:10056000FCD0286840F001002860B0BD70B56FF085
:100570001F0C0CEB810C0446082938BF4FEA810C94
:100580004FF00F0E28BF043426680EFA0CF5AE4368
:100590002660266802FA0CF232432260012202FA37
:1005A00001F1002BD0F800230CBF22EA0101114316
:1005B000C0F8001370BD00004FF080410868C0070C
:1005C00040F20400C2F200000CD10968C1F38201BC
:1005D000042940D8DFE801F0031626292E004FF445
:1005E000FA4137E04AF20001C4F20A0109688907BA
:1005F00045F60021C0F262215CBF42F60051C0F214
:1006000031112FE04AF20001C4F20A01096C890796
:100610004CF2EC11C0F6EB315CBF40F60061C0F269
:10062000277117E04FF4004114E041F60031C0F2A9
:10063000B7010FE042F60051C0F2311101604AF2F9
:100640000001C4F20A010968890704D545F60021B2
:10065000C0F2622101604FF080410968890702D52C
:100660000168C908016000684DF68361C4F21B315E
:10067000A0FB0101880C40F20001C2F200010860F9
:1006800070470000B0B57025C4F2000555F8680C3D
:10069000962440F0007045F8680C9620FFF716FE8F
:1006A000002000F093F8FFF787FF40F20400C2F249
:1006B0000000006840F60061C0F22771884217D838
:1006C0004BF20041C0F2C441884201D978240FE0C6
:1006D00045F60021C0F26221884201D9502407E08A
:1006E0004CF28031C0F2C9111E24884288BF2824F0
:1006F0002046FFF7EBFD40F28010C4F20A00D0F86C
:10070000001121F00201C0F80011016821F00C0174
:100710000160286820F006002860286840F0020088
:100720002860B0BD4FF080400168C90710D1006853
:1007300010F01C0F06D04FF08040006800F01C0045
:10074000082805D1142000BF013800BFFCD104E007
:1007500044F62060013800BFFCD1704782B000240D
:10076000C4F20404FFF78EFF00252046002100227A
:10077000012300950195FFF703FE20460521012284
:10078000002300950195FFF7FBFD03E020460521BE
:10079000FFF7ECFD20460021FFF7EEFD0028F5D124
:1007A00020460521FFF79EFEF4E7000080B54AF2DF
:1007B0000000C4F20A0001210160FFF7B3FF4FF00F
:1007C0008040016841F00101016080BD10B5044620
:1007D000FFF7ECFFFFF78CFE0420C4F200000121BC
:1007E00001604FF080400168002C21F01C01016085
:1007F000016841F004010160016821F0020118BFA5
:1008000002310160016821F00101016010BD02E0C8
:1008100008C8121F08C1002AFAD17047704700208B
:1008200001E001C1121F002AFBD1704750080000EF
:1008300000000020080000000E080000580800001A
:1008400008000020004000001E080000000000001A
:0808500014000000002D31012D
:04000005000001A94D
:00000001FF
