:020000040000FA
:1000000018440020BD010000C5010000C701000028
:10001000C9010000CB010000CD010000000000007C
:10002000000000000000000000000000CF01000000
:10003000D101000000000000D3010000D501000044
:10004000D7010000D9010000DB010000DD01000044
:10005000DF010000E1010000E3010000E501000014
:10006000FD080000E9010000EB010000ED010000C7
:10007000EF010000F1010000F3010000F5010000B4
:10008000F7010000F9010000FB010000FD01000084
:10009000FF01000001020000030200000502000051
:1000A00007020000090200000B0200000D02000020
:1000B0000F020000110200001302000015020000F0
:1000C00017020000190200001B0200001D020000C0
:1000D0001F02000021020000230200002502000090
:1000E00027020000290200002B0200002D02000060
:1000F0002F02000031020000330200003502000030
:1001000037020000390200003B0200003D020000FF
:100110003F020000410200004302000045020000CF
:1001200047020000490200004B0200004D0200009F
:100130004F0200005102000053020000550200006F
:1001400057020000590200005B0200005D0200003F
:100150005F0200006102000063020000650200000F
:10016000670200009D0600006B0200006D020000A7
:100170006F020000710200007302000075020000AF
:1001800077020000790200007B0200007D0200007F
:100190007F0200008102000083020000850200004F
:1001A0008702000089020000DFF80CD000F084F81C
:1001B000004800471D0C00001844002033488047C9
:1001C00033480047FEE7FEE7FEE7FEE7FEE7FEE70F
:1001D000FEE7FEE7FEE7FEE7FEE7FEE7FEE7FEE7F7
:1001E000FEE7FEE7FEE7FEE7FEE7FEE7FEE7FEE7E7
:1001F000FEE7FEE7FEE7FEE7FEE7FEE7FEE7FEE7D7
:10020000FEE7FEE7FEE7FEE7FEE7FEE7FEE7FEE7C6
:10021000FEE7FEE7FEE7FEE7FEE7FEE7FEE7FEE7B6
:10022000FEE7FEE7FEE7FEE7FEE7FEE7FEE7FEE7A6
:10023000FEE7FEE7FEE7FEE7FEE7FEE7FEE7FEE796
:10024000FEE7FEE7FEE7FEE7FEE7FEE7FEE7FEE786
:10025000FEE7FEE7FEE7FEE7FEE7FEE7FEE7FEE776
:10026000FEE7FEE7FEE7FEE7FEE7FEE7FEE7FEE766
:10027000FEE7FEE7FEE7FEE7FEE7FEE7FEE7FEE756
:10028000FEE7FEE7FEE7FEE7FEE70000650400008C
:10029000A901000040EA01039B0703D009E008C957
:1002A000121F08C0042AFAD203E011F8013B00F83B
:1002B000013B521EF9D27047064C074D06E0E0683C
:1002C00040F0010394E8070098471034AC42F6D39D
:1002D000FFF76EFF640D0000840D000040F208007F
:1002E000C2F20000D0F80014D0F80404081A6FF32A
:1002F0009F20704780B5FFF7F1FFB0FA80F040090A
:1003000080BD000080B500F04FF8B0FA80F04009E1
:1003100080BD00002DE9F04381B040F20809C2F22F
:100320000009D9F80024D9F804640C46B24280468A
:1003300025DAC6F580672546A742B8BF3D4609EBDA
:10034000060140462A46FFF7A5FFD9F8040440F20B
:10035000FF322844C11700EB9151A74221EA020164
:10036000A0EB0100C9F804041ADAFFF7C3FFB8B91B
:1003700008EB0500611BFFF7CDFF054410E0FFF718
:10038000ADFFA042B8BF044609EB06014046224635
:10039000FFF780FFD9F8040425462044C9F8040477
:1003A000284601B0BDE8F08340F20800C2F2000028
:1003B000D0F80014D0F80404C94308446FF39F2018
:1003C000704700002DE9F04381B040F20809C2F205
:1003D0000009D9F80054D9F804240C469542804607
:1003E00011DAFFF7E1FFA042B8BF044609EB0500B0
:1003F00041462246FFF74EFFD9F800042646204426
:10040000C9F8000429E04FF48060002A08BF40F2D8
:10041000FF30471B2646A742B8BF3E4609EB050002
:1004200041463246FFF736FFD9F8000440F2FF326A
:100430003044C11700EB9151A74221EA0201A0EB21
:100440000100C9F8000408DAFFF75CFF28B908EBDF
:100450000600A11BFFF7B6FF0644304601B0BDE819
:10046000F08300004EF68850CEF20000016841F49F
:10047000700101607047000080B54FF6AC72EFF379
:10048000108172B64F28C0F611320EDC1E282CD017
:1004900028281BD140F2314348F6492041F2A941B6
:1004A000C1F20013984762B680BD502828D0782842
:1004B0000CD141F6894040F23143C0F2010043F6CD
:1004C0006B51C1F20013984762B680BD41F6894076
:1004D000C0F2010040F2314300F5924044F674410D
:1004E000C1F20013984762B680BD40F2314348F62E
:1004F000491040F6A171C1F20013984762B680BD61
:1005000040F231434DF2493042F64A11C1F2001334
:10051000984762B680BD000000EB810000210164B5
:100520007047000000EB8100006C70472DE9F0433C
:1005300081B0074640F2FF70C4F2040000249846E0
:10054000914687420D46C4F20A041ADD41F2FF705B
:10055000C4F2040087422ADC40F60000C4F2040022
:10056000874239D041F20000C4F20400874256D1DC
:100570000820C4F200000168203441F00401016049
:100580004DE0B7F1402F30D044F60000C4F2000037
:1005900087423CD00020C4F2040087423FD10820AB
:1005A000C4F20000016841F00101016037E041F64A
:1005B0000000C4F20400874220D041F20000C4F2DF
:1005C0000A0087422BD10820C4F200004168403461
:1005D00041F00101416022E00820C4F200000168FE
:1005E000103441F00201016019E00820C4F200005B
:1005F0000168803441F01001016010E00820C4F26D
:1006000000000168303441F00801016007E0082073
:10061000C4F200000168903441F0200101602046DE
:10062000294600220123012600F08CF806FA05F085
:100630007968B9F1010F14BF21EA0000084378601E
:1006400001210898A940D4F80021B8F1010F14BF86
:1006500022EA010111430122C4F80011012802FA23
:1006600005F0D4F8002214BF22EA000010430999D3
:10067000C4F800020120A8400129D4F800140CBFDE
:10068000084321EA0000C4F8000401B0BDE8F0838B
:1006900000EB8100012101647047000010B542F2B7
:1006A0000004C4F20004204600F004F8204600F0E4
:1006B00005F810BD0121016070470000C16841F0DC
:1006C0000201C16070470000B0B50024C4F20A0402
:1006D0004AF24005204603210F220023C4F20A05F6
:1006E00000F030F8204604210F22002300F02AF801
:1006F00055F8200C40F4702040F0220045F8200C02
:1007000000F06AFA00F068FA28684FF6006120F0FD
:10071000020028606868CFF6E041084068606868B9
:1007200040F4403040F03C006860286820F004004D
:10073000286000BFE8680028FCD0286840F001006D
:100740002860B0BD70B56FF01F0C0CEB810C044637
:10075000082938BF4FEA810C4FF00F0E28BF043430
:1007600026680EFA0CF5AE432660266802FA0CF2F3
:1007700032432260012202FA01F1002BD0F800235B
:100780000CBF22EA01011143C0F8001370BD000044
:100790004FF080410868C00740F20400C2F2000038
:1007A0000CD10968C1F38201042940D8DFE801F0C7
:1007B000031626292E004FF4FA4137E04AF20001D1
:1007C000C4F20A010968890745F60021C0F26221D6
:1007D0005CBF42F60051C0F231112FE04AF2000135
:1007E000C4F20A01096C89074CF2EC11C0F6EB3136
:1007F0005CBF40F60061C0F2277117E04FF4004182
:1008000014E041F60031C0F2B7010FE042F60051AA
:10081000C0F2311101604AF20001C4F20A01096814
:10082000890704D545F60021C0F2622101604FF02E
:1008300080410968890702D50168C908016000681C
:100840004DF68361C4F21B31A0FB0101880C40F21C
:100850000001C2F20001086070470000B0B57025C9
:10086000C4F2000555F8680C962440F0007045F875
:10087000680C9620FFF700FE002000F015FAFFF745
:1008800087FF40F20400C2F20000006840F60061F9
:10089000C0F22771884217D84BF20041C0F2C44120
:1008A000884201D978240FE045F60021C0F2622188
:1008B000884201D9502407E04CF28031C0F2C911BE
:1008C0001E24884288BF28242046FFF7D5FD40F229
:1008D0008010C4F20A00D0F8001121F00201C0F823
:1008E0000011016821F00C010160286820F0060069
:1008F0002860286840F002002860B0BDB0B582B022
:1009000043F20004C4F20404204644F2100100F053
:1009100065F8A0B1204600F021F9D8B120464FF487
:10092000804100F05BF850B120464FF4804100F068
:1009300043F840F21040C2F200000121017020464D
:10094000042100F04BF818B1204600F00DF998B1E1
:1009500002B0B0BD01AD04E0204600F0FFF8002871
:10096000DCD12046294600F009F90028F4D12846B8
:100970000121FFF727FDEFE701AD00BFFFF7BAFC4C
:1009800070B928460121FFF7C5FC9DF804102046E8
:1009900000F0FCF8204600F0E7F80028EED0D7E79A
:1009A0002046042100F010F802B0B0BD416821F4E7
:1009B0000071416070470000490458BF7047C16929
:1009C00041F40051C1617047426822EA010141606F
:1009D000704700004268114341607047CA0644BF37
:1009E00082685FEA422212D44A0444BF82685FEA06
:1009F00082220CD44A0744BF82685FEA823206D45E
:100A0000490652BF00208068C0F3C06070470120D3
:100A10007047000070B50446A0F18040A0F5842026
:100A20004FEAF026032E0D4608D8082147A0C4F24D
:100A3000000150F826000A68104308602046FFF7BE
:100A4000B5FFA0684CF20001C0F6FF710840A0603D
:100A500040F20400C2F2000000682968032EB0FBD7
:100A6000F1F0A168A0F1010041EA3010A0606068D7
:100A700020F47C006060687929794FEAC04040EA40
:100A80008140A979626840EA020040EA81506060D2
:100A9000E06880B2E060E879697AE26842EA0040A2
:100AA00040EA016040F6FF71E060E06920EA010081
:100AB000E061E87AE16940EA010040F48050E061D9
:100AC000606844F2140120EA01006060AA7A297A81
:100AD0004FEA8203287B43EA0113656843EA050372
:100AE00043EA8033636088BF70BDDFE806F0020927
:100AF00010171143084318D0002000F059F870BDBA
:100B00001143084315D0012000F052F870BD114385
:100B1000084312D0082000F04BF870BD1143084381
:100B20000FD0152000F044F870BD002000F030F820
:100B300070BD012000F02CF870BD082000F028F8EE
:100B400070BD152000F024F870BD00BF400000000B
:100B50008000000000010000000200004068012148
:100B600021EAD000704700004068C0F340007047A1
:100B7000416841F400714160704700000268022042
:100B800000EA52206FF35F220A60704701607047ED
:100B900000F01F00012101FA00F04EF28011CEF2A8
:100BA00000010860BFF34F8FBFF36F8F70470000E5
:100BB00000F01F00012101FA00F04EF20011CEF208
:100BC000000108607047000040F21040C2F20000CF
:100BD00000210170704700004FF080400168C90794
:100BE00010D1006810F01C0F06D04FF08040006854
:100BF00000F01C00082805D1142000BF013800BFF8
:100C0000FCD104E044F62060013800BFFCD17047FD
:100C100040F21040C2F200000078704782B0002419
:100C2000C4F20404FFF71AFE00252046002100222A
:100C3000012300950195FFF779FC2046052101224B
:100C4000002300950195FFF771FC00F04FF804F5C3
:100C5000405508E020460021FFF764FC70B12046B3
:100C60000521FFF759FCFFF7D3FF0028F2D0FFF76B
:100C7000ABFF28460421FFF7ADFEEBE72046052138
:100C8000FFF706FDEFE7000080B54AF20000C4F26E
:100C90000A0001210160FFF79FFF4FF080400168CB
:100CA00041F00101016080BD10B50446FFF7ECFF83
:100CB000FFF70AFD0420C4F20000012101604FF09B
:100CC00080400168002C21F01C010160016841F0A6
:100CD00004010160016821F0020118BF02310160C6
:100CE000016821F00101016010BD0000B0B584B0C1
:100CF0001024C4F20A0420460D21032201230125F9
:100D0000FFF720FD20460B2102220023FFF71AFDEA
:100D10004FF4614000904FF04070019040F201307C
:100D200043F20004C0F60020C4F2040402906946B5
:100D300020468DF80C50FFF76DFE2046FFF718FF98
:100D400004B0B0BD02E008C8121F08C1002AFAD1E1
:100D500070477047002001E001C1121F002AFBD13B
:100D600070470000880D000000000020080000000F
:100D7000440D0000900D0000080000201044000009
:100D8000540D00000000000014000000002D31018F
:04000005000001A94D
:00000001FF
