:020000040000FA
:1000000010400020BD010000C5010000C701000034
:10001000C9010000CB010000CD010000000000007C
:10002000000000000000000000000000CF01000000
:10003000D101000000000000D3010000D501000044
:10004000D7010000D9010000DB010000DD01000044
:10005000DF010000E1010000E3010000E501000014
:10006000E7010000E9010000EB010000ED010000E4
:10007000EF010000F1010000F3010000F5010000B4
:10008000F7010000F9010000FB010000FD01000084
:10009000FF01000001020000030200000502000051
:1000A00007020000090200000B0200000D02000020
:1000B0000F020000110200001302000015020000F0
:1000C00017020000190200001B0200001D020000C0
:1000D0001F02000021020000230200002502000090
:1000E00027020000290200002B0200002D02000060
:1000F0002F02000031020000330200003502000030
:1001000037020000390200003B0200003D020000FF
:100110003F020000410200004302000045020000CF
:1001200047020000490200004B0200004D0200009F
:100130004F0200005102000053020000550200006F
:1001400057020000590200005B0200005D0200003F
:100150005F0200006102000063020000650200000F
:1001600067020000F10400006B0200006D02000055
:100170006F020000710200007302000075020000AF
:1001800077020000790200007B0200007D0200007F
:100190007F0200008102000083020000850200004F
:1001A0008702000089020000DFF80CD000F072F82E
:1001B00000480047E10D0000104000203348804710
:1001C00033480047FEE7FEE7FEE7FEE7FEE7FEE70F
:1001D000FEE7FEE7FEE7FEE7FEE7FEE7FEE7FEE7F7
:1001E000FEE7FEE7FEE7FEE7FEE7FEE7FEE7FEE7E7
:1001F000FEE7FEE7FEE7FEE7FEE7FEE7FEE7FEE7D7
:10020000FEE7FEE7FEE7FEE7FEE7FEE7FEE7FEE7C6
:10021000FEE7FEE7FEE7FEE7FEE7FEE7FEE7FEE7B6
:10022000FEE7FEE7FEE7FEE7FEE7FEE7FEE7FEE7A6
:10023000FEE7FEE7FEE7FEE7FEE7FEE7FEE7FEE796
:10024000FEE7FEE7FEE7FEE7FEE7FEE7FEE7FEE786
:10025000FEE7FEE7FEE7FEE7FEE7FEE7FEE7FEE776
:10026000FEE7FEE7FEE7FEE7FEE7FEE7FEE7FEE766
:10027000FEE7FEE7FEE7FEE7FEE7FEE7FEE7FEE756
:10028000FEE7FEE7FEE7FEE7FEE70000B90200003A
:10029000A9010000064C074D06E0E06840F00103AC
:1002A00094E8070098471034AC42F6D3FFF780FF7C
:1002B000C00E0000E00E00004EF68850CEF20000A6
:1002C000016841F4700101607047000080B54FF68D
:1002D000AC72EFF3108172B64F28C0F611320EDC0B
:1002E0001E282CD028281BD140F2314348F6492043
:1002F00041F2A941C1F20013984762B680BD50286F
:1003000028D078280CD141F6894040F23143C0F220
:10031000010043F66B51C1F20013984762B680BDED
:1003200041F68940C0F2010040F2314300F59240AD
:1003300044F67441C1F20013984762B680BD40F2A2
:10034000314348F6491040F6A171C1F200139847B5
:1003500062B680BD40F231434DF2493042F64A1157
:10036000C1F20013984762B680BD000000EB810027
:10037000002101647047000000EB8100006C7047B1
:100380002DE9F04381B0074640F2FF70C4F204004B
:1003900000249846914687420D46C4F20A041ADDAD
:1003A00041F2FF70C4F2040087422ADC40F60000EC
:1003B000C4F20400874239D041F20000C4F20400C4
:1003C000874256D10820C4F200000168203441F071
:1003D000040101604DE0B7F1402F30D044F6000039
:1003E000C4F2000087423CD00020C4F204008742DF
:1003F0003FD10820C4F20000016841F00101016012
:1004000037E041F60000C4F20400874220D041F2F8
:100410000000C4F20A0087422BD10820C4F2000079
:100420004168403441F00101416022E00820C4F2FB
:1004300000000168103441F00201016019E0082059
:10044000C4F200000168803441F01001016010E046
:100450000820C4F200000168303441F00801016056
:1004600007E00820C4F200000168903441F0200148
:1004700001602046294600220123012600F002FAED
:1004800006FA05F07968B9F1010F14BF21EA0000FE
:100490000843786001210898A940D4F80021B8F1F8
:1004A000010F14BF22EA010111430122C4F8001117
:1004B000012802FA05F0D4F8002214BF22EA000055
:1004C00010430999C4F800020120A8400129D4F87A
:1004D00000140CBF084321EA0000C4F8000401B076
:1004E000BDE8F08300EB810001210164704700004A
:1004F00010B542F20004C4F20004204600F004F8F3
:10050000204600F073F810BD012101607047000023
:100510002DE9F04742F2000CC4F2000C604506D110
:100520000822C4F20002136843F0804313600B7882
:100530000E7F4A789D1E45EA861502F001074B7F23
:10054000ACF1402645EA074502F0FE0203FB06F641
:1005500045EA024206F500552A4342F4607291F8DA
:10056000068091F80AE042610D89CA896FF0FF099F
:100570004F8840F2000A09EB0525CFF6FF7A013AD1
:100580000AEB07462A433243A8F1010542EA856295
:10059000604582618A890D8A8C8809EB0222A5F167
:1005A00001050AEB044442EA050242EA0402AEF104
:1005B000010542EA8562C2618A69426240F2FF1225
:1005C0000264466484644969C164A7F1010101655C
:1005D0004FF001010160436018BFBDE8F087002BB8
:1005E00018BF00F091FABDE8F0870000C16841F043
:1005F0000201C160704700002DE9F04182B0402542
:10060000C4F20A0505F1400420460D210222002310
:1006100000F038F920460E21032200234FF00E0887
:1006200000F030F9A5F13006304607210122002301
:1006300000F028F9304608210422002300F022F9B6
:10064000304609210422002300F01CF930460A211B
:100650000422002300F016F928460F21012200236E
:1006600000F010F928460E210122002300F00AF9BB
:1006700005F1500738460E210122002300F002F94F
:1006800038460D210122002300F0FCF838460C21E9
:100690000122002300F0F6F838460B210122002346
:1006A00000F0F0F838460A210122002300F0EAF8B1
:1006B000384609210122002300F0E4F838460821D9
:1006C0000122002300F0DEF8384607210122002332
:1006D00000F0D8F8384606210122002300F0D2F8B5
:1006E000384603210222002300F0CCF838460F21BF
:1006F0000122002300F0C6F838460221012200231F
:1007000000F0C0F820460F210322002300F0BAF8C1
:10071000284607210122012300F0B4F828460621CB
:100720000122012300F0AEF8284605210122012311
:1007300000F0A8F8284604210122012300F0A2F8C5
:10074000284603210122012300F09CF828460221BB
:100750000122012300F096F82846012101220123FD
:1007600000F090F8284600210122012300F08AF8C9
:10077000284608210122012300F084F82846092197
:100780000122012300F07EF828460A2101220123DC
:1007900000F078F828460B210122012300F072F8BE
:1007A00028460C210122012300F06CF828460D2177
:1007B0000122012300F066F8203D28460E21012287
:1007C000012300F05FF828460F210122012300F0E9
:1007D00059F8304606210122002300F053F8204644
:1007E0000C210222002300F04DF84FF080400090D1
:1007F00040F20220ADF8040068468DF8068000F053
:1008000067F802B0BDE8F081B0B50024C4F20A0474
:100810004AF24005204603210F220023C4F20A05B4
:1008200000F030F8204604210F22002300F02AF8BF
:1008300055F8200C40F4702040F0220045F8200CC0
:1008400000F06AF900F068F928684FF6006120F0BE
:10085000020028606868CFF6E04108406860686878
:1008600040F4403040F03C006860286820F004000C
:10087000286000BFE8680028FCD0286840F001002C
:100880002860B0BD70B56FF01F0C0CEB810C0446F6
:10089000082938BF4FEA810C4FF00F0E28BF0434EF
:1008A00026680EFA0CF5AE432660266802FA0CF2B2
:1008B00032432260012202FA01F1002BD0F800231A
:1008C0000CBF22EA01011143C0F8001370BD000003
:1008D00070B540F200010C25C2F200014278C4F26A
:1008E0000005096890F802C090F804E043792E688A
:1008F000541CB1FBF4F146F480562E604FF4484589
:1009000001FB05F586792B4443EA8E1340F2080576
:1009100043EA86034FF00846336090F90030C2F294
:100920000005DEB22D6842EAC602B5FBF4F542EAE4
:100930004C0441F28042C0F2EF32954288BF44F04D
:1009400004040C22C8F6000242F8084C032E9ABF99
:100950000EA656F823304FF48053C0784FF47A76C1
:1009600000FB06F0B0FBF3F0013000FB01F042F8B1
:10097000040C022010601068800758BF70BD00BFD3
:1009800000BF10688007FBD470BD00BF00100000DE
:100990000010000000200000000800004FF080411F
:1009A0000868C00740F20800C2F200000CD10968D4
:1009B000C1F38201042940D8DFE801F0031626299B
:1009C0002E004FF4FA4137E04AF20001C4F20A0166
:1009D0000968890745F60021C0F262215CBF42F632
:1009E0000051C0F231112FE04AF20001C4F20A01B5
:1009F000096C89074CF2EC11C0F6EB315CBF40F694
:100A00000061C0F2277117E04FF4004114E041F695
:100A10000031C0F2B7010FE042F60051C0F23111CF
:100A200001604AF20001C4F20A010968890704D58D
:100A300045F60021C0F2622101604FF08041096853
:100A4000890702D50168C908016000684DF6836115
:100A5000C4F21B31A0FB0101880C40F20001C2F27C
:100A60000001086070470000B0B57025C4F20005B1
:100A700055F8680C962440F0007045F8680C9620F4
:100A8000FFF724FC002000F0EBF9FFF787FF40F2AE
:100A90000800C2F20000006840F60061C0F2277151
:100AA000884217D84BF20041C0F2C441884201D9B4
:100AB00078240FE045F60021C0F26221884201D976
:100AC000502407E04CF28031C0F2C9111E24884244
:100AD00088BF28242046FFF7F9FB40F28010C4F2BB
:100AE0000A00D0F8001121F00201C0F800110168DD
:100AF00021F00C010160286820F0060028602868B9
:100B000040F002002860B0BD4EF20810CEF20000A6
:100B10004FF40071016070474FF080400168C907D1
:100B200010D1006810F01C0F06D04FF08040006814
:100B300000F01C00082805D1142000BF013800BFB8
:100B4000FCD104E044F62060013800BFFCD17047BE
:100B5000B0B58AB041F60005C4F204050024284669
:100B600001210122012300940194FFF709FC28468A
:100B70000121FFF7FBFB44F24020C0F20F0000BF51
:100B8000013800BFFCD128460121FFF7ABFC00244F
:100B9000284609210122012300940194FFF7F0FB6C
:100BA00028460921FFF79EFC00F02CF840F2004196
:100BB000C0F25821CDF80A1040218DF80E108C217A
:100BC000ADF810100C218DF812104FF01411059192
:100BD00040F204010320C2F20001ADF808000968E8
:100BE000ADF818004FF6FF70089040F20110079121
:100BF000ADF82400A5F57E3002A9FFF789FC0AB004
:100C0000B0BD0000F0B583B040F60005C4F20405A5
:100C100005F50064002720460421012200230097E7
:100C20000197FFF7ADFB2046052101220023009725
:100C30000197FFF7A5FB204608210122002300971A
:100C40000197FFF79DFB20460421FFF78FFB20460D
:100C50000521FFF78BFB20460821FFF787FB2024A7
:100C6000C4F20A042046092104220023FFF70AFEE9
:100C700020460A2104220023FFF704FE20460B2110
:100C800004220023FFF7FEFD20460C21032200234F
:100C9000FFF7F8FD20460D2106220023FFF7F2FDA5
:100CA000A5F5006630460C2101220023009701972C
:100CB000FFF766FB30460D210122002300970197C4
:100CC000FFF75EFB30460C21FFF750FB30460D214D
:100CD000FFF74CFB05F5BF2630460E21022200230C
:100CE000FFF7D0FD30460F2102220023FFF7CAFD97
:100CF0002046002105220023FFF7C4FD20460121E4
:100D000006220023FFF7BEFD204602210622002313
:100D1000FFF7B8FD2046032106220023FFF7B2FDAE
:100D2000284601210122002300970197FFF728FBA5
:100D300028460B210122002300970197FFF720FB93
:100D400028460D210122002300970197FFF718FB89
:100D500028460121FFF70AFB28460B21FFF706FB77
:100D600028460D21FFF702FBA4F1100528460F21AC
:100D700007220023FFF786FD3046022104220023CC
:100D8000FFF780FD3046092102220023FFF77AFD9C
:100D900030460A2105220023FFF774FD30460B215F
:100DA00004220023FFF76EFD2846052106220023BA
:100DB000FFF768FD2846022106220023FFF762FDA7
:100DC00060342046082103220023FFF75BFD204604
:100DD0000B2102220023FFF755FD03B0F0BD0000F8
:100DE00082B00024C4F20404FFF73EFE0025204632
:100DF00000210022012300950195FFF7C1FA20464A
:100E000005210122002300950195FFF7B9FAFFF7AC
:100E1000F3FBFFF79DFEA4F57830FFF7E7FB03E057
:100E200020460521FFF7A2FA20460021FFF7A4FA89
:100E30000028F5D120460521FFF754FBF4E7000018
:100E400080B54AF20000C4F20A0001210160FFF7F8
:100E500063FE4FF08040016841F00101016080BDF8
:100E600010B50446FFF7ECFFFFF7CEFC0420C4F2F8
:100E70000000012101604FF080400168002C21F04A
:100E80001C010160016841F004010160016821F06A
:100E9000020118BF02310160016821F00101016007
:100EA00010BD02E008C8121F08C1002AFAD170471D
:100EB0007047002001E001C1121F002AFBD17047DA
:100EC000E00E00000000002010000000A20E000054
:100ED000F00E00001000002000400000B20E0000E4
:100EE0001400000000000080002D3101000000000F
:04000005000001A94D
:00000001FF
